{
	"EstudandoSolidity/Structs.sol": {
		"marketplace": {
			"abi": [
				{
					"inputs": [
						{
							"internalType": "uint256",
							"name": "_id",
							"type": "uint256"
						},
						{
							"internalType": "string",
							"name": "_name",
							"type": "string"
						}
					],
					"name": "addUsuarioBarato",
					"outputs": [],
					"stateMutability": "nonpayable",
					"type": "function"
				},
				{
					"inputs": [
						{
							"internalType": "uint256",
							"name": "_id",
							"type": "uint256"
						},
						{
							"internalType": "string",
							"name": "_name",
							"type": "string"
						}
					],
					"name": "addUsuarioExplicit",
					"outputs": [],
					"stateMutability": "nonpayable",
					"type": "function"
				},
				{
					"inputs": [
						{
							"internalType": "uint256",
							"name": "_id",
							"type": "uint256"
						},
						{
							"internalType": "string",
							"name": "_name",
							"type": "string"
						}
					],
					"name": "addUsuarioImplicit",
					"outputs": [],
					"stateMutability": "nonpayable",
					"type": "function"
				},
				{
					"inputs": [
						{
							"internalType": "uint256",
							"name": "_position",
							"type": "uint256"
						}
					],
					"name": "nome",
					"outputs": [
						{
							"internalType": "string",
							"name": "",
							"type": "string"
						}
					],
					"stateMutability": "view",
					"type": "function"
				}
			],
			"devdoc": {
				"kind": "dev",
				"methods": {},
				"version": 1
			},
			"evm": {
				"assembly": "    /* \"EstudandoSolidity/Structs.sol\":27:837  contract marketplace{... */\n  mstore(0x40, 0x80)\n  callvalue\n  dup1\n  iszero\n  tag_1\n  jumpi\n  0x00\n  dup1\n  revert\ntag_1:\n  pop\n  dataSize(sub_0)\n  dup1\n  dataOffset(sub_0)\n  0x00\n  codecopy\n  0x00\n  return\nstop\n\nsub_0: assembly {\n        /* \"EstudandoSolidity/Structs.sol\":27:837  contract marketplace{... */\n      mstore(0x40, 0x80)\n      callvalue\n      dup1\n      iszero\n      tag_1\n      jumpi\n      0x00\n      dup1\n      revert\n    tag_1:\n      pop\n      jumpi(tag_2, lt(calldatasize, 0x04))\n      shr(0xe0, calldataload(0x00))\n      dup1\n      0x062253c9\n      eq\n      tag_3\n      jumpi\n      dup1\n      0x41c87c82\n      eq\n      tag_4\n      jumpi\n      dup1\n      0x45a86e88\n      eq\n      tag_5\n      jumpi\n      dup1\n      0xc2e1fae3\n      eq\n      tag_6\n      jumpi\n    tag_2:\n      0x00\n      dup1\n      revert\n        /* \"EstudandoSolidity/Structs.sol\":362:560  function addUsuarioExplicit(uint _id, string memory _name) external {... */\n    tag_3:\n      tag_7\n      0x04\n      dup1\n      calldatasize\n      sub\n      dup2\n      add\n      swap1\n      tag_8\n      swap2\n      swap1\n      tag_9\n      jump\t// in\n    tag_8:\n      tag_10\n      jump\t// in\n    tag_7:\n      stop\n        /* \"EstudandoSolidity/Structs.sol\":712:832  function nome(uint _position) external view returns(string memory){... */\n    tag_4:\n      tag_11\n      0x04\n      dup1\n      calldatasize\n      sub\n      dup2\n      add\n      swap1\n      tag_12\n      swap2\n      swap1\n      tag_13\n      jump\t// in\n    tag_12:\n      tag_14\n      jump\t// in\n    tag_11:\n      mload(0x40)\n      tag_15\n      swap2\n      swap1\n      tag_16\n      jump\t// in\n    tag_15:\n      mload(0x40)\n      dup1\n      swap2\n      sub\n      swap1\n      return\n        /* \"EstudandoSolidity/Structs.sol\":176:354  function addUsuarioImplicit(uint _id, string memory _name) external {... */\n    tag_5:\n      tag_17\n      0x04\n      dup1\n      calldatasize\n      sub\n      dup2\n      add\n      swap1\n      tag_18\n      swap2\n      swap1\n      tag_9\n      jump\t// in\n    tag_18:\n      tag_19\n      jump\t// in\n    tag_17:\n      stop\n        /* \"EstudandoSolidity/Structs.sol\":568:704  function addUsuarioBarato(uint _id, string memory _name) external {... */\n    tag_6:\n      tag_20\n      0x04\n      dup1\n      calldatasize\n      sub\n      dup2\n      add\n      swap1\n      tag_21\n      swap2\n      swap1\n      tag_9\n      jump\t// in\n    tag_21:\n      tag_22\n      jump\t// in\n    tag_20:\n      stop\n        /* \"EstudandoSolidity/Structs.sol\":362:560  function addUsuarioExplicit(uint _id, string memory _name) external {... */\n    tag_10:\n        /* \"EstudandoSolidity/Structs.sol\":441:464  Usuario memory usuario2 */\n      0x00\n        /* \"EstudandoSolidity/Structs.sol\":467:518  Usuario({wallet: msg.sender, id: _id, name: _name}) */\n      mload(0x40)\n      dup1\n      0x60\n      add\n      0x40\n      mstore\n      dup1\n        /* \"EstudandoSolidity/Structs.sol\":484:494  msg.sender */\n      caller\n        /* \"EstudandoSolidity/Structs.sol\":467:518  Usuario({wallet: msg.sender, id: _id, name: _name}) */\n      0xffffffffffffffffffffffffffffffffffffffff\n      and\n      dup2\n      mstore\n      0x20\n      add\n        /* \"EstudandoSolidity/Structs.sol\":500:503  _id */\n      dup5\n        /* \"EstudandoSolidity/Structs.sol\":467:518  Usuario({wallet: msg.sender, id: _id, name: _name}) */\n      dup2\n      mstore\n      0x20\n      add\n        /* \"EstudandoSolidity/Structs.sol\":511:516  _name */\n      dup4\n        /* \"EstudandoSolidity/Structs.sol\":467:518  Usuario({wallet: msg.sender, id: _id, name: _name}) */\n      dup2\n      mstore\n      pop\n        /* \"EstudandoSolidity/Structs.sol\":441:518  Usuario memory usuario2 = Usuario({wallet: msg.sender, id: _id, name: _name}) */\n      swap1\n      pop\n        /* \"EstudandoSolidity/Structs.sol\":529:537  usuarios */\n      0x00\n        /* \"EstudandoSolidity/Structs.sol\":543:551  usuario2 */\n      dup2\n        /* \"EstudandoSolidity/Structs.sol\":529:552  usuarios.push(usuario2) */\n      swap1\n      dup1\n      0x01\n      dup2\n      sload\n      add\n      dup1\n      dup3\n      sstore\n      dup1\n      swap2\n      pop\n      pop\n      0x01\n      swap1\n      sub\n      swap1\n      0x00\n      mstore\n      keccak256(0x00, 0x20)\n      swap1\n      0x03\n      mul\n      add\n      0x00\n      swap1\n      swap2\n      swap1\n      swap2\n      swap1\n      swap2\n      pop\n      0x00\n      dup3\n      add\n      mload\n      dup2\n      0x00\n      add\n      exp(0x0100, 0x00)\n      dup2\n      sload\n      dup2\n      0xffffffffffffffffffffffffffffffffffffffff\n      mul\n      not\n      and\n      swap1\n      dup4\n      0xffffffffffffffffffffffffffffffffffffffff\n      and\n      mul\n      or\n      swap1\n      sstore\n      pop\n      0x20\n      dup3\n      add\n      mload\n      dup2\n      0x01\n      add\n      sstore\n      0x40\n      dup3\n      add\n      mload\n      dup2\n      0x02\n      add\n      swap1\n      dup1\n      mload\n      swap1\n      0x20\n      add\n      swap1\n      tag_25\n      swap3\n      swap2\n      swap1\n      tag_26\n      jump\t// in\n    tag_25:\n      pop\n      pop\n      pop\n        /* \"EstudandoSolidity/Structs.sol\":430:560  {... */\n      pop\n        /* \"EstudandoSolidity/Structs.sol\":362:560  function addUsuarioExplicit(uint _id, string memory _name) external {... */\n      pop\n      pop\n      jump\t// out\n        /* \"EstudandoSolidity/Structs.sol\":712:832  function nome(uint _position) external view returns(string memory){... */\n    tag_14:\n        /* \"EstudandoSolidity/Structs.sol\":764:777  string memory */\n      0x60\n        /* \"EstudandoSolidity/Structs.sol\":796:804  usuarios */\n      0x00\n        /* \"EstudandoSolidity/Structs.sol\":805:814  _position */\n      dup3\n        /* \"EstudandoSolidity/Structs.sol\":796:815  usuarios[_position] */\n      dup2\n      sload\n      dup2\n      lt\n      tag_28\n      jumpi\n      tag_29\n      tag_30\n      jump\t// in\n    tag_29:\n    tag_28:\n      swap1\n      0x00\n      mstore\n      keccak256(0x00, 0x20)\n      swap1\n      0x03\n      mul\n      add\n        /* \"EstudandoSolidity/Structs.sol\":796:820  usuarios[_position].name */\n      0x02\n      add\n        /* \"EstudandoSolidity/Structs.sol\":789:820  return usuarios[_position].name */\n      dup1\n      sload\n      tag_32\n      swap1\n      tag_33\n      jump\t// in\n    tag_32:\n      dup1\n      0x1f\n      add\n      0x20\n      dup1\n      swap2\n      div\n      mul\n      0x20\n      add\n      mload(0x40)\n      swap1\n      dup2\n      add\n      0x40\n      mstore\n      dup1\n      swap3\n      swap2\n      swap1\n      dup2\n      dup2\n      mstore\n      0x20\n      add\n      dup3\n      dup1\n      sload\n      tag_34\n      swap1\n      tag_33\n      jump\t// in\n    tag_34:\n      dup1\n      iszero\n      tag_35\n      jumpi\n      dup1\n      0x1f\n      lt\n      tag_36\n      jumpi\n      0x0100\n      dup1\n      dup4\n      sload\n      div\n      mul\n      dup4\n      mstore\n      swap2\n      0x20\n      add\n      swap2\n      jump(tag_35)\n    tag_36:\n      dup3\n      add\n      swap2\n      swap1\n      0x00\n      mstore\n      keccak256(0x00, 0x20)\n      swap1\n    tag_37:\n      dup2\n      sload\n      dup2\n      mstore\n      swap1\n      0x01\n      add\n      swap1\n      0x20\n      add\n      dup1\n      dup4\n      gt\n      tag_37\n      jumpi\n      dup3\n      swap1\n      sub\n      0x1f\n      and\n      dup3\n      add\n      swap2\n    tag_35:\n      pop\n      pop\n      pop\n      pop\n      pop\n      swap1\n      pop\n        /* \"EstudandoSolidity/Structs.sol\":712:832  function nome(uint _position) external view returns(string memory){... */\n      swap2\n      swap1\n      pop\n      jump\t// out\n        /* \"EstudandoSolidity/Structs.sol\":176:354  function addUsuarioImplicit(uint _id, string memory _name) external {... */\n    tag_19:\n        /* \"EstudandoSolidity/Structs.sol\":255:278  Usuario memory usuario1 */\n      0x00\n        /* \"EstudandoSolidity/Structs.sol\":281:312  Usuario(msg.sender, _id, _name) */\n      mload(0x40)\n      dup1\n      0x60\n      add\n      0x40\n      mstore\n      dup1\n        /* \"EstudandoSolidity/Structs.sol\":289:299  msg.sender */\n      caller\n        /* \"EstudandoSolidity/Structs.sol\":281:312  Usuario(msg.sender, _id, _name) */\n      0xffffffffffffffffffffffffffffffffffffffff\n      and\n      dup2\n      mstore\n      0x20\n      add\n        /* \"EstudandoSolidity/Structs.sol\":301:304  _id */\n      dup5\n        /* \"EstudandoSolidity/Structs.sol\":281:312  Usuario(msg.sender, _id, _name) */\n      dup2\n      mstore\n      0x20\n      add\n        /* \"EstudandoSolidity/Structs.sol\":306:311  _name */\n      dup4\n        /* \"EstudandoSolidity/Structs.sol\":281:312  Usuario(msg.sender, _id, _name) */\n      dup2\n      mstore\n      pop\n        /* \"EstudandoSolidity/Structs.sol\":255:312  Usuario memory usuario1 = Usuario(msg.sender, _id, _name) */\n      swap1\n      pop\n        /* \"EstudandoSolidity/Structs.sol\":323:331  usuarios */\n      0x00\n        /* \"EstudandoSolidity/Structs.sol\":337:345  usuario1 */\n      dup2\n        /* \"EstudandoSolidity/Structs.sol\":323:346  usuarios.push(usuario1) */\n      swap1\n      dup1\n      0x01\n      dup2\n      sload\n      add\n      dup1\n      dup3\n      sstore\n      dup1\n      swap2\n      pop\n      pop\n      0x01\n      swap1\n      sub\n      swap1\n      0x00\n      mstore\n      keccak256(0x00, 0x20)\n      swap1\n      0x03\n      mul\n      add\n      0x00\n      swap1\n      swap2\n      swap1\n      swap2\n      swap1\n      swap2\n      pop\n      0x00\n      dup3\n      add\n      mload\n      dup2\n      0x00\n      add\n      exp(0x0100, 0x00)\n      dup2\n      sload\n      dup2\n      0xffffffffffffffffffffffffffffffffffffffff\n      mul\n      not\n      and\n      swap1\n      dup4\n      0xffffffffffffffffffffffffffffffffffffffff\n      and\n      mul\n      or\n      swap1\n      sstore\n      pop\n      0x20\n      dup3\n      add\n      mload\n      dup2\n      0x01\n      add\n      sstore\n      0x40\n      dup3\n      add\n      mload\n      dup2\n      0x02\n      add\n      swap1\n      dup1\n      mload\n      swap1\n      0x20\n      add\n      swap1\n      tag_40\n      swap3\n      swap2\n      swap1\n      tag_26\n      jump\t// in\n    tag_40:\n      pop\n      pop\n      pop\n        /* \"EstudandoSolidity/Structs.sol\":244:354  {... */\n      pop\n        /* \"EstudandoSolidity/Structs.sol\":176:354  function addUsuarioImplicit(uint _id, string memory _name) external {... */\n      pop\n      pop\n      jump\t// out\n        /* \"EstudandoSolidity/Structs.sol\":568:704  function addUsuarioBarato(uint _id, string memory _name) external {... */\n    tag_22:\n        /* \"EstudandoSolidity/Structs.sol\":650:658  usuarios */\n      0x00\n        /* \"EstudandoSolidity/Structs.sol\":664:695  Usuario(msg.sender, _id, _name) */\n      mload(0x40)\n      dup1\n      0x60\n      add\n      0x40\n      mstore\n      dup1\n        /* \"EstudandoSolidity/Structs.sol\":672:682  msg.sender */\n      caller\n        /* \"EstudandoSolidity/Structs.sol\":664:695  Usuario(msg.sender, _id, _name) */\n      0xffffffffffffffffffffffffffffffffffffffff\n      and\n      dup2\n      mstore\n      0x20\n      add\n        /* \"EstudandoSolidity/Structs.sol\":684:687  _id */\n      dup5\n        /* \"EstudandoSolidity/Structs.sol\":664:695  Usuario(msg.sender, _id, _name) */\n      dup2\n      mstore\n      0x20\n      add\n        /* \"EstudandoSolidity/Structs.sol\":689:694  _name */\n      dup4\n        /* \"EstudandoSolidity/Structs.sol\":664:695  Usuario(msg.sender, _id, _name) */\n      dup2\n      mstore\n      pop\n        /* \"EstudandoSolidity/Structs.sol\":650:696  usuarios.push(Usuario(msg.sender, _id, _name)) */\n      swap1\n      dup1\n      0x01\n      dup2\n      sload\n      add\n      dup1\n      dup3\n      sstore\n      dup1\n      swap2\n      pop\n      pop\n      0x01\n      swap1\n      sub\n      swap1\n      0x00\n      mstore\n      keccak256(0x00, 0x20)\n      swap1\n      0x03\n      mul\n      add\n      0x00\n      swap1\n      swap2\n      swap1\n      swap2\n      swap1\n      swap2\n      pop\n      0x00\n      dup3\n      add\n      mload\n      dup2\n      0x00\n      add\n      exp(0x0100, 0x00)\n      dup2\n      sload\n      dup2\n      0xffffffffffffffffffffffffffffffffffffffff\n      mul\n      not\n      and\n      swap1\n      dup4\n      0xffffffffffffffffffffffffffffffffffffffff\n      and\n      mul\n      or\n      swap1\n      sstore\n      pop\n      0x20\n      dup3\n      add\n      mload\n      dup2\n      0x01\n      add\n      sstore\n      0x40\n      dup3\n      add\n      mload\n      dup2\n      0x02\n      add\n      swap1\n      dup1\n      mload\n      swap1\n      0x20\n      add\n      swap1\n      tag_43\n      swap3\n      swap2\n      swap1\n      tag_26\n      jump\t// in\n    tag_43:\n      pop\n      pop\n      pop\n        /* \"EstudandoSolidity/Structs.sol\":568:704  function addUsuarioBarato(uint _id, string memory _name) external {... */\n      pop\n      pop\n      jump\t// out\n    tag_26:\n      dup3\n      dup1\n      sload\n      tag_44\n      swap1\n      tag_33\n      jump\t// in\n    tag_44:\n      swap1\n      0x00\n      mstore\n      keccak256(0x00, 0x20)\n      swap1\n      0x1f\n      add\n      0x20\n      swap1\n      div\n      dup2\n      add\n      swap3\n      dup3\n      tag_46\n      jumpi\n      0x00\n      dup6\n      sstore\n      jump(tag_45)\n    tag_46:\n      dup3\n      0x1f\n      lt\n      tag_47\n      jumpi\n      dup1\n      mload\n      not(0xff)\n      and\n      dup4\n      dup1\n      add\n      or\n      dup6\n      sstore\n      jump(tag_45)\n    tag_47:\n      dup3\n      dup1\n      add\n      0x01\n      add\n      dup6\n      sstore\n      dup3\n      iszero\n      tag_45\n      jumpi\n      swap2\n      dup3\n      add\n    tag_48:\n      dup3\n      dup2\n      gt\n      iszero\n      tag_49\n      jumpi\n      dup3\n      mload\n      dup3\n      sstore\n      swap2\n      0x20\n      add\n      swap2\n      swap1\n      0x01\n      add\n      swap1\n      jump(tag_48)\n    tag_49:\n    tag_45:\n      pop\n      swap1\n      pop\n      tag_50\n      swap2\n      swap1\n      tag_51\n      jump\t// in\n    tag_50:\n      pop\n      swap1\n      jump\t// out\n    tag_51:\n    tag_52:\n      dup1\n      dup3\n      gt\n      iszero\n      tag_53\n      jumpi\n      0x00\n      dup2\n      0x00\n      swap1\n      sstore\n      pop\n      0x01\n      add\n      jump(tag_52)\n    tag_53:\n      pop\n      swap1\n      jump\t// out\n        /* \"#utility.yul\":7:82   */\n    tag_54:\n        /* \"#utility.yul\":40:46   */\n      0x00\n        /* \"#utility.yul\":73:75   */\n      0x40\n        /* \"#utility.yul\":67:76   */\n      mload\n        /* \"#utility.yul\":57:76   */\n      swap1\n      pop\n        /* \"#utility.yul\":7:82   */\n      swap1\n      jump\t// out\n        /* \"#utility.yul\":88:205   */\n    tag_55:\n        /* \"#utility.yul\":197:198   */\n      0x00\n        /* \"#utility.yul\":194:195   */\n      dup1\n        /* \"#utility.yul\":187:199   */\n      revert\n        /* \"#utility.yul\":211:328   */\n    tag_56:\n        /* \"#utility.yul\":320:321   */\n      0x00\n        /* \"#utility.yul\":317:318   */\n      dup1\n        /* \"#utility.yul\":310:322   */\n      revert\n        /* \"#utility.yul\":334:411   */\n    tag_57:\n        /* \"#utility.yul\":371:378   */\n      0x00\n        /* \"#utility.yul\":400:405   */\n      dup2\n        /* \"#utility.yul\":389:405   */\n      swap1\n      pop\n        /* \"#utility.yul\":334:411   */\n      swap2\n      swap1\n      pop\n      jump\t// out\n        /* \"#utility.yul\":417:539   */\n    tag_58:\n        /* \"#utility.yul\":490:514   */\n      tag_81\n        /* \"#utility.yul\":508:513   */\n      dup2\n        /* \"#utility.yul\":490:514   */\n      tag_57\n      jump\t// in\n    tag_81:\n        /* \"#utility.yul\":483:488   */\n      dup2\n        /* \"#utility.yul\":480:515   */\n      eq\n        /* \"#utility.yul\":470:533   */\n      tag_82\n      jumpi\n        /* \"#utility.yul\":529:530   */\n      0x00\n        /* \"#utility.yul\":526:527   */\n      dup1\n        /* \"#utility.yul\":519:531   */\n      revert\n        /* \"#utility.yul\":470:533   */\n    tag_82:\n        /* \"#utility.yul\":417:539   */\n      pop\n      jump\t// out\n        /* \"#utility.yul\":545:684   */\n    tag_59:\n        /* \"#utility.yul\":591:596   */\n      0x00\n        /* \"#utility.yul\":629:635   */\n      dup2\n        /* \"#utility.yul\":616:636   */\n      calldataload\n        /* \"#utility.yul\":607:636   */\n      swap1\n      pop\n        /* \"#utility.yul\":645:678   */\n      tag_84\n        /* \"#utility.yul\":672:677   */\n      dup2\n        /* \"#utility.yul\":645:678   */\n      tag_58\n      jump\t// in\n    tag_84:\n        /* \"#utility.yul\":545:684   */\n      swap3\n      swap2\n      pop\n      pop\n      jump\t// out\n        /* \"#utility.yul\":690:807   */\n    tag_60:\n        /* \"#utility.yul\":799:800   */\n      0x00\n        /* \"#utility.yul\":796:797   */\n      dup1\n        /* \"#utility.yul\":789:801   */\n      revert\n        /* \"#utility.yul\":813:930   */\n    tag_61:\n        /* \"#utility.yul\":922:923   */\n      0x00\n        /* \"#utility.yul\":919:920   */\n      dup1\n        /* \"#utility.yul\":912:924   */\n      revert\n        /* \"#utility.yul\":936:1038   */\n    tag_62:\n        /* \"#utility.yul\":977:983   */\n      0x00\n        /* \"#utility.yul\":1028:1030   */\n      0x1f\n        /* \"#utility.yul\":1024:1031   */\n      not\n        /* \"#utility.yul\":1019:1021   */\n      0x1f\n        /* \"#utility.yul\":1012:1017   */\n      dup4\n        /* \"#utility.yul\":1008:1022   */\n      add\n        /* \"#utility.yul\":1004:1032   */\n      and\n        /* \"#utility.yul\":994:1032   */\n      swap1\n      pop\n        /* \"#utility.yul\":936:1038   */\n      swap2\n      swap1\n      pop\n      jump\t// out\n        /* \"#utility.yul\":1044:1224   */\n    tag_63:\n        /* \"#utility.yul\":1092:1169   */\n      0x4e487b7100000000000000000000000000000000000000000000000000000000\n        /* \"#utility.yul\":1089:1090   */\n      0x00\n        /* \"#utility.yul\":1082:1170   */\n      mstore\n        /* \"#utility.yul\":1189:1193   */\n      0x41\n        /* \"#utility.yul\":1186:1187   */\n      0x04\n        /* \"#utility.yul\":1179:1194   */\n      mstore\n        /* \"#utility.yul\":1213:1217   */\n      0x24\n        /* \"#utility.yul\":1210:1211   */\n      0x00\n        /* \"#utility.yul\":1203:1218   */\n      revert\n        /* \"#utility.yul\":1230:1511   */\n    tag_64:\n        /* \"#utility.yul\":1313:1340   */\n      tag_90\n        /* \"#utility.yul\":1335:1339   */\n      dup3\n        /* \"#utility.yul\":1313:1340   */\n      tag_62\n      jump\t// in\n    tag_90:\n        /* \"#utility.yul\":1305:1311   */\n      dup2\n        /* \"#utility.yul\":1301:1341   */\n      add\n        /* \"#utility.yul\":1443:1449   */\n      dup2\n        /* \"#utility.yul\":1431:1441   */\n      dup2\n        /* \"#utility.yul\":1428:1450   */\n      lt\n        /* \"#utility.yul\":1407:1425   */\n      0xffffffffffffffff\n        /* \"#utility.yul\":1395:1405   */\n      dup3\n        /* \"#utility.yul\":1392:1426   */\n      gt\n        /* \"#utility.yul\":1389:1451   */\n      or\n        /* \"#utility.yul\":1386:1474   */\n      iszero\n      tag_91\n      jumpi\n        /* \"#utility.yul\":1454:1472   */\n      tag_92\n      tag_63\n      jump\t// in\n    tag_92:\n        /* \"#utility.yul\":1386:1474   */\n    tag_91:\n        /* \"#utility.yul\":1494:1504   */\n      dup1\n        /* \"#utility.yul\":1490:1492   */\n      0x40\n        /* \"#utility.yul\":1483:1505   */\n      mstore\n        /* \"#utility.yul\":1273:1511   */\n      pop\n        /* \"#utility.yul\":1230:1511   */\n      pop\n      pop\n      jump\t// out\n        /* \"#utility.yul\":1517:1646   */\n    tag_65:\n        /* \"#utility.yul\":1551:1557   */\n      0x00\n        /* \"#utility.yul\":1578:1598   */\n      tag_94\n      tag_54\n      jump\t// in\n    tag_94:\n        /* \"#utility.yul\":1568:1598   */\n      swap1\n      pop\n        /* \"#utility.yul\":1607:1640   */\n      tag_95\n        /* \"#utility.yul\":1635:1639   */\n      dup3\n        /* \"#utility.yul\":1627:1633   */\n      dup3\n        /* \"#utility.yul\":1607:1640   */\n      tag_64\n      jump\t// in\n    tag_95:\n        /* \"#utility.yul\":1517:1646   */\n      swap2\n      swap1\n      pop\n      jump\t// out\n        /* \"#utility.yul\":1652:1960   */\n    tag_66:\n        /* \"#utility.yul\":1714:1718   */\n      0x00\n        /* \"#utility.yul\":1804:1822   */\n      0xffffffffffffffff\n        /* \"#utility.yul\":1796:1802   */\n      dup3\n        /* \"#utility.yul\":1793:1823   */\n      gt\n        /* \"#utility.yul\":1790:1846   */\n      iszero\n      tag_97\n      jumpi\n        /* \"#utility.yul\":1826:1844   */\n      tag_98\n      tag_63\n      jump\t// in\n    tag_98:\n        /* \"#utility.yul\":1790:1846   */\n    tag_97:\n        /* \"#utility.yul\":1864:1893   */\n      tag_99\n        /* \"#utility.yul\":1886:1892   */\n      dup3\n        /* \"#utility.yul\":1864:1893   */\n      tag_62\n      jump\t// in\n    tag_99:\n        /* \"#utility.yul\":1856:1893   */\n      swap1\n      pop\n        /* \"#utility.yul\":1948:1952   */\n      0x20\n        /* \"#utility.yul\":1942:1946   */\n      dup2\n        /* \"#utility.yul\":1938:1953   */\n      add\n        /* \"#utility.yul\":1930:1953   */\n      swap1\n      pop\n        /* \"#utility.yul\":1652:1960   */\n      swap2\n      swap1\n      pop\n      jump\t// out\n        /* \"#utility.yul\":1966:2120   */\n    tag_67:\n        /* \"#utility.yul\":2050:2056   */\n      dup3\n        /* \"#utility.yul\":2045:2048   */\n      dup2\n        /* \"#utility.yul\":2040:2043   */\n      dup4\n        /* \"#utility.yul\":2027:2057   */\n      calldatacopy\n        /* \"#utility.yul\":2112:2113   */\n      0x00\n        /* \"#utility.yul\":2103:2109   */\n      dup4\n        /* \"#utility.yul\":2098:2101   */\n      dup4\n        /* \"#utility.yul\":2094:2110   */\n      add\n        /* \"#utility.yul\":2087:2114   */\n      mstore\n        /* \"#utility.yul\":1966:2120   */\n      pop\n      pop\n      pop\n      jump\t// out\n        /* \"#utility.yul\":2126:2538   */\n    tag_68:\n        /* \"#utility.yul\":2204:2209   */\n      0x00\n        /* \"#utility.yul\":2229:2295   */\n      tag_102\n        /* \"#utility.yul\":2245:2294   */\n      tag_103\n        /* \"#utility.yul\":2287:2293   */\n      dup5\n        /* \"#utility.yul\":2245:2294   */\n      tag_66\n      jump\t// in\n    tag_103:\n        /* \"#utility.yul\":2229:2295   */\n      tag_65\n      jump\t// in\n    tag_102:\n        /* \"#utility.yul\":2220:2295   */\n      swap1\n      pop\n        /* \"#utility.yul\":2318:2324   */\n      dup3\n        /* \"#utility.yul\":2311:2316   */\n      dup2\n        /* \"#utility.yul\":2304:2325   */\n      mstore\n        /* \"#utility.yul\":2356:2360   */\n      0x20\n        /* \"#utility.yul\":2349:2354   */\n      dup2\n        /* \"#utility.yul\":2345:2361   */\n      add\n        /* \"#utility.yul\":2394:2397   */\n      dup5\n        /* \"#utility.yul\":2385:2391   */\n      dup5\n        /* \"#utility.yul\":2380:2383   */\n      dup5\n        /* \"#utility.yul\":2376:2392   */\n      add\n        /* \"#utility.yul\":2373:2398   */\n      gt\n        /* \"#utility.yul\":2370:2482   */\n      iszero\n      tag_104\n      jumpi\n        /* \"#utility.yul\":2401:2480   */\n      tag_105\n      tag_61\n      jump\t// in\n    tag_105:\n        /* \"#utility.yul\":2370:2482   */\n    tag_104:\n        /* \"#utility.yul\":2491:2532   */\n      tag_106\n        /* \"#utility.yul\":2525:2531   */\n      dup5\n        /* \"#utility.yul\":2520:2523   */\n      dup3\n        /* \"#utility.yul\":2515:2518   */\n      dup6\n        /* \"#utility.yul\":2491:2532   */\n      tag_67\n      jump\t// in\n    tag_106:\n        /* \"#utility.yul\":2210:2538   */\n      pop\n        /* \"#utility.yul\":2126:2538   */\n      swap4\n      swap3\n      pop\n      pop\n      pop\n      jump\t// out\n        /* \"#utility.yul\":2558:2898   */\n    tag_69:\n        /* \"#utility.yul\":2614:2619   */\n      0x00\n        /* \"#utility.yul\":2663:2666   */\n      dup3\n        /* \"#utility.yul\":2656:2660   */\n      0x1f\n        /* \"#utility.yul\":2648:2654   */\n      dup4\n        /* \"#utility.yul\":2644:2661   */\n      add\n        /* \"#utility.yul\":2640:2667   */\n      slt\n        /* \"#utility.yul\":2630:2752   */\n      tag_108\n      jumpi\n        /* \"#utility.yul\":2671:2750   */\n      tag_109\n      tag_60\n      jump\t// in\n    tag_109:\n        /* \"#utility.yul\":2630:2752   */\n    tag_108:\n        /* \"#utility.yul\":2788:2794   */\n      dup2\n        /* \"#utility.yul\":2775:2795   */\n      calldataload\n        /* \"#utility.yul\":2813:2892   */\n      tag_110\n        /* \"#utility.yul\":2888:2891   */\n      dup5\n        /* \"#utility.yul\":2880:2886   */\n      dup3\n        /* \"#utility.yul\":2873:2877   */\n      0x20\n        /* \"#utility.yul\":2865:2871   */\n      dup7\n        /* \"#utility.yul\":2861:2878   */\n      add\n        /* \"#utility.yul\":2813:2892   */\n      tag_68\n      jump\t// in\n    tag_110:\n        /* \"#utility.yul\":2804:2892   */\n      swap2\n      pop\n        /* \"#utility.yul\":2620:2898   */\n      pop\n        /* \"#utility.yul\":2558:2898   */\n      swap3\n      swap2\n      pop\n      pop\n      jump\t// out\n        /* \"#utility.yul\":2904:3558   */\n    tag_9:\n        /* \"#utility.yul\":2982:2988   */\n      0x00\n        /* \"#utility.yul\":2990:2996   */\n      dup1\n        /* \"#utility.yul\":3039:3041   */\n      0x40\n        /* \"#utility.yul\":3027:3036   */\n      dup4\n        /* \"#utility.yul\":3018:3025   */\n      dup6\n        /* \"#utility.yul\":3014:3037   */\n      sub\n        /* \"#utility.yul\":3010:3042   */\n      slt\n        /* \"#utility.yul\":3007:3126   */\n      iszero\n      tag_112\n      jumpi\n        /* \"#utility.yul\":3045:3124   */\n      tag_113\n      tag_55\n      jump\t// in\n    tag_113:\n        /* \"#utility.yul\":3007:3126   */\n    tag_112:\n        /* \"#utility.yul\":3165:3166   */\n      0x00\n        /* \"#utility.yul\":3190:3243   */\n      tag_114\n        /* \"#utility.yul\":3235:3242   */\n      dup6\n        /* \"#utility.yul\":3226:3232   */\n      dup3\n        /* \"#utility.yul\":3215:3224   */\n      dup7\n        /* \"#utility.yul\":3211:3233   */\n      add\n        /* \"#utility.yul\":3190:3243   */\n      tag_59\n      jump\t// in\n    tag_114:\n        /* \"#utility.yul\":3180:3243   */\n      swap3\n      pop\n        /* \"#utility.yul\":3136:3253   */\n      pop\n        /* \"#utility.yul\":3320:3322   */\n      0x20\n        /* \"#utility.yul\":3309:3318   */\n      dup4\n        /* \"#utility.yul\":3305:3323   */\n      add\n        /* \"#utility.yul\":3292:3324   */\n      calldataload\n        /* \"#utility.yul\":3351:3369   */\n      0xffffffffffffffff\n        /* \"#utility.yul\":3343:3349   */\n      dup2\n        /* \"#utility.yul\":3340:3370   */\n      gt\n        /* \"#utility.yul\":3337:3454   */\n      iszero\n      tag_115\n      jumpi\n        /* \"#utility.yul\":3373:3452   */\n      tag_116\n      tag_56\n      jump\t// in\n    tag_116:\n        /* \"#utility.yul\":3337:3454   */\n    tag_115:\n        /* \"#utility.yul\":3478:3541   */\n      tag_117\n        /* \"#utility.yul\":3533:3540   */\n      dup6\n        /* \"#utility.yul\":3524:3530   */\n      dup3\n        /* \"#utility.yul\":3513:3522   */\n      dup7\n        /* \"#utility.yul\":3509:3531   */\n      add\n        /* \"#utility.yul\":3478:3541   */\n      tag_69\n      jump\t// in\n    tag_117:\n        /* \"#utility.yul\":3468:3541   */\n      swap2\n      pop\n        /* \"#utility.yul\":3263:3551   */\n      pop\n        /* \"#utility.yul\":2904:3558   */\n      swap3\n      pop\n      swap3\n      swap1\n      pop\n      jump\t// out\n        /* \"#utility.yul\":3564:3893   */\n    tag_13:\n        /* \"#utility.yul\":3623:3629   */\n      0x00\n        /* \"#utility.yul\":3672:3674   */\n      0x20\n        /* \"#utility.yul\":3660:3669   */\n      dup3\n        /* \"#utility.yul\":3651:3658   */\n      dup5\n        /* \"#utility.yul\":3647:3670   */\n      sub\n        /* \"#utility.yul\":3643:3675   */\n      slt\n        /* \"#utility.yul\":3640:3759   */\n      iszero\n      tag_119\n      jumpi\n        /* \"#utility.yul\":3678:3757   */\n      tag_120\n      tag_55\n      jump\t// in\n    tag_120:\n        /* \"#utility.yul\":3640:3759   */\n    tag_119:\n        /* \"#utility.yul\":3798:3799   */\n      0x00\n        /* \"#utility.yul\":3823:3876   */\n      tag_121\n        /* \"#utility.yul\":3868:3875   */\n      dup5\n        /* \"#utility.yul\":3859:3865   */\n      dup3\n        /* \"#utility.yul\":3848:3857   */\n      dup6\n        /* \"#utility.yul\":3844:3866   */\n      add\n        /* \"#utility.yul\":3823:3876   */\n      tag_59\n      jump\t// in\n    tag_121:\n        /* \"#utility.yul\":3813:3876   */\n      swap2\n      pop\n        /* \"#utility.yul\":3769:3886   */\n      pop\n        /* \"#utility.yul\":3564:3893   */\n      swap3\n      swap2\n      pop\n      pop\n      jump\t// out\n        /* \"#utility.yul\":3899:3998   */\n    tag_70:\n        /* \"#utility.yul\":3951:3957   */\n      0x00\n        /* \"#utility.yul\":3985:3990   */\n      dup2\n        /* \"#utility.yul\":3979:3991   */\n      mload\n        /* \"#utility.yul\":3969:3991   */\n      swap1\n      pop\n        /* \"#utility.yul\":3899:3998   */\n      swap2\n      swap1\n      pop\n      jump\t// out\n        /* \"#utility.yul\":4004:4173   */\n    tag_71:\n        /* \"#utility.yul\":4088:4099   */\n      0x00\n        /* \"#utility.yul\":4122:4128   */\n      dup3\n        /* \"#utility.yul\":4117:4120   */\n      dup3\n        /* \"#utility.yul\":4110:4129   */\n      mstore\n        /* \"#utility.yul\":4162:4166   */\n      0x20\n        /* \"#utility.yul\":4157:4160   */\n      dup3\n        /* \"#utility.yul\":4153:4167   */\n      add\n        /* \"#utility.yul\":4138:4167   */\n      swap1\n      pop\n        /* \"#utility.yul\":4004:4173   */\n      swap3\n      swap2\n      pop\n      pop\n      jump\t// out\n        /* \"#utility.yul\":4179:4486   */\n    tag_72:\n        /* \"#utility.yul\":4247:4248   */\n      0x00\n        /* \"#utility.yul\":4257:4370   */\n    tag_125:\n        /* \"#utility.yul\":4271:4277   */\n      dup4\n        /* \"#utility.yul\":4268:4269   */\n      dup2\n        /* \"#utility.yul\":4265:4278   */\n      lt\n        /* \"#utility.yul\":4257:4370   */\n      iszero\n      tag_127\n      jumpi\n        /* \"#utility.yul\":4356:4357   */\n      dup1\n        /* \"#utility.yul\":4351:4354   */\n      dup3\n        /* \"#utility.yul\":4347:4358   */\n      add\n        /* \"#utility.yul\":4341:4359   */\n      mload\n        /* \"#utility.yul\":4337:4338   */\n      dup2\n        /* \"#utility.yul\":4332:4335   */\n      dup5\n        /* \"#utility.yul\":4328:4339   */\n      add\n        /* \"#utility.yul\":4321:4360   */\n      mstore\n        /* \"#utility.yul\":4293:4295   */\n      0x20\n        /* \"#utility.yul\":4290:4291   */\n      dup2\n        /* \"#utility.yul\":4286:4296   */\n      add\n        /* \"#utility.yul\":4281:4296   */\n      swap1\n      pop\n        /* \"#utility.yul\":4257:4370   */\n      jump(tag_125)\n    tag_127:\n        /* \"#utility.yul\":4388:4394   */\n      dup4\n        /* \"#utility.yul\":4385:4386   */\n      dup2\n        /* \"#utility.yul\":4382:4395   */\n      gt\n        /* \"#utility.yul\":4379:4480   */\n      iszero\n      tag_128\n      jumpi\n        /* \"#utility.yul\":4468:4469   */\n      0x00\n        /* \"#utility.yul\":4459:4465   */\n      dup5\n        /* \"#utility.yul\":4454:4457   */\n      dup5\n        /* \"#utility.yul\":4450:4466   */\n      add\n        /* \"#utility.yul\":4443:4470   */\n      mstore\n        /* \"#utility.yul\":4379:4480   */\n    tag_128:\n        /* \"#utility.yul\":4228:4486   */\n      pop\n        /* \"#utility.yul\":4179:4486   */\n      pop\n      pop\n      pop\n      jump\t// out\n        /* \"#utility.yul\":4492:4856   */\n    tag_73:\n        /* \"#utility.yul\":4580:4583   */\n      0x00\n        /* \"#utility.yul\":4608:4647   */\n      tag_130\n        /* \"#utility.yul\":4641:4646   */\n      dup3\n        /* \"#utility.yul\":4608:4647   */\n      tag_70\n      jump\t// in\n    tag_130:\n        /* \"#utility.yul\":4663:4734   */\n      tag_131\n        /* \"#utility.yul\":4727:4733   */\n      dup2\n        /* \"#utility.yul\":4722:4725   */\n      dup6\n        /* \"#utility.yul\":4663:4734   */\n      tag_71\n      jump\t// in\n    tag_131:\n        /* \"#utility.yul\":4656:4734   */\n      swap4\n      pop\n        /* \"#utility.yul\":4743:4795   */\n      tag_132\n        /* \"#utility.yul\":4788:4794   */\n      dup2\n        /* \"#utility.yul\":4783:4786   */\n      dup6\n        /* \"#utility.yul\":4776:4780   */\n      0x20\n        /* \"#utility.yul\":4769:4774   */\n      dup7\n        /* \"#utility.yul\":4765:4781   */\n      add\n        /* \"#utility.yul\":4743:4795   */\n      tag_72\n      jump\t// in\n    tag_132:\n        /* \"#utility.yul\":4820:4849   */\n      tag_133\n        /* \"#utility.yul\":4842:4848   */\n      dup2\n        /* \"#utility.yul\":4820:4849   */\n      tag_62\n      jump\t// in\n    tag_133:\n        /* \"#utility.yul\":4815:4818   */\n      dup5\n        /* \"#utility.yul\":4811:4850   */\n      add\n        /* \"#utility.yul\":4804:4850   */\n      swap2\n      pop\n        /* \"#utility.yul\":4584:4856   */\n      pop\n        /* \"#utility.yul\":4492:4856   */\n      swap3\n      swap2\n      pop\n      pop\n      jump\t// out\n        /* \"#utility.yul\":4862:5175   */\n    tag_16:\n        /* \"#utility.yul\":4975:4979   */\n      0x00\n        /* \"#utility.yul\":5013:5015   */\n      0x20\n        /* \"#utility.yul\":5002:5011   */\n      dup3\n        /* \"#utility.yul\":4998:5016   */\n      add\n        /* \"#utility.yul\":4990:5016   */\n      swap1\n      pop\n        /* \"#utility.yul\":5062:5071   */\n      dup2\n        /* \"#utility.yul\":5056:5060   */\n      dup2\n        /* \"#utility.yul\":5052:5072   */\n      sub\n        /* \"#utility.yul\":5048:5049   */\n      0x00\n        /* \"#utility.yul\":5037:5046   */\n      dup4\n        /* \"#utility.yul\":5033:5050   */\n      add\n        /* \"#utility.yul\":5026:5073   */\n      mstore\n        /* \"#utility.yul\":5090:5168   */\n      tag_135\n        /* \"#utility.yul\":5163:5167   */\n      dup2\n        /* \"#utility.yul\":5154:5160   */\n      dup5\n        /* \"#utility.yul\":5090:5168   */\n      tag_73\n      jump\t// in\n    tag_135:\n        /* \"#utility.yul\":5082:5168   */\n      swap1\n      pop\n        /* \"#utility.yul\":4862:5175   */\n      swap3\n      swap2\n      pop\n      pop\n      jump\t// out\n        /* \"#utility.yul\":5181:5361   */\n    tag_30:\n        /* \"#utility.yul\":5229:5306   */\n      0x4e487b7100000000000000000000000000000000000000000000000000000000\n        /* \"#utility.yul\":5226:5227   */\n      0x00\n        /* \"#utility.yul\":5219:5307   */\n      mstore\n        /* \"#utility.yul\":5326:5330   */\n      0x32\n        /* \"#utility.yul\":5323:5324   */\n      0x04\n        /* \"#utility.yul\":5316:5331   */\n      mstore\n        /* \"#utility.yul\":5350:5354   */\n      0x24\n        /* \"#utility.yul\":5347:5348   */\n      0x00\n        /* \"#utility.yul\":5340:5355   */\n      revert\n        /* \"#utility.yul\":5367:5547   */\n    tag_74:\n        /* \"#utility.yul\":5415:5492   */\n      0x4e487b7100000000000000000000000000000000000000000000000000000000\n        /* \"#utility.yul\":5412:5413   */\n      0x00\n        /* \"#utility.yul\":5405:5493   */\n      mstore\n        /* \"#utility.yul\":5512:5516   */\n      0x22\n        /* \"#utility.yul\":5509:5510   */\n      0x04\n        /* \"#utility.yul\":5502:5517   */\n      mstore\n        /* \"#utility.yul\":5536:5540   */\n      0x24\n        /* \"#utility.yul\":5533:5534   */\n      0x00\n        /* \"#utility.yul\":5526:5541   */\n      revert\n        /* \"#utility.yul\":5553:5873   */\n    tag_33:\n        /* \"#utility.yul\":5597:5603   */\n      0x00\n        /* \"#utility.yul\":5634:5635   */\n      0x02\n        /* \"#utility.yul\":5628:5632   */\n      dup3\n        /* \"#utility.yul\":5624:5636   */\n      div\n        /* \"#utility.yul\":5614:5636   */\n      swap1\n      pop\n        /* \"#utility.yul\":5681:5682   */\n      0x01\n        /* \"#utility.yul\":5675:5679   */\n      dup3\n        /* \"#utility.yul\":5671:5683   */\n      and\n        /* \"#utility.yul\":5702:5720   */\n      dup1\n        /* \"#utility.yul\":5692:5773   */\n      tag_139\n      jumpi\n        /* \"#utility.yul\":5758:5762   */\n      0x7f\n        /* \"#utility.yul\":5750:5756   */\n      dup3\n        /* \"#utility.yul\":5746:5763   */\n      and\n        /* \"#utility.yul\":5736:5763   */\n      swap2\n      pop\n        /* \"#utility.yul\":5692:5773   */\n    tag_139:\n        /* \"#utility.yul\":5820:5822   */\n      0x20\n        /* \"#utility.yul\":5812:5818   */\n      dup3\n        /* \"#utility.yul\":5809:5823   */\n      lt\n        /* \"#utility.yul\":5789:5807   */\n      dup2\n        /* \"#utility.yul\":5786:5824   */\n      sub\n        /* \"#utility.yul\":5783:5867   */\n      tag_140\n      jumpi\n        /* \"#utility.yul\":5839:5857   */\n      tag_141\n      tag_74\n      jump\t// in\n    tag_141:\n        /* \"#utility.yul\":5783:5867   */\n    tag_140:\n        /* \"#utility.yul\":5604:5873   */\n      pop\n        /* \"#utility.yul\":5553:5873   */\n      swap2\n      swap1\n      pop\n      jump\t// out\n\n    auxdata: 0xa2646970667358221220916d58038c94b4f6ad3b0d7d39291c03048b4e1515f97370f7866f6f021f85cc64736f6c634300080d0033\n}\n",
				"bytecode": {
					"linkReferences": {},
					"object": "608060405234801561001057600080fd5b50610833806100206000396000f3fe608060405234801561001057600080fd5b506004361061004c5760003560e01c8063062253c91461005157806341c87c821461006d57806345a86e881461009d578063c2e1fae3146100b9575b600080fd5b61006b6004803603810190610066919061063b565b6100d5565b005b61008760048036038101906100829190610697565b6101ab565b604051610094919061074c565b60405180910390f35b6100b760048036038101906100b2919061063b565b610262565b005b6100d360048036038101906100ce919061063b565b610338565b005b600060405180606001604052803373ffffffffffffffffffffffffffffffffffffffff168152602001848152602001838152509050600081908060018154018082558091505060019003906000526020600020906003020160009091909190915060008201518160000160006101000a81548173ffffffffffffffffffffffffffffffffffffffff021916908373ffffffffffffffffffffffffffffffffffffffff1602179055506020820151816001015560408201518160020190805190602001906101a3929190610408565b505050505050565b6060600082815481106101c1576101c061076e565b5b906000526020600020906003020160020180546101dd906107cc565b80601f0160208091040260200160405190810160405280929190818152602001828054610209906107cc565b80156102565780601f1061022b57610100808354040283529160200191610256565b820191906000526020600020905b81548152906001019060200180831161023957829003601f168201915b50505050509050919050565b600060405180606001604052803373ffffffffffffffffffffffffffffffffffffffff168152602001848152602001838152509050600081908060018154018082558091505060019003906000526020600020906003020160009091909190915060008201518160000160006101000a81548173ffffffffffffffffffffffffffffffffffffffff021916908373ffffffffffffffffffffffffffffffffffffffff160217905550602082015181600101556040820151816002019080519060200190610330929190610408565b505050505050565b600060405180606001604052803373ffffffffffffffffffffffffffffffffffffffff16815260200184815260200183815250908060018154018082558091505060019003906000526020600020906003020160009091909190915060008201518160000160006101000a81548173ffffffffffffffffffffffffffffffffffffffff021916908373ffffffffffffffffffffffffffffffffffffffff160217905550602082015181600101556040820151816002019080519060200190610401929190610408565b5050505050565b828054610414906107cc565b90600052602060002090601f016020900481019282610436576000855561047d565b82601f1061044f57805160ff191683800117855561047d565b8280016001018555821561047d579182015b8281111561047c578251825591602001919060010190610461565b5b50905061048a919061048e565b5090565b5b808211156104a757600081600090555060010161048f565b5090565b6000604051905090565b600080fd5b600080fd5b6000819050919050565b6104d2816104bf565b81146104dd57600080fd5b50565b6000813590506104ef816104c9565b92915050565b600080fd5b600080fd5b6000601f19601f8301169050919050565b7f4e487b7100000000000000000000000000000000000000000000000000000000600052604160045260246000fd5b610548826104ff565b810181811067ffffffffffffffff8211171561056757610566610510565b5b80604052505050565b600061057a6104ab565b9050610586828261053f565b919050565b600067ffffffffffffffff8211156105a6576105a5610510565b5b6105af826104ff565b9050602081019050919050565b82818337600083830152505050565b60006105de6105d98461058b565b610570565b9050828152602081018484840111156105fa576105f96104fa565b5b6106058482856105bc565b509392505050565b600082601f830112610622576106216104f5565b5b81356106328482602086016105cb565b91505092915050565b60008060408385031215610652576106516104b5565b5b6000610660858286016104e0565b925050602083013567ffffffffffffffff811115610681576106806104ba565b5b61068d8582860161060d565b9150509250929050565b6000602082840312156106ad576106ac6104b5565b5b60006106bb848285016104e0565b91505092915050565b600081519050919050565b600082825260208201905092915050565b60005b838110156106fe5780820151818401526020810190506106e3565b8381111561070d576000848401525b50505050565b600061071e826106c4565b61072881856106cf565b93506107388185602086016106e0565b610741816104ff565b840191505092915050565b600060208201905081810360008301526107668184610713565b905092915050565b7f4e487b7100000000000000000000000000000000000000000000000000000000600052603260045260246000fd5b7f4e487b7100000000000000000000000000000000000000000000000000000000600052602260045260246000fd5b600060028204905060018216806107e457607f821691505b6020821081036107f7576107f661079d565b5b5091905056fea2646970667358221220916d58038c94b4f6ad3b0d7d39291c03048b4e1515f97370f7866f6f021f85cc64736f6c634300080d0033",
					"opcodes": "PUSH1 0x80 PUSH1 0x40 MSTORE CALLVALUE DUP1 ISZERO PUSH2 0x10 JUMPI PUSH1 0x0 DUP1 REVERT JUMPDEST POP PUSH2 0x833 DUP1 PUSH2 0x20 PUSH1 0x0 CODECOPY PUSH1 0x0 RETURN INVALID PUSH1 0x80 PUSH1 0x40 MSTORE CALLVALUE DUP1 ISZERO PUSH2 0x10 JUMPI PUSH1 0x0 DUP1 REVERT JUMPDEST POP PUSH1 0x4 CALLDATASIZE LT PUSH2 0x4C JUMPI PUSH1 0x0 CALLDATALOAD PUSH1 0xE0 SHR DUP1 PUSH4 0x62253C9 EQ PUSH2 0x51 JUMPI DUP1 PUSH4 0x41C87C82 EQ PUSH2 0x6D JUMPI DUP1 PUSH4 0x45A86E88 EQ PUSH2 0x9D JUMPI DUP1 PUSH4 0xC2E1FAE3 EQ PUSH2 0xB9 JUMPI JUMPDEST PUSH1 0x0 DUP1 REVERT JUMPDEST PUSH2 0x6B PUSH1 0x4 DUP1 CALLDATASIZE SUB DUP2 ADD SWAP1 PUSH2 0x66 SWAP2 SWAP1 PUSH2 0x63B JUMP JUMPDEST PUSH2 0xD5 JUMP JUMPDEST STOP JUMPDEST PUSH2 0x87 PUSH1 0x4 DUP1 CALLDATASIZE SUB DUP2 ADD SWAP1 PUSH2 0x82 SWAP2 SWAP1 PUSH2 0x697 JUMP JUMPDEST PUSH2 0x1AB JUMP JUMPDEST PUSH1 0x40 MLOAD PUSH2 0x94 SWAP2 SWAP1 PUSH2 0x74C JUMP JUMPDEST PUSH1 0x40 MLOAD DUP1 SWAP2 SUB SWAP1 RETURN JUMPDEST PUSH2 0xB7 PUSH1 0x4 DUP1 CALLDATASIZE SUB DUP2 ADD SWAP1 PUSH2 0xB2 SWAP2 SWAP1 PUSH2 0x63B JUMP JUMPDEST PUSH2 0x262 JUMP JUMPDEST STOP JUMPDEST PUSH2 0xD3 PUSH1 0x4 DUP1 CALLDATASIZE SUB DUP2 ADD SWAP1 PUSH2 0xCE SWAP2 SWAP1 PUSH2 0x63B JUMP JUMPDEST PUSH2 0x338 JUMP JUMPDEST STOP JUMPDEST PUSH1 0x0 PUSH1 0x40 MLOAD DUP1 PUSH1 0x60 ADD PUSH1 0x40 MSTORE DUP1 CALLER PUSH20 0xFFFFFFFFFFFFFFFFFFFFFFFFFFFFFFFFFFFFFFFF AND DUP2 MSTORE PUSH1 0x20 ADD DUP5 DUP2 MSTORE PUSH1 0x20 ADD DUP4 DUP2 MSTORE POP SWAP1 POP PUSH1 0x0 DUP2 SWAP1 DUP1 PUSH1 0x1 DUP2 SLOAD ADD DUP1 DUP3 SSTORE DUP1 SWAP2 POP POP PUSH1 0x1 SWAP1 SUB SWAP1 PUSH1 0x0 MSTORE PUSH1 0x20 PUSH1 0x0 KECCAK256 SWAP1 PUSH1 0x3 MUL ADD PUSH1 0x0 SWAP1 SWAP2 SWAP1 SWAP2 SWAP1 SWAP2 POP PUSH1 0x0 DUP3 ADD MLOAD DUP2 PUSH1 0x0 ADD PUSH1 0x0 PUSH2 0x100 EXP DUP2 SLOAD DUP2 PUSH20 0xFFFFFFFFFFFFFFFFFFFFFFFFFFFFFFFFFFFFFFFF MUL NOT AND SWAP1 DUP4 PUSH20 0xFFFFFFFFFFFFFFFFFFFFFFFFFFFFFFFFFFFFFFFF AND MUL OR SWAP1 SSTORE POP PUSH1 0x20 DUP3 ADD MLOAD DUP2 PUSH1 0x1 ADD SSTORE PUSH1 0x40 DUP3 ADD MLOAD DUP2 PUSH1 0x2 ADD SWAP1 DUP1 MLOAD SWAP1 PUSH1 0x20 ADD SWAP1 PUSH2 0x1A3 SWAP3 SWAP2 SWAP1 PUSH2 0x408 JUMP JUMPDEST POP POP POP POP POP POP JUMP JUMPDEST PUSH1 0x60 PUSH1 0x0 DUP3 DUP2 SLOAD DUP2 LT PUSH2 0x1C1 JUMPI PUSH2 0x1C0 PUSH2 0x76E JUMP JUMPDEST JUMPDEST SWAP1 PUSH1 0x0 MSTORE PUSH1 0x20 PUSH1 0x0 KECCAK256 SWAP1 PUSH1 0x3 MUL ADD PUSH1 0x2 ADD DUP1 SLOAD PUSH2 0x1DD SWAP1 PUSH2 0x7CC JUMP JUMPDEST DUP1 PUSH1 0x1F ADD PUSH1 0x20 DUP1 SWAP2 DIV MUL PUSH1 0x20 ADD PUSH1 0x40 MLOAD SWAP1 DUP2 ADD PUSH1 0x40 MSTORE DUP1 SWAP3 SWAP2 SWAP1 DUP2 DUP2 MSTORE PUSH1 0x20 ADD DUP3 DUP1 SLOAD PUSH2 0x209 SWAP1 PUSH2 0x7CC JUMP JUMPDEST DUP1 ISZERO PUSH2 0x256 JUMPI DUP1 PUSH1 0x1F LT PUSH2 0x22B JUMPI PUSH2 0x100 DUP1 DUP4 SLOAD DIV MUL DUP4 MSTORE SWAP2 PUSH1 0x20 ADD SWAP2 PUSH2 0x256 JUMP JUMPDEST DUP3 ADD SWAP2 SWAP1 PUSH1 0x0 MSTORE PUSH1 0x20 PUSH1 0x0 KECCAK256 SWAP1 JUMPDEST DUP2 SLOAD DUP2 MSTORE SWAP1 PUSH1 0x1 ADD SWAP1 PUSH1 0x20 ADD DUP1 DUP4 GT PUSH2 0x239 JUMPI DUP3 SWAP1 SUB PUSH1 0x1F AND DUP3 ADD SWAP2 JUMPDEST POP POP POP POP POP SWAP1 POP SWAP2 SWAP1 POP JUMP JUMPDEST PUSH1 0x0 PUSH1 0x40 MLOAD DUP1 PUSH1 0x60 ADD PUSH1 0x40 MSTORE DUP1 CALLER PUSH20 0xFFFFFFFFFFFFFFFFFFFFFFFFFFFFFFFFFFFFFFFF AND DUP2 MSTORE PUSH1 0x20 ADD DUP5 DUP2 MSTORE PUSH1 0x20 ADD DUP4 DUP2 MSTORE POP SWAP1 POP PUSH1 0x0 DUP2 SWAP1 DUP1 PUSH1 0x1 DUP2 SLOAD ADD DUP1 DUP3 SSTORE DUP1 SWAP2 POP POP PUSH1 0x1 SWAP1 SUB SWAP1 PUSH1 0x0 MSTORE PUSH1 0x20 PUSH1 0x0 KECCAK256 SWAP1 PUSH1 0x3 MUL ADD PUSH1 0x0 SWAP1 SWAP2 SWAP1 SWAP2 SWAP1 SWAP2 POP PUSH1 0x0 DUP3 ADD MLOAD DUP2 PUSH1 0x0 ADD PUSH1 0x0 PUSH2 0x100 EXP DUP2 SLOAD DUP2 PUSH20 0xFFFFFFFFFFFFFFFFFFFFFFFFFFFFFFFFFFFFFFFF MUL NOT AND SWAP1 DUP4 PUSH20 0xFFFFFFFFFFFFFFFFFFFFFFFFFFFFFFFFFFFFFFFF AND MUL OR SWAP1 SSTORE POP PUSH1 0x20 DUP3 ADD MLOAD DUP2 PUSH1 0x1 ADD SSTORE PUSH1 0x40 DUP3 ADD MLOAD DUP2 PUSH1 0x2 ADD SWAP1 DUP1 MLOAD SWAP1 PUSH1 0x20 ADD SWAP1 PUSH2 0x330 SWAP3 SWAP2 SWAP1 PUSH2 0x408 JUMP JUMPDEST POP POP POP POP POP POP JUMP JUMPDEST PUSH1 0x0 PUSH1 0x40 MLOAD DUP1 PUSH1 0x60 ADD PUSH1 0x40 MSTORE DUP1 CALLER PUSH20 0xFFFFFFFFFFFFFFFFFFFFFFFFFFFFFFFFFFFFFFFF AND DUP2 MSTORE PUSH1 0x20 ADD DUP5 DUP2 MSTORE PUSH1 0x20 ADD DUP4 DUP2 MSTORE POP SWAP1 DUP1 PUSH1 0x1 DUP2 SLOAD ADD DUP1 DUP3 SSTORE DUP1 SWAP2 POP POP PUSH1 0x1 SWAP1 SUB SWAP1 PUSH1 0x0 MSTORE PUSH1 0x20 PUSH1 0x0 KECCAK256 SWAP1 PUSH1 0x3 MUL ADD PUSH1 0x0 SWAP1 SWAP2 SWAP1 SWAP2 SWAP1 SWAP2 POP PUSH1 0x0 DUP3 ADD MLOAD DUP2 PUSH1 0x0 ADD PUSH1 0x0 PUSH2 0x100 EXP DUP2 SLOAD DUP2 PUSH20 0xFFFFFFFFFFFFFFFFFFFFFFFFFFFFFFFFFFFFFFFF MUL NOT AND SWAP1 DUP4 PUSH20 0xFFFFFFFFFFFFFFFFFFFFFFFFFFFFFFFFFFFFFFFF AND MUL OR SWAP1 SSTORE POP PUSH1 0x20 DUP3 ADD MLOAD DUP2 PUSH1 0x1 ADD SSTORE PUSH1 0x40 DUP3 ADD MLOAD DUP2 PUSH1 0x2 ADD SWAP1 DUP1 MLOAD SWAP1 PUSH1 0x20 ADD SWAP1 PUSH2 0x401 SWAP3 SWAP2 SWAP1 PUSH2 0x408 JUMP JUMPDEST POP POP POP POP POP JUMP JUMPDEST DUP3 DUP1 SLOAD PUSH2 0x414 SWAP1 PUSH2 0x7CC JUMP JUMPDEST SWAP1 PUSH1 0x0 MSTORE PUSH1 0x20 PUSH1 0x0 KECCAK256 SWAP1 PUSH1 0x1F ADD PUSH1 0x20 SWAP1 DIV DUP2 ADD SWAP3 DUP3 PUSH2 0x436 JUMPI PUSH1 0x0 DUP6 SSTORE PUSH2 0x47D JUMP JUMPDEST DUP3 PUSH1 0x1F LT PUSH2 0x44F JUMPI DUP1 MLOAD PUSH1 0xFF NOT AND DUP4 DUP1 ADD OR DUP6 SSTORE PUSH2 0x47D JUMP JUMPDEST DUP3 DUP1 ADD PUSH1 0x1 ADD DUP6 SSTORE DUP3 ISZERO PUSH2 0x47D JUMPI SWAP2 DUP3 ADD JUMPDEST DUP3 DUP2 GT ISZERO PUSH2 0x47C JUMPI DUP3 MLOAD DUP3 SSTORE SWAP2 PUSH1 0x20 ADD SWAP2 SWAP1 PUSH1 0x1 ADD SWAP1 PUSH2 0x461 JUMP JUMPDEST JUMPDEST POP SWAP1 POP PUSH2 0x48A SWAP2 SWAP1 PUSH2 0x48E JUMP JUMPDEST POP SWAP1 JUMP JUMPDEST JUMPDEST DUP1 DUP3 GT ISZERO PUSH2 0x4A7 JUMPI PUSH1 0x0 DUP2 PUSH1 0x0 SWAP1 SSTORE POP PUSH1 0x1 ADD PUSH2 0x48F JUMP JUMPDEST POP SWAP1 JUMP JUMPDEST PUSH1 0x0 PUSH1 0x40 MLOAD SWAP1 POP SWAP1 JUMP JUMPDEST PUSH1 0x0 DUP1 REVERT JUMPDEST PUSH1 0x0 DUP1 REVERT JUMPDEST PUSH1 0x0 DUP2 SWAP1 POP SWAP2 SWAP1 POP JUMP JUMPDEST PUSH2 0x4D2 DUP2 PUSH2 0x4BF JUMP JUMPDEST DUP2 EQ PUSH2 0x4DD JUMPI PUSH1 0x0 DUP1 REVERT JUMPDEST POP JUMP JUMPDEST PUSH1 0x0 DUP2 CALLDATALOAD SWAP1 POP PUSH2 0x4EF DUP2 PUSH2 0x4C9 JUMP JUMPDEST SWAP3 SWAP2 POP POP JUMP JUMPDEST PUSH1 0x0 DUP1 REVERT JUMPDEST PUSH1 0x0 DUP1 REVERT JUMPDEST PUSH1 0x0 PUSH1 0x1F NOT PUSH1 0x1F DUP4 ADD AND SWAP1 POP SWAP2 SWAP1 POP JUMP JUMPDEST PUSH32 0x4E487B7100000000000000000000000000000000000000000000000000000000 PUSH1 0x0 MSTORE PUSH1 0x41 PUSH1 0x4 MSTORE PUSH1 0x24 PUSH1 0x0 REVERT JUMPDEST PUSH2 0x548 DUP3 PUSH2 0x4FF JUMP JUMPDEST DUP2 ADD DUP2 DUP2 LT PUSH8 0xFFFFFFFFFFFFFFFF DUP3 GT OR ISZERO PUSH2 0x567 JUMPI PUSH2 0x566 PUSH2 0x510 JUMP JUMPDEST JUMPDEST DUP1 PUSH1 0x40 MSTORE POP POP POP JUMP JUMPDEST PUSH1 0x0 PUSH2 0x57A PUSH2 0x4AB JUMP JUMPDEST SWAP1 POP PUSH2 0x586 DUP3 DUP3 PUSH2 0x53F JUMP JUMPDEST SWAP2 SWAP1 POP JUMP JUMPDEST PUSH1 0x0 PUSH8 0xFFFFFFFFFFFFFFFF DUP3 GT ISZERO PUSH2 0x5A6 JUMPI PUSH2 0x5A5 PUSH2 0x510 JUMP JUMPDEST JUMPDEST PUSH2 0x5AF DUP3 PUSH2 0x4FF JUMP JUMPDEST SWAP1 POP PUSH1 0x20 DUP2 ADD SWAP1 POP SWAP2 SWAP1 POP JUMP JUMPDEST DUP3 DUP2 DUP4 CALLDATACOPY PUSH1 0x0 DUP4 DUP4 ADD MSTORE POP POP POP JUMP JUMPDEST PUSH1 0x0 PUSH2 0x5DE PUSH2 0x5D9 DUP5 PUSH2 0x58B JUMP JUMPDEST PUSH2 0x570 JUMP JUMPDEST SWAP1 POP DUP3 DUP2 MSTORE PUSH1 0x20 DUP2 ADD DUP5 DUP5 DUP5 ADD GT ISZERO PUSH2 0x5FA JUMPI PUSH2 0x5F9 PUSH2 0x4FA JUMP JUMPDEST JUMPDEST PUSH2 0x605 DUP5 DUP3 DUP6 PUSH2 0x5BC JUMP JUMPDEST POP SWAP4 SWAP3 POP POP POP JUMP JUMPDEST PUSH1 0x0 DUP3 PUSH1 0x1F DUP4 ADD SLT PUSH2 0x622 JUMPI PUSH2 0x621 PUSH2 0x4F5 JUMP JUMPDEST JUMPDEST DUP2 CALLDATALOAD PUSH2 0x632 DUP5 DUP3 PUSH1 0x20 DUP7 ADD PUSH2 0x5CB JUMP JUMPDEST SWAP2 POP POP SWAP3 SWAP2 POP POP JUMP JUMPDEST PUSH1 0x0 DUP1 PUSH1 0x40 DUP4 DUP6 SUB SLT ISZERO PUSH2 0x652 JUMPI PUSH2 0x651 PUSH2 0x4B5 JUMP JUMPDEST JUMPDEST PUSH1 0x0 PUSH2 0x660 DUP6 DUP3 DUP7 ADD PUSH2 0x4E0 JUMP JUMPDEST SWAP3 POP POP PUSH1 0x20 DUP4 ADD CALLDATALOAD PUSH8 0xFFFFFFFFFFFFFFFF DUP2 GT ISZERO PUSH2 0x681 JUMPI PUSH2 0x680 PUSH2 0x4BA JUMP JUMPDEST JUMPDEST PUSH2 0x68D DUP6 DUP3 DUP7 ADD PUSH2 0x60D JUMP JUMPDEST SWAP2 POP POP SWAP3 POP SWAP3 SWAP1 POP JUMP JUMPDEST PUSH1 0x0 PUSH1 0x20 DUP3 DUP5 SUB SLT ISZERO PUSH2 0x6AD JUMPI PUSH2 0x6AC PUSH2 0x4B5 JUMP JUMPDEST JUMPDEST PUSH1 0x0 PUSH2 0x6BB DUP5 DUP3 DUP6 ADD PUSH2 0x4E0 JUMP JUMPDEST SWAP2 POP POP SWAP3 SWAP2 POP POP JUMP JUMPDEST PUSH1 0x0 DUP2 MLOAD SWAP1 POP SWAP2 SWAP1 POP JUMP JUMPDEST PUSH1 0x0 DUP3 DUP3 MSTORE PUSH1 0x20 DUP3 ADD SWAP1 POP SWAP3 SWAP2 POP POP JUMP JUMPDEST PUSH1 0x0 JUMPDEST DUP4 DUP2 LT ISZERO PUSH2 0x6FE JUMPI DUP1 DUP3 ADD MLOAD DUP2 DUP5 ADD MSTORE PUSH1 0x20 DUP2 ADD SWAP1 POP PUSH2 0x6E3 JUMP JUMPDEST DUP4 DUP2 GT ISZERO PUSH2 0x70D JUMPI PUSH1 0x0 DUP5 DUP5 ADD MSTORE JUMPDEST POP POP POP POP JUMP JUMPDEST PUSH1 0x0 PUSH2 0x71E DUP3 PUSH2 0x6C4 JUMP JUMPDEST PUSH2 0x728 DUP2 DUP6 PUSH2 0x6CF JUMP JUMPDEST SWAP4 POP PUSH2 0x738 DUP2 DUP6 PUSH1 0x20 DUP7 ADD PUSH2 0x6E0 JUMP JUMPDEST PUSH2 0x741 DUP2 PUSH2 0x4FF JUMP JUMPDEST DUP5 ADD SWAP2 POP POP SWAP3 SWAP2 POP POP JUMP JUMPDEST PUSH1 0x0 PUSH1 0x20 DUP3 ADD SWAP1 POP DUP2 DUP2 SUB PUSH1 0x0 DUP4 ADD MSTORE PUSH2 0x766 DUP2 DUP5 PUSH2 0x713 JUMP JUMPDEST SWAP1 POP SWAP3 SWAP2 POP POP JUMP JUMPDEST PUSH32 0x4E487B7100000000000000000000000000000000000000000000000000000000 PUSH1 0x0 MSTORE PUSH1 0x32 PUSH1 0x4 MSTORE PUSH1 0x24 PUSH1 0x0 REVERT JUMPDEST PUSH32 0x4E487B7100000000000000000000000000000000000000000000000000000000 PUSH1 0x0 MSTORE PUSH1 0x22 PUSH1 0x4 MSTORE PUSH1 0x24 PUSH1 0x0 REVERT JUMPDEST PUSH1 0x0 PUSH1 0x2 DUP3 DIV SWAP1 POP PUSH1 0x1 DUP3 AND DUP1 PUSH2 0x7E4 JUMPI PUSH1 0x7F DUP3 AND SWAP2 POP JUMPDEST PUSH1 0x20 DUP3 LT DUP2 SUB PUSH2 0x7F7 JUMPI PUSH2 0x7F6 PUSH2 0x79D JUMP JUMPDEST JUMPDEST POP SWAP2 SWAP1 POP JUMP INVALID LOG2 PUSH5 0x6970667358 0x22 SLT KECCAK256 SWAP2 PUSH14 0x58038C94B4F6AD3B0D7D39291C03 DIV DUP12 0x4E ISZERO ISZERO 0xF9 PUSH20 0x70F7866F6F021F85CC64736F6C634300080D0033 "
				},
				"gasEstimates": {
					"creation": {
						"codeDepositCost": "419800",
						"executionCost": "455",
						"totalCost": "420255"
					},
					"external": {
						"addUsuarioBarato(uint256,string)": "infinite",
						"addUsuarioExplicit(uint256,string)": "infinite",
						"addUsuarioImplicit(uint256,string)": "infinite",
						"nome(uint256)": "infinite"
					}
				},
				"methodIdentifiers": {
					"addUsuarioBarato(uint256,string)": "c2e1fae3",
					"addUsuarioExplicit(uint256,string)": "062253c9",
					"addUsuarioImplicit(uint256,string)": "45a86e88",
					"nome(uint256)": "41c87c82"
				}
			},
			"storageLayout": {
				"storage": [
					{
						"astId": 12,
						"contract": "EstudandoSolidity/Structs.sol:marketplace",
						"label": "usuarios",
						"offset": 0,
						"slot": "0",
						"type": "t_array(t_struct(Usuario)8_storage)dyn_storage"
					}
				],
				"types": {
					"t_address": {
						"encoding": "inplace",
						"label": "address",
						"numberOfBytes": "20"
					},
					"t_array(t_struct(Usuario)8_storage)dyn_storage": {
						"base": "t_struct(Usuario)8_storage",
						"encoding": "dynamic_array",
						"label": "struct marketplace.Usuario[]",
						"numberOfBytes": "32"
					},
					"t_string_storage": {
						"encoding": "bytes",
						"label": "string",
						"numberOfBytes": "32"
					},
					"t_struct(Usuario)8_storage": {
						"encoding": "inplace",
						"label": "struct marketplace.Usuario",
						"members": [
							{
								"astId": 3,
								"contract": "EstudandoSolidity/Structs.sol:marketplace",
								"label": "wallet",
								"offset": 0,
								"slot": "0",
								"type": "t_address"
							},
							{
								"astId": 5,
								"contract": "EstudandoSolidity/Structs.sol:marketplace",
								"label": "id",
								"offset": 0,
								"slot": "1",
								"type": "t_uint256"
							},
							{
								"astId": 7,
								"contract": "EstudandoSolidity/Structs.sol:marketplace",
								"label": "name",
								"offset": 0,
								"slot": "2",
								"type": "t_string_storage"
							}
						],
						"numberOfBytes": "96"
					},
					"t_uint256": {
						"encoding": "inplace",
						"label": "uint256",
						"numberOfBytes": "32"
					}
				}
			},
			"userdoc": {
				"kind": "user",
				"methods": {},
				"version": 1
			}
		}
	}
}