{
	"AulasSolidity/Modificadores.sol": {
		"modificadores": {
			"abi": [
				{
					"inputs": [],
					"name": "getSupply",
					"outputs": [
						{
							"internalType": "uint256",
							"name": "",
							"type": "uint256"
						}
					],
					"stateMutability": "view",
					"type": "function"
				},
				{
					"inputs": [
						{
							"internalType": "uint256",
							"name": "_valor",
							"type": "uint256"
						}
					],
					"name": "mint",
					"outputs": [],
					"stateMutability": "nonpayable",
					"type": "function"
				}
			],
			"devdoc": {
				"kind": "dev",
				"methods": {},
				"version": 1
			},
			"evm": {
				"assembly": "    /* \"AulasSolidity/Modificadores.sol\":27:394  contract modificadores{... */\n  mstore(0x40, 0x80)\n    /* \"AulasSolidity/Modificadores.sol\":70:72  10 */\n  0x0a\n    /* \"AulasSolidity/Modificadores.sol\":56:72  uint supply = 10 */\n  0x00\n  sstore\n    /* \"AulasSolidity/Modificadores.sol\":95:105  msg.sender */\n  caller\n    /* \"AulasSolidity/Modificadores.sol\":79:105  address admin = msg.sender */\n  0x01\n  exp(0x0100, 0x00)\n  dup2\n  sload\n  dup2\n  0xffffffffffffffffffffffffffffffffffffffff\n  mul\n  not\n  and\n  swap1\n  dup4\n  0xffffffffffffffffffffffffffffffffffffffff\n  and\n  mul\n  or\n  swap1\n  sstore\n  pop\n    /* \"AulasSolidity/Modificadores.sol\":27:394  contract modificadores{... */\n  callvalue\n  dup1\n  iszero\n  tag_1\n  jumpi\n  0x00\n  dup1\n  revert\ntag_1:\n  pop\n  dataSize(sub_0)\n  dup1\n  dataOffset(sub_0)\n  0x00\n  codecopy\n  0x00\n  return\nstop\n\nsub_0: assembly {\n        /* \"AulasSolidity/Modificadores.sol\":27:394  contract modificadores{... */\n      mstore(0x40, 0x80)\n      callvalue\n      dup1\n      iszero\n      tag_1\n      jumpi\n      0x00\n      dup1\n      revert\n    tag_1:\n      pop\n      jumpi(tag_2, lt(calldatasize, 0x04))\n      shr(0xe0, calldataload(0x00))\n      dup1\n      0x6c9c2faf\n      eq\n      tag_3\n      jumpi\n      dup1\n      0xa0712d68\n      eq\n      tag_4\n      jumpi\n    tag_2:\n      0x00\n      dup1\n      revert\n        /* \"AulasSolidity/Modificadores.sol\":114:195  function getSupply() external view returns (uint){... */\n    tag_3:\n      tag_5\n      tag_6\n      jump\t// in\n    tag_5:\n      mload(0x40)\n      tag_7\n      swap2\n      swap1\n      tag_8\n      jump\t// in\n    tag_7:\n      mload(0x40)\n      dup1\n      swap2\n      sub\n      swap1\n      return\n        /* \"AulasSolidity/Modificadores.sol\":203:285  function mint(uint _valor) external onlyAdmin(){... */\n    tag_4:\n      tag_9\n      0x04\n      dup1\n      calldatasize\n      sub\n      dup2\n      add\n      swap1\n      tag_10\n      swap2\n      swap1\n      tag_11\n      jump\t// in\n    tag_10:\n      tag_12\n      jump\t// in\n    tag_9:\n      stop\n        /* \"AulasSolidity/Modificadores.sol\":114:195  function getSupply() external view returns (uint){... */\n    tag_6:\n        /* \"AulasSolidity/Modificadores.sol\":158:162  uint */\n      0x00\n        /* \"AulasSolidity/Modificadores.sol\":181:187  supply */\n      dup1\n      sload\n        /* \"AulasSolidity/Modificadores.sol\":174:187  return supply */\n      swap1\n      pop\n        /* \"AulasSolidity/Modificadores.sol\":114:195  function getSupply() external view returns (uint){... */\n      swap1\n      jump\t// out\n        /* \"AulasSolidity/Modificadores.sol\":203:285  function mint(uint _valor) external onlyAdmin(){... */\n    tag_12:\n        /* \"AulasSolidity/Modificadores.sol\":346:351  admin */\n      0x01\n      0x00\n      swap1\n      sload\n      swap1\n      0x0100\n      exp\n      swap1\n      div\n      0xffffffffffffffffffffffffffffffffffffffff\n      and\n        /* \"AulasSolidity/Modificadores.sol\":332:351  msg.sender == admin */\n      0xffffffffffffffffffffffffffffffffffffffff\n      and\n        /* \"AulasSolidity/Modificadores.sol\":332:342  msg.sender */\n      caller\n        /* \"AulasSolidity/Modificadores.sol\":332:351  msg.sender == admin */\n      0xffffffffffffffffffffffffffffffffffffffff\n      and\n      eq\n        /* \"AulasSolidity/Modificadores.sol\":324:369  require(msg.sender == admin, \"Nao e o Admin\") */\n      tag_15\n      jumpi\n      mload(0x40)\n      0x08c379a000000000000000000000000000000000000000000000000000000000\n      dup2\n      mstore\n      0x04\n      add\n      tag_16\n      swap1\n      tag_17\n      jump\t// in\n    tag_16:\n      mload(0x40)\n      dup1\n      swap2\n      sub\n      swap1\n      revert\n    tag_15:\n        /* \"AulasSolidity/Modificadores.sol\":271:277  _valor */\n      dup1\n        /* \"AulasSolidity/Modificadores.sol\":261:267  supply */\n      0x00\n      dup1\n        /* \"AulasSolidity/Modificadores.sol\":261:277  supply += _valor */\n      dup3\n      dup3\n      sload\n      tag_19\n      swap2\n      swap1\n      tag_20\n      jump\t// in\n    tag_19:\n      swap3\n      pop\n      pop\n      dup2\n      swap1\n      sstore\n      pop\n        /* \"AulasSolidity/Modificadores.sol\":203:285  function mint(uint _valor) external onlyAdmin(){... */\n      pop\n      jump\t// out\n        /* \"#utility.yul\":7:84   */\n    tag_21:\n        /* \"#utility.yul\":44:51   */\n      0x00\n        /* \"#utility.yul\":73:78   */\n      dup2\n        /* \"#utility.yul\":62:78   */\n      swap1\n      pop\n        /* \"#utility.yul\":7:84   */\n      swap2\n      swap1\n      pop\n      jump\t// out\n        /* \"#utility.yul\":90:208   */\n    tag_22:\n        /* \"#utility.yul\":177:201   */\n      tag_35\n        /* \"#utility.yul\":195:200   */\n      dup2\n        /* \"#utility.yul\":177:201   */\n      tag_21\n      jump\t// in\n    tag_35:\n        /* \"#utility.yul\":172:175   */\n      dup3\n        /* \"#utility.yul\":165:202   */\n      mstore\n        /* \"#utility.yul\":90:208   */\n      pop\n      pop\n      jump\t// out\n        /* \"#utility.yul\":214:436   */\n    tag_8:\n        /* \"#utility.yul\":307:311   */\n      0x00\n        /* \"#utility.yul\":345:347   */\n      0x20\n        /* \"#utility.yul\":334:343   */\n      dup3\n        /* \"#utility.yul\":330:348   */\n      add\n        /* \"#utility.yul\":322:348   */\n      swap1\n      pop\n        /* \"#utility.yul\":358:429   */\n      tag_37\n        /* \"#utility.yul\":426:427   */\n      0x00\n        /* \"#utility.yul\":415:424   */\n      dup4\n        /* \"#utility.yul\":411:428   */\n      add\n        /* \"#utility.yul\":402:408   */\n      dup5\n        /* \"#utility.yul\":358:429   */\n      tag_22\n      jump\t// in\n    tag_37:\n        /* \"#utility.yul\":214:436   */\n      swap3\n      swap2\n      pop\n      pop\n      jump\t// out\n        /* \"#utility.yul\":523:640   */\n    tag_24:\n        /* \"#utility.yul\":632:633   */\n      0x00\n        /* \"#utility.yul\":629:630   */\n      dup1\n        /* \"#utility.yul\":622:634   */\n      revert\n        /* \"#utility.yul\":769:891   */\n    tag_26:\n        /* \"#utility.yul\":842:866   */\n      tag_42\n        /* \"#utility.yul\":860:865   */\n      dup2\n        /* \"#utility.yul\":842:866   */\n      tag_21\n      jump\t// in\n    tag_42:\n        /* \"#utility.yul\":835:840   */\n      dup2\n        /* \"#utility.yul\":832:867   */\n      eq\n        /* \"#utility.yul\":822:885   */\n      tag_43\n      jumpi\n        /* \"#utility.yul\":881:882   */\n      0x00\n        /* \"#utility.yul\":878:879   */\n      dup1\n        /* \"#utility.yul\":871:883   */\n      revert\n        /* \"#utility.yul\":822:885   */\n    tag_43:\n        /* \"#utility.yul\":769:891   */\n      pop\n      jump\t// out\n        /* \"#utility.yul\":897:1036   */\n    tag_27:\n        /* \"#utility.yul\":943:948   */\n      0x00\n        /* \"#utility.yul\":981:987   */\n      dup2\n        /* \"#utility.yul\":968:988   */\n      calldataload\n        /* \"#utility.yul\":959:988   */\n      swap1\n      pop\n        /* \"#utility.yul\":997:1030   */\n      tag_45\n        /* \"#utility.yul\":1024:1029   */\n      dup2\n        /* \"#utility.yul\":997:1030   */\n      tag_26\n      jump\t// in\n    tag_45:\n        /* \"#utility.yul\":897:1036   */\n      swap3\n      swap2\n      pop\n      pop\n      jump\t// out\n        /* \"#utility.yul\":1042:1371   */\n    tag_11:\n        /* \"#utility.yul\":1101:1107   */\n      0x00\n        /* \"#utility.yul\":1150:1152   */\n      0x20\n        /* \"#utility.yul\":1138:1147   */\n      dup3\n        /* \"#utility.yul\":1129:1136   */\n      dup5\n        /* \"#utility.yul\":1125:1148   */\n      sub\n        /* \"#utility.yul\":1121:1153   */\n      slt\n        /* \"#utility.yul\":1118:1237   */\n      iszero\n      tag_47\n      jumpi\n        /* \"#utility.yul\":1156:1235   */\n      tag_48\n      tag_24\n      jump\t// in\n    tag_48:\n        /* \"#utility.yul\":1118:1237   */\n    tag_47:\n        /* \"#utility.yul\":1276:1277   */\n      0x00\n        /* \"#utility.yul\":1301:1354   */\n      tag_49\n        /* \"#utility.yul\":1346:1353   */\n      dup5\n        /* \"#utility.yul\":1337:1343   */\n      dup3\n        /* \"#utility.yul\":1326:1335   */\n      dup6\n        /* \"#utility.yul\":1322:1344   */\n      add\n        /* \"#utility.yul\":1301:1354   */\n      tag_27\n      jump\t// in\n    tag_49:\n        /* \"#utility.yul\":1291:1354   */\n      swap2\n      pop\n        /* \"#utility.yul\":1247:1364   */\n      pop\n        /* \"#utility.yul\":1042:1371   */\n      swap3\n      swap2\n      pop\n      pop\n      jump\t// out\n        /* \"#utility.yul\":1377:1546   */\n    tag_28:\n        /* \"#utility.yul\":1461:1472   */\n      0x00\n        /* \"#utility.yul\":1495:1501   */\n      dup3\n        /* \"#utility.yul\":1490:1493   */\n      dup3\n        /* \"#utility.yul\":1483:1502   */\n      mstore\n        /* \"#utility.yul\":1535:1539   */\n      0x20\n        /* \"#utility.yul\":1530:1533   */\n      dup3\n        /* \"#utility.yul\":1526:1540   */\n      add\n        /* \"#utility.yul\":1511:1540   */\n      swap1\n      pop\n        /* \"#utility.yul\":1377:1546   */\n      swap3\n      swap2\n      pop\n      pop\n      jump\t// out\n        /* \"#utility.yul\":1552:1715   */\n    tag_29:\n        /* \"#utility.yul\":1692:1707   */\n      0x4e616f2065206f2041646d696e00000000000000000000000000000000000000\n        /* \"#utility.yul\":1688:1689   */\n      0x00\n        /* \"#utility.yul\":1680:1686   */\n      dup3\n        /* \"#utility.yul\":1676:1690   */\n      add\n        /* \"#utility.yul\":1669:1708   */\n      mstore\n        /* \"#utility.yul\":1552:1715   */\n      pop\n      jump\t// out\n        /* \"#utility.yul\":1721:2087   */\n    tag_30:\n        /* \"#utility.yul\":1863:1866   */\n      0x00\n        /* \"#utility.yul\":1884:1951   */\n      tag_53\n        /* \"#utility.yul\":1948:1950   */\n      0x0d\n        /* \"#utility.yul\":1943:1946   */\n      dup4\n        /* \"#utility.yul\":1884:1951   */\n      tag_28\n      jump\t// in\n    tag_53:\n        /* \"#utility.yul\":1877:1951   */\n      swap2\n      pop\n        /* \"#utility.yul\":1960:2053   */\n      tag_54\n        /* \"#utility.yul\":2049:2052   */\n      dup3\n        /* \"#utility.yul\":1960:2053   */\n      tag_29\n      jump\t// in\n    tag_54:\n        /* \"#utility.yul\":2078:2080   */\n      0x20\n        /* \"#utility.yul\":2073:2076   */\n      dup3\n        /* \"#utility.yul\":2069:2081   */\n      add\n        /* \"#utility.yul\":2062:2081   */\n      swap1\n      pop\n        /* \"#utility.yul\":1721:2087   */\n      swap2\n      swap1\n      pop\n      jump\t// out\n        /* \"#utility.yul\":2093:2512   */\n    tag_17:\n        /* \"#utility.yul\":2259:2263   */\n      0x00\n        /* \"#utility.yul\":2297:2299   */\n      0x20\n        /* \"#utility.yul\":2286:2295   */\n      dup3\n        /* \"#utility.yul\":2282:2300   */\n      add\n        /* \"#utility.yul\":2274:2300   */\n      swap1\n      pop\n        /* \"#utility.yul\":2346:2355   */\n      dup2\n        /* \"#utility.yul\":2340:2344   */\n      dup2\n        /* \"#utility.yul\":2336:2356   */\n      sub\n        /* \"#utility.yul\":2332:2333   */\n      0x00\n        /* \"#utility.yul\":2321:2330   */\n      dup4\n        /* \"#utility.yul\":2317:2334   */\n      add\n        /* \"#utility.yul\":2310:2357   */\n      mstore\n        /* \"#utility.yul\":2374:2505   */\n      tag_56\n        /* \"#utility.yul\":2500:2504   */\n      dup2\n        /* \"#utility.yul\":2374:2505   */\n      tag_30\n      jump\t// in\n    tag_56:\n        /* \"#utility.yul\":2366:2505   */\n      swap1\n      pop\n        /* \"#utility.yul\":2093:2512   */\n      swap2\n      swap1\n      pop\n      jump\t// out\n        /* \"#utility.yul\":2518:2698   */\n    tag_31:\n        /* \"#utility.yul\":2566:2643   */\n      0x4e487b7100000000000000000000000000000000000000000000000000000000\n        /* \"#utility.yul\":2563:2564   */\n      0x00\n        /* \"#utility.yul\":2556:2644   */\n      mstore\n        /* \"#utility.yul\":2663:2667   */\n      0x11\n        /* \"#utility.yul\":2660:2661   */\n      0x04\n        /* \"#utility.yul\":2653:2668   */\n      mstore\n        /* \"#utility.yul\":2687:2691   */\n      0x24\n        /* \"#utility.yul\":2684:2685   */\n      0x00\n        /* \"#utility.yul\":2677:2692   */\n      revert\n        /* \"#utility.yul\":2704:3009   */\n    tag_20:\n        /* \"#utility.yul\":2744:2747   */\n      0x00\n        /* \"#utility.yul\":2763:2783   */\n      tag_59\n        /* \"#utility.yul\":2781:2782   */\n      dup3\n        /* \"#utility.yul\":2763:2783   */\n      tag_21\n      jump\t// in\n    tag_59:\n        /* \"#utility.yul\":2758:2783   */\n      swap2\n      pop\n        /* \"#utility.yul\":2797:2817   */\n      tag_60\n        /* \"#utility.yul\":2815:2816   */\n      dup4\n        /* \"#utility.yul\":2797:2817   */\n      tag_21\n      jump\t// in\n    tag_60:\n        /* \"#utility.yul\":2792:2817   */\n      swap3\n      pop\n        /* \"#utility.yul\":2951:2952   */\n      dup3\n        /* \"#utility.yul\":2883:2949   */\n      0xffffffffffffffffffffffffffffffffffffffffffffffffffffffffffffffff\n        /* \"#utility.yul\":2879:2953   */\n      sub\n        /* \"#utility.yul\":2876:2877   */\n      dup3\n        /* \"#utility.yul\":2873:2954   */\n      gt\n        /* \"#utility.yul\":2870:2977   */\n      iszero\n      tag_61\n      jumpi\n        /* \"#utility.yul\":2957:2975   */\n      tag_62\n      tag_31\n      jump\t// in\n    tag_62:\n        /* \"#utility.yul\":2870:2977   */\n    tag_61:\n        /* \"#utility.yul\":3001:3002   */\n      dup3\n        /* \"#utility.yul\":2998:2999   */\n      dup3\n        /* \"#utility.yul\":2994:3003   */\n      add\n        /* \"#utility.yul\":2987:3003   */\n      swap1\n      pop\n        /* \"#utility.yul\":2704:3009   */\n      swap3\n      swap2\n      pop\n      pop\n      jump\t// out\n\n    auxdata: 0xa2646970667358221220f0b4ad1ac25f982a4fcb2322a4e66f778fa184a613c3bcea53bd2ae14372e31064736f6c634300080d0033\n}\n",
				"bytecode": {
					"linkReferences": {},
					"object": "6080604052600a60005533600160006101000a81548173ffffffffffffffffffffffffffffffffffffffff021916908373ffffffffffffffffffffffffffffffffffffffff16021790555034801561005657600080fd5b506102f3806100666000396000f3fe608060405234801561001057600080fd5b50600436106100365760003560e01c80636c9c2faf1461003b578063a0712d6814610059575b600080fd5b610043610075565b6040516100509190610142565b60405180910390f35b610073600480360381019061006e919061018e565b61007e565b005b60008054905090565b600160009054906101000a900473ffffffffffffffffffffffffffffffffffffffff1673ffffffffffffffffffffffffffffffffffffffff163373ffffffffffffffffffffffffffffffffffffffff161461010e576040517f08c379a000000000000000000000000000000000000000000000000000000000815260040161010590610218565b60405180910390fd5b8060008082825461011f9190610267565b9250508190555050565b6000819050919050565b61013c81610129565b82525050565b60006020820190506101576000830184610133565b92915050565b600080fd5b61016b81610129565b811461017657600080fd5b50565b60008135905061018881610162565b92915050565b6000602082840312156101a4576101a361015d565b5b60006101b284828501610179565b91505092915050565b600082825260208201905092915050565b7f4e616f2065206f2041646d696e00000000000000000000000000000000000000600082015250565b6000610202600d836101bb565b915061020d826101cc565b602082019050919050565b60006020820190508181036000830152610231816101f5565b9050919050565b7f4e487b7100000000000000000000000000000000000000000000000000000000600052601160045260246000fd5b600061027282610129565b915061027d83610129565b9250827fffffffffffffffffffffffffffffffffffffffffffffffffffffffffffffffff038211156102b2576102b1610238565b5b82820190509291505056fea2646970667358221220f0b4ad1ac25f982a4fcb2322a4e66f778fa184a613c3bcea53bd2ae14372e31064736f6c634300080d0033",
					"opcodes": "PUSH1 0x80 PUSH1 0x40 MSTORE PUSH1 0xA PUSH1 0x0 SSTORE CALLER PUSH1 0x1 PUSH1 0x0 PUSH2 0x100 EXP DUP2 SLOAD DUP2 PUSH20 0xFFFFFFFFFFFFFFFFFFFFFFFFFFFFFFFFFFFFFFFF MUL NOT AND SWAP1 DUP4 PUSH20 0xFFFFFFFFFFFFFFFFFFFFFFFFFFFFFFFFFFFFFFFF AND MUL OR SWAP1 SSTORE POP CALLVALUE DUP1 ISZERO PUSH2 0x56 JUMPI PUSH1 0x0 DUP1 REVERT JUMPDEST POP PUSH2 0x2F3 DUP1 PUSH2 0x66 PUSH1 0x0 CODECOPY PUSH1 0x0 RETURN INVALID PUSH1 0x80 PUSH1 0x40 MSTORE CALLVALUE DUP1 ISZERO PUSH2 0x10 JUMPI PUSH1 0x0 DUP1 REVERT JUMPDEST POP PUSH1 0x4 CALLDATASIZE LT PUSH2 0x36 JUMPI PUSH1 0x0 CALLDATALOAD PUSH1 0xE0 SHR DUP1 PUSH4 0x6C9C2FAF EQ PUSH2 0x3B JUMPI DUP1 PUSH4 0xA0712D68 EQ PUSH2 0x59 JUMPI JUMPDEST PUSH1 0x0 DUP1 REVERT JUMPDEST PUSH2 0x43 PUSH2 0x75 JUMP JUMPDEST PUSH1 0x40 MLOAD PUSH2 0x50 SWAP2 SWAP1 PUSH2 0x142 JUMP JUMPDEST PUSH1 0x40 MLOAD DUP1 SWAP2 SUB SWAP1 RETURN JUMPDEST PUSH2 0x73 PUSH1 0x4 DUP1 CALLDATASIZE SUB DUP2 ADD SWAP1 PUSH2 0x6E SWAP2 SWAP1 PUSH2 0x18E JUMP JUMPDEST PUSH2 0x7E JUMP JUMPDEST STOP JUMPDEST PUSH1 0x0 DUP1 SLOAD SWAP1 POP SWAP1 JUMP JUMPDEST PUSH1 0x1 PUSH1 0x0 SWAP1 SLOAD SWAP1 PUSH2 0x100 EXP SWAP1 DIV PUSH20 0xFFFFFFFFFFFFFFFFFFFFFFFFFFFFFFFFFFFFFFFF AND PUSH20 0xFFFFFFFFFFFFFFFFFFFFFFFFFFFFFFFFFFFFFFFF AND CALLER PUSH20 0xFFFFFFFFFFFFFFFFFFFFFFFFFFFFFFFFFFFFFFFF AND EQ PUSH2 0x10E JUMPI PUSH1 0x40 MLOAD PUSH32 0x8C379A000000000000000000000000000000000000000000000000000000000 DUP2 MSTORE PUSH1 0x4 ADD PUSH2 0x105 SWAP1 PUSH2 0x218 JUMP JUMPDEST PUSH1 0x40 MLOAD DUP1 SWAP2 SUB SWAP1 REVERT JUMPDEST DUP1 PUSH1 0x0 DUP1 DUP3 DUP3 SLOAD PUSH2 0x11F SWAP2 SWAP1 PUSH2 0x267 JUMP JUMPDEST SWAP3 POP POP DUP2 SWAP1 SSTORE POP POP JUMP JUMPDEST PUSH1 0x0 DUP2 SWAP1 POP SWAP2 SWAP1 POP JUMP JUMPDEST PUSH2 0x13C DUP2 PUSH2 0x129 JUMP JUMPDEST DUP3 MSTORE POP POP JUMP JUMPDEST PUSH1 0x0 PUSH1 0x20 DUP3 ADD SWAP1 POP PUSH2 0x157 PUSH1 0x0 DUP4 ADD DUP5 PUSH2 0x133 JUMP JUMPDEST SWAP3 SWAP2 POP POP JUMP JUMPDEST PUSH1 0x0 DUP1 REVERT JUMPDEST PUSH2 0x16B DUP2 PUSH2 0x129 JUMP JUMPDEST DUP2 EQ PUSH2 0x176 JUMPI PUSH1 0x0 DUP1 REVERT JUMPDEST POP JUMP JUMPDEST PUSH1 0x0 DUP2 CALLDATALOAD SWAP1 POP PUSH2 0x188 DUP2 PUSH2 0x162 JUMP JUMPDEST SWAP3 SWAP2 POP POP JUMP JUMPDEST PUSH1 0x0 PUSH1 0x20 DUP3 DUP5 SUB SLT ISZERO PUSH2 0x1A4 JUMPI PUSH2 0x1A3 PUSH2 0x15D JUMP JUMPDEST JUMPDEST PUSH1 0x0 PUSH2 0x1B2 DUP5 DUP3 DUP6 ADD PUSH2 0x179 JUMP JUMPDEST SWAP2 POP POP SWAP3 SWAP2 POP POP JUMP JUMPDEST PUSH1 0x0 DUP3 DUP3 MSTORE PUSH1 0x20 DUP3 ADD SWAP1 POP SWAP3 SWAP2 POP POP JUMP JUMPDEST PUSH32 0x4E616F2065206F2041646D696E00000000000000000000000000000000000000 PUSH1 0x0 DUP3 ADD MSTORE POP JUMP JUMPDEST PUSH1 0x0 PUSH2 0x202 PUSH1 0xD DUP4 PUSH2 0x1BB JUMP JUMPDEST SWAP2 POP PUSH2 0x20D DUP3 PUSH2 0x1CC JUMP JUMPDEST PUSH1 0x20 DUP3 ADD SWAP1 POP SWAP2 SWAP1 POP JUMP JUMPDEST PUSH1 0x0 PUSH1 0x20 DUP3 ADD SWAP1 POP DUP2 DUP2 SUB PUSH1 0x0 DUP4 ADD MSTORE PUSH2 0x231 DUP2 PUSH2 0x1F5 JUMP JUMPDEST SWAP1 POP SWAP2 SWAP1 POP JUMP JUMPDEST PUSH32 0x4E487B7100000000000000000000000000000000000000000000000000000000 PUSH1 0x0 MSTORE PUSH1 0x11 PUSH1 0x4 MSTORE PUSH1 0x24 PUSH1 0x0 REVERT JUMPDEST PUSH1 0x0 PUSH2 0x272 DUP3 PUSH2 0x129 JUMP JUMPDEST SWAP2 POP PUSH2 0x27D DUP4 PUSH2 0x129 JUMP JUMPDEST SWAP3 POP DUP3 PUSH32 0xFFFFFFFFFFFFFFFFFFFFFFFFFFFFFFFFFFFFFFFFFFFFFFFFFFFFFFFFFFFFFFFF SUB DUP3 GT ISZERO PUSH2 0x2B2 JUMPI PUSH2 0x2B1 PUSH2 0x238 JUMP JUMPDEST JUMPDEST DUP3 DUP3 ADD SWAP1 POP SWAP3 SWAP2 POP POP JUMP INVALID LOG2 PUSH5 0x6970667358 0x22 SLT KECCAK256 CREATE 0xB4 0xAD BYTE 0xC2 0x5F SWAP9 0x2A 0x4F 0xCB 0x23 0x22 LOG4 0xE6 PUSH16 0x778FA184A613C3BCEA53BD2AE14372E3 LT PUSH5 0x736F6C6343 STOP ADDMOD 0xD STOP CALLER "
				},
				"gasEstimates": {
					"creation": {
						"codeDepositCost": "151000",
						"executionCost": "46568",
						"totalCost": "197568"
					},
					"external": {
						"getSupply()": "2415",
						"mint(uint256)": "infinite"
					}
				},
				"methodIdentifiers": {
					"getSupply()": "6c9c2faf",
					"mint(uint256)": "a0712d68"
				}
			},
			"storageLayout": {
				"storage": [
					{
						"astId": 4,
						"contract": "AulasSolidity/Modificadores.sol:modificadores",
						"label": "supply",
						"offset": 0,
						"slot": "0",
						"type": "t_uint256"
					},
					{
						"astId": 8,
						"contract": "AulasSolidity/Modificadores.sol:modificadores",
						"label": "admin",
						"offset": 0,
						"slot": "1",
						"type": "t_address"
					}
				],
				"types": {
					"t_address": {
						"encoding": "inplace",
						"label": "address",
						"numberOfBytes": "20"
					},
					"t_uint256": {
						"encoding": "inplace",
						"label": "uint256",
						"numberOfBytes": "32"
					}
				}
			},
			"userdoc": {
				"kind": "user",
				"methods": {},
				"version": 1
			}
		}
	}
}