{
	"AulasSolidity/Pagaveis.sol": {
		"Pagaveis": {
			"abi": [
				{
					"inputs": [],
					"name": "balance",
					"outputs": [
						{
							"internalType": "uint256",
							"name": "",
							"type": "uint256"
						}
					],
					"stateMutability": "view",
					"type": "function"
				},
				{
					"inputs": [],
					"name": "deposit",
					"outputs": [
						{
							"internalType": "bool",
							"name": "",
							"type": "bool"
						}
					],
					"stateMutability": "payable",
					"type": "function"
				}
			],
			"devdoc": {
				"kind": "dev",
				"methods": {},
				"version": 1
			},
			"evm": {
				"assembly": "    /* \"AulasSolidity/Pagaveis.sol\":27:313  contract Pagaveis {... */\n  mstore(0x40, 0x80)\n  callvalue\n  dup1\n  iszero\n  tag_1\n  jumpi\n  0x00\n  dup1\n  revert\ntag_1:\n  pop\n  dataSize(sub_0)\n  dup1\n  dataOffset(sub_0)\n  0x00\n  codecopy\n  0x00\n  return\nstop\n\nsub_0: assembly {\n        /* \"AulasSolidity/Pagaveis.sol\":27:313  contract Pagaveis {... */\n      mstore(0x40, 0x80)\n      jumpi(tag_1, lt(calldatasize, 0x04))\n      shr(0xe0, calldataload(0x00))\n      dup1\n      0xb69ef8a8\n      eq\n      tag_2\n      jumpi\n      dup1\n      0xd0e30db0\n      eq\n      tag_3\n      jumpi\n    tag_1:\n      0x00\n      dup1\n      revert\n        /* \"AulasSolidity/Pagaveis.sol\":208:308  function balance() external view returns(uint256){... */\n    tag_2:\n      callvalue\n      dup1\n      iszero\n      tag_4\n      jumpi\n      0x00\n      dup1\n      revert\n    tag_4:\n      pop\n      tag_5\n      tag_6\n      jump\t// in\n    tag_5:\n      mload(0x40)\n      tag_7\n      swap2\n      swap1\n      tag_8\n      jump\t// in\n    tag_7:\n      mload(0x40)\n      dup1\n      swap2\n      sub\n      swap1\n      return\n        /* \"AulasSolidity/Pagaveis.sol\":52:196  function deposit() external payable returns(bool){... */\n    tag_3:\n      tag_9\n      tag_10\n      jump\t// in\n    tag_9:\n      mload(0x40)\n      tag_11\n      swap2\n      swap1\n      tag_12\n      jump\t// in\n    tag_11:\n      mload(0x40)\n      dup1\n      swap2\n      sub\n      swap1\n      return\n        /* \"AulasSolidity/Pagaveis.sol\":208:308  function balance() external view returns(uint256){... */\n    tag_6:\n        /* \"AulasSolidity/Pagaveis.sol\":249:256  uint256 */\n      0x00\n        /* \"AulasSolidity/Pagaveis.sol\":275:296  address(this).balance */\n      selfbalance\n        /* \"AulasSolidity/Pagaveis.sol\":268:296  return address(this).balance */\n      swap1\n      pop\n        /* \"AulasSolidity/Pagaveis.sol\":208:308  function balance() external view returns(uint256){... */\n      swap1\n      jump\t// out\n        /* \"AulasSolidity/Pagaveis.sol\":52:196  function deposit() external payable returns(bool){... */\n    tag_10:\n        /* \"AulasSolidity/Pagaveis.sol\":96:100  bool */\n      0x00\n        /* \"AulasSolidity/Pagaveis.sol\":132:139  1 ether */\n      0x0de0b6b3a7640000\n        /* \"AulasSolidity/Pagaveis.sol\":120:129  msg.value */\n      callvalue\n        /* \"AulasSolidity/Pagaveis.sol\":120:139  msg.value >=1 ether */\n      lt\n      iszero\n        /* \"AulasSolidity/Pagaveis.sol\":112:154  require(msg.value >=1 ether, \"Nao aceito\") */\n      tag_15\n      jumpi\n      mload(0x40)\n      0x08c379a000000000000000000000000000000000000000000000000000000000\n      dup2\n      mstore\n      0x04\n      add\n      tag_16\n      swap1\n      tag_17\n      jump\t// in\n    tag_16:\n      mload(0x40)\n      dup1\n      swap2\n      sub\n      swap1\n      revert\n    tag_15:\n        /* \"AulasSolidity/Pagaveis.sol\":184:188  true */\n      0x01\n        /* \"AulasSolidity/Pagaveis.sol\":177:188  return true */\n      swap1\n      pop\n        /* \"AulasSolidity/Pagaveis.sol\":52:196  function deposit() external payable returns(bool){... */\n      swap1\n      jump\t// out\n        /* \"#utility.yul\":7:84   */\n    tag_18:\n        /* \"#utility.yul\":44:51   */\n      0x00\n        /* \"#utility.yul\":73:78   */\n      dup2\n        /* \"#utility.yul\":62:78   */\n      swap1\n      pop\n        /* \"#utility.yul\":7:84   */\n      swap2\n      swap1\n      pop\n      jump\t// out\n        /* \"#utility.yul\":90:208   */\n    tag_19:\n        /* \"#utility.yul\":177:201   */\n      tag_28\n        /* \"#utility.yul\":195:200   */\n      dup2\n        /* \"#utility.yul\":177:201   */\n      tag_18\n      jump\t// in\n    tag_28:\n        /* \"#utility.yul\":172:175   */\n      dup3\n        /* \"#utility.yul\":165:202   */\n      mstore\n        /* \"#utility.yul\":90:208   */\n      pop\n      pop\n      jump\t// out\n        /* \"#utility.yul\":214:436   */\n    tag_8:\n        /* \"#utility.yul\":307:311   */\n      0x00\n        /* \"#utility.yul\":345:347   */\n      0x20\n        /* \"#utility.yul\":334:343   */\n      dup3\n        /* \"#utility.yul\":330:348   */\n      add\n        /* \"#utility.yul\":322:348   */\n      swap1\n      pop\n        /* \"#utility.yul\":358:429   */\n      tag_30\n        /* \"#utility.yul\":426:427   */\n      0x00\n        /* \"#utility.yul\":415:424   */\n      dup4\n        /* \"#utility.yul\":411:428   */\n      add\n        /* \"#utility.yul\":402:408   */\n      dup5\n        /* \"#utility.yul\":358:429   */\n      tag_19\n      jump\t// in\n    tag_30:\n        /* \"#utility.yul\":214:436   */\n      swap3\n      swap2\n      pop\n      pop\n      jump\t// out\n        /* \"#utility.yul\":442:532   */\n    tag_20:\n        /* \"#utility.yul\":476:483   */\n      0x00\n        /* \"#utility.yul\":519:524   */\n      dup2\n        /* \"#utility.yul\":512:525   */\n      iszero\n        /* \"#utility.yul\":505:526   */\n      iszero\n        /* \"#utility.yul\":494:526   */\n      swap1\n      pop\n        /* \"#utility.yul\":442:532   */\n      swap2\n      swap1\n      pop\n      jump\t// out\n        /* \"#utility.yul\":538:647   */\n    tag_21:\n        /* \"#utility.yul\":619:640   */\n      tag_33\n        /* \"#utility.yul\":634:639   */\n      dup2\n        /* \"#utility.yul\":619:640   */\n      tag_20\n      jump\t// in\n    tag_33:\n        /* \"#utility.yul\":614:617   */\n      dup3\n        /* \"#utility.yul\":607:641   */\n      mstore\n        /* \"#utility.yul\":538:647   */\n      pop\n      pop\n      jump\t// out\n        /* \"#utility.yul\":653:863   */\n    tag_12:\n        /* \"#utility.yul\":740:744   */\n      0x00\n        /* \"#utility.yul\":778:780   */\n      0x20\n        /* \"#utility.yul\":767:776   */\n      dup3\n        /* \"#utility.yul\":763:781   */\n      add\n        /* \"#utility.yul\":755:781   */\n      swap1\n      pop\n        /* \"#utility.yul\":791:856   */\n      tag_35\n        /* \"#utility.yul\":853:854   */\n      0x00\n        /* \"#utility.yul\":842:851   */\n      dup4\n        /* \"#utility.yul\":838:855   */\n      add\n        /* \"#utility.yul\":829:835   */\n      dup5\n        /* \"#utility.yul\":791:856   */\n      tag_21\n      jump\t// in\n    tag_35:\n        /* \"#utility.yul\":653:863   */\n      swap3\n      swap2\n      pop\n      pop\n      jump\t// out\n        /* \"#utility.yul\":869:1038   */\n    tag_22:\n        /* \"#utility.yul\":953:964   */\n      0x00\n        /* \"#utility.yul\":987:993   */\n      dup3\n        /* \"#utility.yul\":982:985   */\n      dup3\n        /* \"#utility.yul\":975:994   */\n      mstore\n        /* \"#utility.yul\":1027:1031   */\n      0x20\n        /* \"#utility.yul\":1022:1025   */\n      dup3\n        /* \"#utility.yul\":1018:1032   */\n      add\n        /* \"#utility.yul\":1003:1032   */\n      swap1\n      pop\n        /* \"#utility.yul\":869:1038   */\n      swap3\n      swap2\n      pop\n      pop\n      jump\t// out\n        /* \"#utility.yul\":1044:1204   */\n    tag_23:\n        /* \"#utility.yul\":1184:1196   */\n      0x4e616f2061636569746f00000000000000000000000000000000000000000000\n        /* \"#utility.yul\":1180:1181   */\n      0x00\n        /* \"#utility.yul\":1172:1178   */\n      dup3\n        /* \"#utility.yul\":1168:1182   */\n      add\n        /* \"#utility.yul\":1161:1197   */\n      mstore\n        /* \"#utility.yul\":1044:1204   */\n      pop\n      jump\t// out\n        /* \"#utility.yul\":1210:1576   */\n    tag_24:\n        /* \"#utility.yul\":1352:1355   */\n      0x00\n        /* \"#utility.yul\":1373:1440   */\n      tag_39\n        /* \"#utility.yul\":1437:1439   */\n      0x0a\n        /* \"#utility.yul\":1432:1435   */\n      dup4\n        /* \"#utility.yul\":1373:1440   */\n      tag_22\n      jump\t// in\n    tag_39:\n        /* \"#utility.yul\":1366:1440   */\n      swap2\n      pop\n        /* \"#utility.yul\":1449:1542   */\n      tag_40\n        /* \"#utility.yul\":1538:1541   */\n      dup3\n        /* \"#utility.yul\":1449:1542   */\n      tag_23\n      jump\t// in\n    tag_40:\n        /* \"#utility.yul\":1567:1569   */\n      0x20\n        /* \"#utility.yul\":1562:1565   */\n      dup3\n        /* \"#utility.yul\":1558:1570   */\n      add\n        /* \"#utility.yul\":1551:1570   */\n      swap1\n      pop\n        /* \"#utility.yul\":1210:1576   */\n      swap2\n      swap1\n      pop\n      jump\t// out\n        /* \"#utility.yul\":1582:2001   */\n    tag_17:\n        /* \"#utility.yul\":1748:1752   */\n      0x00\n        /* \"#utility.yul\":1786:1788   */\n      0x20\n        /* \"#utility.yul\":1775:1784   */\n      dup3\n        /* \"#utility.yul\":1771:1789   */\n      add\n        /* \"#utility.yul\":1763:1789   */\n      swap1\n      pop\n        /* \"#utility.yul\":1835:1844   */\n      dup2\n        /* \"#utility.yul\":1829:1833   */\n      dup2\n        /* \"#utility.yul\":1825:1845   */\n      sub\n        /* \"#utility.yul\":1821:1822   */\n      0x00\n        /* \"#utility.yul\":1810:1819   */\n      dup4\n        /* \"#utility.yul\":1806:1823   */\n      add\n        /* \"#utility.yul\":1799:1846   */\n      mstore\n        /* \"#utility.yul\":1863:1994   */\n      tag_42\n        /* \"#utility.yul\":1989:1993   */\n      dup2\n        /* \"#utility.yul\":1863:1994   */\n      tag_24\n      jump\t// in\n    tag_42:\n        /* \"#utility.yul\":1855:1994   */\n      swap1\n      pop\n        /* \"#utility.yul\":1582:2001   */\n      swap2\n      swap1\n      pop\n      jump\t// out\n\n    auxdata: 0xa2646970667358221220ba83b6d41a2518185e21db2510ab6848bf27fefa845d1dcfd5b6e34131acbf2464736f6c634300080d0033\n}\n",
				"bytecode": {
					"linkReferences": {},
					"object": "608060405234801561001057600080fd5b506101f0806100206000396000f3fe6080604052600436106100295760003560e01c8063b69ef8a81461002e578063d0e30db014610059575b600080fd5b34801561003a57600080fd5b50610043610077565b60405161005091906100ec565b60405180910390f35b61006161007f565b60405161006e9190610122565b60405180910390f35b600047905090565b6000670de0b6b3a76400003410156100cc576040517f08c379a00000000000000000000000000000000000000000000000000000000081526004016100c39061019a565b60405180910390fd5b6001905090565b6000819050919050565b6100e6816100d3565b82525050565b600060208201905061010160008301846100dd565b92915050565b60008115159050919050565b61011c81610107565b82525050565b60006020820190506101376000830184610113565b92915050565b600082825260208201905092915050565b7f4e616f2061636569746f00000000000000000000000000000000000000000000600082015250565b6000610184600a8361013d565b915061018f8261014e565b602082019050919050565b600060208201905081810360008301526101b381610177565b905091905056fea2646970667358221220ba83b6d41a2518185e21db2510ab6848bf27fefa845d1dcfd5b6e34131acbf2464736f6c634300080d0033",
					"opcodes": "PUSH1 0x80 PUSH1 0x40 MSTORE CALLVALUE DUP1 ISZERO PUSH2 0x10 JUMPI PUSH1 0x0 DUP1 REVERT JUMPDEST POP PUSH2 0x1F0 DUP1 PUSH2 0x20 PUSH1 0x0 CODECOPY PUSH1 0x0 RETURN INVALID PUSH1 0x80 PUSH1 0x40 MSTORE PUSH1 0x4 CALLDATASIZE LT PUSH2 0x29 JUMPI PUSH1 0x0 CALLDATALOAD PUSH1 0xE0 SHR DUP1 PUSH4 0xB69EF8A8 EQ PUSH2 0x2E JUMPI DUP1 PUSH4 0xD0E30DB0 EQ PUSH2 0x59 JUMPI JUMPDEST PUSH1 0x0 DUP1 REVERT JUMPDEST CALLVALUE DUP1 ISZERO PUSH2 0x3A JUMPI PUSH1 0x0 DUP1 REVERT JUMPDEST POP PUSH2 0x43 PUSH2 0x77 JUMP JUMPDEST PUSH1 0x40 MLOAD PUSH2 0x50 SWAP2 SWAP1 PUSH2 0xEC JUMP JUMPDEST PUSH1 0x40 MLOAD DUP1 SWAP2 SUB SWAP1 RETURN JUMPDEST PUSH2 0x61 PUSH2 0x7F JUMP JUMPDEST PUSH1 0x40 MLOAD PUSH2 0x6E SWAP2 SWAP1 PUSH2 0x122 JUMP JUMPDEST PUSH1 0x40 MLOAD DUP1 SWAP2 SUB SWAP1 RETURN JUMPDEST PUSH1 0x0 SELFBALANCE SWAP1 POP SWAP1 JUMP JUMPDEST PUSH1 0x0 PUSH8 0xDE0B6B3A7640000 CALLVALUE LT ISZERO PUSH2 0xCC JUMPI PUSH1 0x40 MLOAD PUSH32 0x8C379A000000000000000000000000000000000000000000000000000000000 DUP2 MSTORE PUSH1 0x4 ADD PUSH2 0xC3 SWAP1 PUSH2 0x19A JUMP JUMPDEST PUSH1 0x40 MLOAD DUP1 SWAP2 SUB SWAP1 REVERT JUMPDEST PUSH1 0x1 SWAP1 POP SWAP1 JUMP JUMPDEST PUSH1 0x0 DUP2 SWAP1 POP SWAP2 SWAP1 POP JUMP JUMPDEST PUSH2 0xE6 DUP2 PUSH2 0xD3 JUMP JUMPDEST DUP3 MSTORE POP POP JUMP JUMPDEST PUSH1 0x0 PUSH1 0x20 DUP3 ADD SWAP1 POP PUSH2 0x101 PUSH1 0x0 DUP4 ADD DUP5 PUSH2 0xDD JUMP JUMPDEST SWAP3 SWAP2 POP POP JUMP JUMPDEST PUSH1 0x0 DUP2 ISZERO ISZERO SWAP1 POP SWAP2 SWAP1 POP JUMP JUMPDEST PUSH2 0x11C DUP2 PUSH2 0x107 JUMP JUMPDEST DUP3 MSTORE POP POP JUMP JUMPDEST PUSH1 0x0 PUSH1 0x20 DUP3 ADD SWAP1 POP PUSH2 0x137 PUSH1 0x0 DUP4 ADD DUP5 PUSH2 0x113 JUMP JUMPDEST SWAP3 SWAP2 POP POP JUMP JUMPDEST PUSH1 0x0 DUP3 DUP3 MSTORE PUSH1 0x20 DUP3 ADD SWAP1 POP SWAP3 SWAP2 POP POP JUMP JUMPDEST PUSH32 0x4E616F2061636569746F00000000000000000000000000000000000000000000 PUSH1 0x0 DUP3 ADD MSTORE POP JUMP JUMPDEST PUSH1 0x0 PUSH2 0x184 PUSH1 0xA DUP4 PUSH2 0x13D JUMP JUMPDEST SWAP2 POP PUSH2 0x18F DUP3 PUSH2 0x14E JUMP JUMPDEST PUSH1 0x20 DUP3 ADD SWAP1 POP SWAP2 SWAP1 POP JUMP JUMPDEST PUSH1 0x0 PUSH1 0x20 DUP3 ADD SWAP1 POP DUP2 DUP2 SUB PUSH1 0x0 DUP4 ADD MSTORE PUSH2 0x1B3 DUP2 PUSH2 0x177 JUMP JUMPDEST SWAP1 POP SWAP2 SWAP1 POP JUMP INVALID LOG2 PUSH5 0x6970667358 0x22 SLT KECCAK256 0xBA DUP4 0xB6 0xD4 BYTE 0x25 XOR XOR 0x5E 0x21 0xDB 0x25 LT 0xAB PUSH9 0x48BF27FEFA845D1DCF 0xD5 0xB6 0xE3 COINBASE BALANCE 0xAC 0xBF 0x24 PUSH5 0x736F6C6343 STOP ADDMOD 0xD STOP CALLER "
				},
				"gasEstimates": {
					"creation": {
						"codeDepositCost": "99200",
						"executionCost": "147",
						"totalCost": "99347"
					},
					"external": {
						"balance()": "317",
						"deposit()": "437"
					}
				},
				"methodIdentifiers": {
					"balance()": "b69ef8a8",
					"deposit()": "d0e30db0"
				}
			},
			"storageLayout": {
				"storage": [],
				"types": null
			},
			"userdoc": {
				"kind": "user",
				"methods": {},
				"version": 1
			}
		}
	}
}