{
	"AulasSolidity/Pagaveis.sol": {
		"Pagaveis": {
			"abi": [
				{
					"inputs": [],
					"name": "balance",
					"outputs": [
						{
							"internalType": "uint256",
							"name": "",
							"type": "uint256"
						}
					],
					"stateMutability": "view",
					"type": "function"
				},
				{
					"inputs": [],
					"name": "deposit",
					"outputs": [
						{
							"internalType": "bool",
							"name": "",
							"type": "bool"
						}
					],
					"stateMutability": "payable",
					"type": "function"
				},
				{
					"inputs": [
						{
							"internalType": "uint256",
							"name": "_amount",
							"type": "uint256"
						}
					],
					"name": "withdrawSend",
					"outputs": [
						{
							"internalType": "bool",
							"name": "",
							"type": "bool"
						}
					],
					"stateMutability": "nonpayable",
					"type": "function"
				},
				{
					"inputs": [
						{
							"internalType": "uint256",
							"name": "_amount",
							"type": "uint256"
						},
						{
							"internalType": "address payable",
							"name": "_endereco",
							"type": "address"
						}
					],
					"name": "withdrawTransfer",
					"outputs": [],
					"stateMutability": "nonpayable",
					"type": "function"
				}
			],
			"devdoc": {
				"kind": "dev",
				"methods": {},
				"version": 1
			},
			"evm": {
				"assembly": "    /* \"AulasSolidity/Pagaveis.sol\":27:667  contract Pagaveis {... */\n  mstore(0x40, 0x80)\n  callvalue\n  dup1\n  iszero\n  tag_1\n  jumpi\n  0x00\n  dup1\n  revert\ntag_1:\n  pop\n  dataSize(sub_0)\n  dup1\n  dataOffset(sub_0)\n  0x00\n  codecopy\n  0x00\n  return\nstop\n\nsub_0: assembly {\n        /* \"AulasSolidity/Pagaveis.sol\":27:667  contract Pagaveis {... */\n      mstore(0x40, 0x80)\n      jumpi(tag_1, lt(calldatasize, 0x04))\n      shr(0xe0, calldataload(0x00))\n      dup1\n      0x9fc30fce\n      eq\n      tag_2\n      jumpi\n      dup1\n      0xb69ef8a8\n      eq\n      tag_3\n      jumpi\n      dup1\n      0xd0e30db0\n      eq\n      tag_4\n      jumpi\n      dup1\n      0xdb0b7457\n      eq\n      tag_5\n      jumpi\n    tag_1:\n      0x00\n      dup1\n      revert\n        /* \"AulasSolidity/Pagaveis.sol\":312:516  function withdrawSend(uint256 _amount) external returns(bool) {... */\n    tag_2:\n      callvalue\n      dup1\n      iszero\n      tag_6\n      jumpi\n      0x00\n      dup1\n      revert\n    tag_6:\n      pop\n      tag_7\n      0x04\n      dup1\n      calldatasize\n      sub\n      dup2\n      add\n      swap1\n      tag_8\n      swap2\n      swap1\n      tag_9\n      jump\t// in\n    tag_8:\n      tag_10\n      jump\t// in\n    tag_7:\n      mload(0x40)\n      tag_11\n      swap2\n      swap1\n      tag_12\n      jump\t// in\n    tag_11:\n      mload(0x40)\n      dup1\n      swap2\n      sub\n      swap1\n      return\n        /* \"AulasSolidity/Pagaveis.sol\":208:304  function balance() external view returns(uint256){... */\n    tag_3:\n      callvalue\n      dup1\n      iszero\n      tag_13\n      jumpi\n      0x00\n      dup1\n      revert\n    tag_13:\n      pop\n      tag_14\n      tag_15\n      jump\t// in\n    tag_14:\n      mload(0x40)\n      tag_16\n      swap2\n      swap1\n      tag_17\n      jump\t// in\n    tag_16:\n      mload(0x40)\n      dup1\n      swap2\n      sub\n      swap1\n      return\n        /* \"AulasSolidity/Pagaveis.sol\":52:196  function deposit() external payable returns(bool){... */\n    tag_4:\n      tag_18\n      tag_19\n      jump\t// in\n    tag_18:\n      mload(0x40)\n      tag_20\n      swap2\n      swap1\n      tag_12\n      jump\t// in\n    tag_20:\n      mload(0x40)\n      dup1\n      swap2\n      sub\n      swap1\n      return\n        /* \"AulasSolidity/Pagaveis.sol\":528:660  function withdrawTransfer(uint _amount, address payable _endereco) external {... */\n    tag_5:\n      callvalue\n      dup1\n      iszero\n      tag_21\n      jumpi\n      0x00\n      dup1\n      revert\n    tag_21:\n      pop\n      tag_22\n      0x04\n      dup1\n      calldatasize\n      sub\n      dup2\n      add\n      swap1\n      tag_23\n      swap2\n      swap1\n      tag_24\n      jump\t// in\n    tag_23:\n      tag_25\n      jump\t// in\n    tag_22:\n      stop\n        /* \"AulasSolidity/Pagaveis.sol\":312:516  function withdrawSend(uint256 _amount) external returns(bool) {... */\n    tag_10:\n        /* \"AulasSolidity/Pagaveis.sol\":368:372  bool */\n      0x00\n        /* \"AulasSolidity/Pagaveis.sol\":396:406  msg.sender */\n      caller\n        /* \"AulasSolidity/Pagaveis.sol\":388:412  payable(msg.sender).send */\n      0xffffffffffffffffffffffffffffffffffffffff\n      and\n        /* \"AulasSolidity/Pagaveis.sol\":388:421  payable(msg.sender).send(_amount) */\n      0x08fc\n        /* \"AulasSolidity/Pagaveis.sol\":413:420  _amount */\n      dup4\n        /* \"AulasSolidity/Pagaveis.sol\":388:421  payable(msg.sender).send(_amount) */\n      swap1\n      dup2\n      iszero\n      mul\n      swap1\n      mload(0x40)\n      0x00\n      mload(0x40)\n      dup1\n      dup4\n      sub\n      dup2\n      dup6\n      dup9\n      dup9\n      call\n      swap4\n      pop\n      pop\n      pop\n      pop\n        /* \"AulasSolidity/Pagaveis.sol\":384:501  if (payable(msg.sender).send(_amount)){... */\n      iszero\n      tag_28\n      jumpi\n        /* \"AulasSolidity/Pagaveis.sol\":443:447  true */\n      0x01\n        /* \"AulasSolidity/Pagaveis.sol\":436:447  return true */\n      swap1\n      pop\n      jump(tag_26)\n        /* \"AulasSolidity/Pagaveis.sol\":384:501  if (payable(msg.sender).send(_amount)){... */\n    tag_28:\n        /* \"AulasSolidity/Pagaveis.sol\":485:490  false */\n      0x00\n        /* \"AulasSolidity/Pagaveis.sol\":478:490  return false */\n      swap1\n      pop\n        /* \"AulasSolidity/Pagaveis.sol\":312:516  function withdrawSend(uint256 _amount) external returns(bool) {... */\n    tag_26:\n      swap2\n      swap1\n      pop\n      jump\t// out\n        /* \"AulasSolidity/Pagaveis.sol\":208:304  function balance() external view returns(uint256){... */\n    tag_15:\n        /* \"AulasSolidity/Pagaveis.sol\":249:256  uint256 */\n      0x00\n        /* \"AulasSolidity/Pagaveis.sol\":275:296  address(this).balance */\n      selfbalance\n        /* \"AulasSolidity/Pagaveis.sol\":268:296  return address(this).balance */\n      swap1\n      pop\n        /* \"AulasSolidity/Pagaveis.sol\":208:304  function balance() external view returns(uint256){... */\n      swap1\n      jump\t// out\n        /* \"AulasSolidity/Pagaveis.sol\":52:196  function deposit() external payable returns(bool){... */\n    tag_19:\n        /* \"AulasSolidity/Pagaveis.sol\":96:100  bool */\n      0x00\n        /* \"AulasSolidity/Pagaveis.sol\":132:139  1 ether */\n      0x0de0b6b3a7640000\n        /* \"AulasSolidity/Pagaveis.sol\":120:129  msg.value */\n      callvalue\n        /* \"AulasSolidity/Pagaveis.sol\":120:139  msg.value >=1 ether */\n      lt\n      iszero\n        /* \"AulasSolidity/Pagaveis.sol\":112:154  require(msg.value >=1 ether, \"Nao aceito\") */\n      tag_32\n      jumpi\n      mload(0x40)\n      0x08c379a000000000000000000000000000000000000000000000000000000000\n      dup2\n      mstore\n      0x04\n      add\n      tag_33\n      swap1\n      tag_34\n      jump\t// in\n    tag_33:\n      mload(0x40)\n      dup1\n      swap2\n      sub\n      swap1\n      revert\n    tag_32:\n        /* \"AulasSolidity/Pagaveis.sol\":184:188  true */\n      0x01\n        /* \"AulasSolidity/Pagaveis.sol\":177:188  return true */\n      swap1\n      pop\n        /* \"AulasSolidity/Pagaveis.sol\":52:196  function deposit() external payable returns(bool){... */\n      swap1\n      jump\t// out\n        /* \"AulasSolidity/Pagaveis.sol\":528:660  function withdrawTransfer(uint _amount, address payable _endereco) external {... */\n    tag_25:\n        /* \"AulasSolidity/Pagaveis.sol\":619:628  _endereco */\n      dup1\n        /* \"AulasSolidity/Pagaveis.sol\":619:637  _endereco.transfer */\n      0xffffffffffffffffffffffffffffffffffffffff\n      and\n        /* \"AulasSolidity/Pagaveis.sol\":619:646  _endereco.transfer(_amount) */\n      0x08fc\n        /* \"AulasSolidity/Pagaveis.sol\":638:645  _amount */\n      dup4\n        /* \"AulasSolidity/Pagaveis.sol\":619:646  _endereco.transfer(_amount) */\n      swap1\n      dup2\n      iszero\n      mul\n      swap1\n      mload(0x40)\n      0x00\n      mload(0x40)\n      dup1\n      dup4\n      sub\n      dup2\n      dup6\n      dup9\n      dup9\n      call\n      swap4\n      pop\n      pop\n      pop\n      pop\n      iszero\n      dup1\n      iszero\n      tag_37\n      jumpi\n      returndatasize\n      0x00\n      dup1\n      returndatacopy\n      revert(0x00, returndatasize)\n    tag_37:\n      pop\n        /* \"AulasSolidity/Pagaveis.sol\":528:660  function withdrawTransfer(uint _amount, address payable _endereco) external {... */\n      pop\n      pop\n      jump\t// out\n        /* \"#utility.yul\":88:205   */\n    tag_39:\n        /* \"#utility.yul\":197:198   */\n      0x00\n        /* \"#utility.yul\":194:195   */\n      dup1\n        /* \"#utility.yul\":187:199   */\n      revert\n        /* \"#utility.yul\":334:411   */\n    tag_41:\n        /* \"#utility.yul\":371:378   */\n      0x00\n        /* \"#utility.yul\":400:405   */\n      dup2\n        /* \"#utility.yul\":389:405   */\n      swap1\n      pop\n        /* \"#utility.yul\":334:411   */\n      swap2\n      swap1\n      pop\n      jump\t// out\n        /* \"#utility.yul\":417:539   */\n    tag_42:\n        /* \"#utility.yul\":490:514   */\n      tag_60\n        /* \"#utility.yul\":508:513   */\n      dup2\n        /* \"#utility.yul\":490:514   */\n      tag_41\n      jump\t// in\n    tag_60:\n        /* \"#utility.yul\":483:488   */\n      dup2\n        /* \"#utility.yul\":480:515   */\n      eq\n        /* \"#utility.yul\":470:533   */\n      tag_61\n      jumpi\n        /* \"#utility.yul\":529:530   */\n      0x00\n        /* \"#utility.yul\":526:527   */\n      dup1\n        /* \"#utility.yul\":519:531   */\n      revert\n        /* \"#utility.yul\":470:533   */\n    tag_61:\n        /* \"#utility.yul\":417:539   */\n      pop\n      jump\t// out\n        /* \"#utility.yul\":545:684   */\n    tag_43:\n        /* \"#utility.yul\":591:596   */\n      0x00\n        /* \"#utility.yul\":629:635   */\n      dup2\n        /* \"#utility.yul\":616:636   */\n      calldataload\n        /* \"#utility.yul\":607:636   */\n      swap1\n      pop\n        /* \"#utility.yul\":645:678   */\n      tag_63\n        /* \"#utility.yul\":672:677   */\n      dup2\n        /* \"#utility.yul\":645:678   */\n      tag_42\n      jump\t// in\n    tag_63:\n        /* \"#utility.yul\":545:684   */\n      swap3\n      swap2\n      pop\n      pop\n      jump\t// out\n        /* \"#utility.yul\":690:1019   */\n    tag_9:\n        /* \"#utility.yul\":749:755   */\n      0x00\n        /* \"#utility.yul\":798:800   */\n      0x20\n        /* \"#utility.yul\":786:795   */\n      dup3\n        /* \"#utility.yul\":777:784   */\n      dup5\n        /* \"#utility.yul\":773:796   */\n      sub\n        /* \"#utility.yul\":769:801   */\n      slt\n        /* \"#utility.yul\":766:885   */\n      iszero\n      tag_65\n      jumpi\n        /* \"#utility.yul\":804:883   */\n      tag_66\n      tag_39\n      jump\t// in\n    tag_66:\n        /* \"#utility.yul\":766:885   */\n    tag_65:\n        /* \"#utility.yul\":924:925   */\n      0x00\n        /* \"#utility.yul\":949:1002   */\n      tag_67\n        /* \"#utility.yul\":994:1001   */\n      dup5\n        /* \"#utility.yul\":985:991   */\n      dup3\n        /* \"#utility.yul\":974:983   */\n      dup6\n        /* \"#utility.yul\":970:992   */\n      add\n        /* \"#utility.yul\":949:1002   */\n      tag_43\n      jump\t// in\n    tag_67:\n        /* \"#utility.yul\":939:1002   */\n      swap2\n      pop\n        /* \"#utility.yul\":895:1012   */\n      pop\n        /* \"#utility.yul\":690:1019   */\n      swap3\n      swap2\n      pop\n      pop\n      jump\t// out\n        /* \"#utility.yul\":1025:1115   */\n    tag_44:\n        /* \"#utility.yul\":1059:1066   */\n      0x00\n        /* \"#utility.yul\":1102:1107   */\n      dup2\n        /* \"#utility.yul\":1095:1108   */\n      iszero\n        /* \"#utility.yul\":1088:1109   */\n      iszero\n        /* \"#utility.yul\":1077:1109   */\n      swap1\n      pop\n        /* \"#utility.yul\":1025:1115   */\n      swap2\n      swap1\n      pop\n      jump\t// out\n        /* \"#utility.yul\":1121:1230   */\n    tag_45:\n        /* \"#utility.yul\":1202:1223   */\n      tag_70\n        /* \"#utility.yul\":1217:1222   */\n      dup2\n        /* \"#utility.yul\":1202:1223   */\n      tag_44\n      jump\t// in\n    tag_70:\n        /* \"#utility.yul\":1197:1200   */\n      dup3\n        /* \"#utility.yul\":1190:1224   */\n      mstore\n        /* \"#utility.yul\":1121:1230   */\n      pop\n      pop\n      jump\t// out\n        /* \"#utility.yul\":1236:1446   */\n    tag_12:\n        /* \"#utility.yul\":1323:1327   */\n      0x00\n        /* \"#utility.yul\":1361:1363   */\n      0x20\n        /* \"#utility.yul\":1350:1359   */\n      dup3\n        /* \"#utility.yul\":1346:1364   */\n      add\n        /* \"#utility.yul\":1338:1364   */\n      swap1\n      pop\n        /* \"#utility.yul\":1374:1439   */\n      tag_72\n        /* \"#utility.yul\":1436:1437   */\n      0x00\n        /* \"#utility.yul\":1425:1434   */\n      dup4\n        /* \"#utility.yul\":1421:1438   */\n      add\n        /* \"#utility.yul\":1412:1418   */\n      dup5\n        /* \"#utility.yul\":1374:1439   */\n      tag_45\n      jump\t// in\n    tag_72:\n        /* \"#utility.yul\":1236:1446   */\n      swap3\n      swap2\n      pop\n      pop\n      jump\t// out\n        /* \"#utility.yul\":1452:1570   */\n    tag_46:\n        /* \"#utility.yul\":1539:1563   */\n      tag_74\n        /* \"#utility.yul\":1557:1562   */\n      dup2\n        /* \"#utility.yul\":1539:1563   */\n      tag_41\n      jump\t// in\n    tag_74:\n        /* \"#utility.yul\":1534:1537   */\n      dup3\n        /* \"#utility.yul\":1527:1564   */\n      mstore\n        /* \"#utility.yul\":1452:1570   */\n      pop\n      pop\n      jump\t// out\n        /* \"#utility.yul\":1576:1798   */\n    tag_17:\n        /* \"#utility.yul\":1669:1673   */\n      0x00\n        /* \"#utility.yul\":1707:1709   */\n      0x20\n        /* \"#utility.yul\":1696:1705   */\n      dup3\n        /* \"#utility.yul\":1692:1710   */\n      add\n        /* \"#utility.yul\":1684:1710   */\n      swap1\n      pop\n        /* \"#utility.yul\":1720:1791   */\n      tag_76\n        /* \"#utility.yul\":1788:1789   */\n      0x00\n        /* \"#utility.yul\":1777:1786   */\n      dup4\n        /* \"#utility.yul\":1773:1790   */\n      add\n        /* \"#utility.yul\":1764:1770   */\n      dup5\n        /* \"#utility.yul\":1720:1791   */\n      tag_46\n      jump\t// in\n    tag_76:\n        /* \"#utility.yul\":1576:1798   */\n      swap3\n      swap2\n      pop\n      pop\n      jump\t// out\n        /* \"#utility.yul\":1804:1930   */\n    tag_47:\n        /* \"#utility.yul\":1841:1848   */\n      0x00\n        /* \"#utility.yul\":1881:1923   */\n      0xffffffffffffffffffffffffffffffffffffffff\n        /* \"#utility.yul\":1874:1879   */\n      dup3\n        /* \"#utility.yul\":1870:1924   */\n      and\n        /* \"#utility.yul\":1859:1924   */\n      swap1\n      pop\n        /* \"#utility.yul\":1804:1930   */\n      swap2\n      swap1\n      pop\n      jump\t// out\n        /* \"#utility.yul\":1936:2040   */\n    tag_48:\n        /* \"#utility.yul\":1981:1988   */\n      0x00\n        /* \"#utility.yul\":2010:2034   */\n      tag_79\n        /* \"#utility.yul\":2028:2033   */\n      dup3\n        /* \"#utility.yul\":2010:2034   */\n      tag_47\n      jump\t// in\n    tag_79:\n        /* \"#utility.yul\":1999:2034   */\n      swap1\n      pop\n        /* \"#utility.yul\":1936:2040   */\n      swap2\n      swap1\n      pop\n      jump\t// out\n        /* \"#utility.yul\":2046:2184   */\n    tag_49:\n        /* \"#utility.yul\":2127:2159   */\n      tag_81\n        /* \"#utility.yul\":2153:2158   */\n      dup2\n        /* \"#utility.yul\":2127:2159   */\n      tag_48\n      jump\t// in\n    tag_81:\n        /* \"#utility.yul\":2120:2125   */\n      dup2\n        /* \"#utility.yul\":2117:2160   */\n      eq\n        /* \"#utility.yul\":2107:2178   */\n      tag_82\n      jumpi\n        /* \"#utility.yul\":2174:2175   */\n      0x00\n        /* \"#utility.yul\":2171:2172   */\n      dup1\n        /* \"#utility.yul\":2164:2176   */\n      revert\n        /* \"#utility.yul\":2107:2178   */\n    tag_82:\n        /* \"#utility.yul\":2046:2184   */\n      pop\n      jump\t// out\n        /* \"#utility.yul\":2190:2345   */\n    tag_50:\n        /* \"#utility.yul\":2244:2249   */\n      0x00\n        /* \"#utility.yul\":2282:2288   */\n      dup2\n        /* \"#utility.yul\":2269:2289   */\n      calldataload\n        /* \"#utility.yul\":2260:2289   */\n      swap1\n      pop\n        /* \"#utility.yul\":2298:2339   */\n      tag_84\n        /* \"#utility.yul\":2333:2338   */\n      dup2\n        /* \"#utility.yul\":2298:2339   */\n      tag_49\n      jump\t// in\n    tag_84:\n        /* \"#utility.yul\":2190:2345   */\n      swap3\n      swap2\n      pop\n      pop\n      jump\t// out\n        /* \"#utility.yul\":2351:2841   */\n    tag_24:\n        /* \"#utility.yul\":2427:2433   */\n      0x00\n        /* \"#utility.yul\":2435:2441   */\n      dup1\n        /* \"#utility.yul\":2484:2486   */\n      0x40\n        /* \"#utility.yul\":2472:2481   */\n      dup4\n        /* \"#utility.yul\":2463:2470   */\n      dup6\n        /* \"#utility.yul\":2459:2482   */\n      sub\n        /* \"#utility.yul\":2455:2487   */\n      slt\n        /* \"#utility.yul\":2452:2571   */\n      iszero\n      tag_86\n      jumpi\n        /* \"#utility.yul\":2490:2569   */\n      tag_87\n      tag_39\n      jump\t// in\n    tag_87:\n        /* \"#utility.yul\":2452:2571   */\n    tag_86:\n        /* \"#utility.yul\":2610:2611   */\n      0x00\n        /* \"#utility.yul\":2635:2688   */\n      tag_88\n        /* \"#utility.yul\":2680:2687   */\n      dup6\n        /* \"#utility.yul\":2671:2677   */\n      dup3\n        /* \"#utility.yul\":2660:2669   */\n      dup7\n        /* \"#utility.yul\":2656:2678   */\n      add\n        /* \"#utility.yul\":2635:2688   */\n      tag_43\n      jump\t// in\n    tag_88:\n        /* \"#utility.yul\":2625:2688   */\n      swap3\n      pop\n        /* \"#utility.yul\":2581:2698   */\n      pop\n        /* \"#utility.yul\":2737:2739   */\n      0x20\n        /* \"#utility.yul\":2763:2824   */\n      tag_89\n        /* \"#utility.yul\":2816:2823   */\n      dup6\n        /* \"#utility.yul\":2807:2813   */\n      dup3\n        /* \"#utility.yul\":2796:2805   */\n      dup7\n        /* \"#utility.yul\":2792:2814   */\n      add\n        /* \"#utility.yul\":2763:2824   */\n      tag_50\n      jump\t// in\n    tag_89:\n        /* \"#utility.yul\":2753:2824   */\n      swap2\n      pop\n        /* \"#utility.yul\":2708:2834   */\n      pop\n        /* \"#utility.yul\":2351:2841   */\n      swap3\n      pop\n      swap3\n      swap1\n      pop\n      jump\t// out\n        /* \"#utility.yul\":2847:3016   */\n    tag_51:\n        /* \"#utility.yul\":2931:2942   */\n      0x00\n        /* \"#utility.yul\":2965:2971   */\n      dup3\n        /* \"#utility.yul\":2960:2963   */\n      dup3\n        /* \"#utility.yul\":2953:2972   */\n      mstore\n        /* \"#utility.yul\":3005:3009   */\n      0x20\n        /* \"#utility.yul\":3000:3003   */\n      dup3\n        /* \"#utility.yul\":2996:3010   */\n      add\n        /* \"#utility.yul\":2981:3010   */\n      swap1\n      pop\n        /* \"#utility.yul\":2847:3016   */\n      swap3\n      swap2\n      pop\n      pop\n      jump\t// out\n        /* \"#utility.yul\":3022:3182   */\n    tag_52:\n        /* \"#utility.yul\":3162:3174   */\n      0x4e616f2061636569746f00000000000000000000000000000000000000000000\n        /* \"#utility.yul\":3158:3159   */\n      0x00\n        /* \"#utility.yul\":3150:3156   */\n      dup3\n        /* \"#utility.yul\":3146:3160   */\n      add\n        /* \"#utility.yul\":3139:3175   */\n      mstore\n        /* \"#utility.yul\":3022:3182   */\n      pop\n      jump\t// out\n        /* \"#utility.yul\":3188:3554   */\n    tag_53:\n        /* \"#utility.yul\":3330:3333   */\n      0x00\n        /* \"#utility.yul\":3351:3418   */\n      tag_93\n        /* \"#utility.yul\":3415:3417   */\n      0x0a\n        /* \"#utility.yul\":3410:3413   */\n      dup4\n        /* \"#utility.yul\":3351:3418   */\n      tag_51\n      jump\t// in\n    tag_93:\n        /* \"#utility.yul\":3344:3418   */\n      swap2\n      pop\n        /* \"#utility.yul\":3427:3520   */\n      tag_94\n        /* \"#utility.yul\":3516:3519   */\n      dup3\n        /* \"#utility.yul\":3427:3520   */\n      tag_52\n      jump\t// in\n    tag_94:\n        /* \"#utility.yul\":3545:3547   */\n      0x20\n        /* \"#utility.yul\":3540:3543   */\n      dup3\n        /* \"#utility.yul\":3536:3548   */\n      add\n        /* \"#utility.yul\":3529:3548   */\n      swap1\n      pop\n        /* \"#utility.yul\":3188:3554   */\n      swap2\n      swap1\n      pop\n      jump\t// out\n        /* \"#utility.yul\":3560:3979   */\n    tag_34:\n        /* \"#utility.yul\":3726:3730   */\n      0x00\n        /* \"#utility.yul\":3764:3766   */\n      0x20\n        /* \"#utility.yul\":3753:3762   */\n      dup3\n        /* \"#utility.yul\":3749:3767   */\n      add\n        /* \"#utility.yul\":3741:3767   */\n      swap1\n      pop\n        /* \"#utility.yul\":3813:3822   */\n      dup2\n        /* \"#utility.yul\":3807:3811   */\n      dup2\n        /* \"#utility.yul\":3803:3823   */\n      sub\n        /* \"#utility.yul\":3799:3800   */\n      0x00\n        /* \"#utility.yul\":3788:3797   */\n      dup4\n        /* \"#utility.yul\":3784:3801   */\n      add\n        /* \"#utility.yul\":3777:3824   */\n      mstore\n        /* \"#utility.yul\":3841:3972   */\n      tag_96\n        /* \"#utility.yul\":3967:3971   */\n      dup2\n        /* \"#utility.yul\":3841:3972   */\n      tag_53\n      jump\t// in\n    tag_96:\n        /* \"#utility.yul\":3833:3972   */\n      swap1\n      pop\n        /* \"#utility.yul\":3560:3979   */\n      swap2\n      swap1\n      pop\n      jump\t// out\n\n    auxdata: 0xa264697066735822122055f4202c8accc2ff0a401a39b5586c31e6e27509520fa05f0116d007213bd1ea64736f6c634300080d0033\n}\n",
				"bytecode": {
					"linkReferences": {},
					"object": "608060405234801561001057600080fd5b50610402806100206000396000f3fe60806040526004361061003f5760003560e01c80639fc30fce14610044578063b69ef8a814610081578063d0e30db0146100ac578063db0b7457146100ca575b600080fd5b34801561005057600080fd5b5061006b60048036038101906100669190610224565b6100f3565b604051610078919061026c565b60405180910390f35b34801561008d57600080fd5b50610096610142565b6040516100a39190610296565b60405180910390f35b6100b461014a565b6040516100c1919061026c565b60405180910390f35b3480156100d657600080fd5b506100f160048036038101906100ec919061030f565b61019e565b005b60003373ffffffffffffffffffffffffffffffffffffffff166108fc839081150290604051600060405180830381858888f1935050505015610138576001905061013d565b600090505b919050565b600047905090565b6000670de0b6b3a7640000341015610197576040517f08c379a000000000000000000000000000000000000000000000000000000000815260040161018e906103ac565b60405180910390fd5b6001905090565b8073ffffffffffffffffffffffffffffffffffffffff166108fc839081150290604051600060405180830381858888f193505050501580156101e4573d6000803e3d6000fd5b505050565b600080fd5b6000819050919050565b610201816101ee565b811461020c57600080fd5b50565b60008135905061021e816101f8565b92915050565b60006020828403121561023a576102396101e9565b5b60006102488482850161020f565b91505092915050565b60008115159050919050565b61026681610251565b82525050565b6000602082019050610281600083018461025d565b92915050565b610290816101ee565b82525050565b60006020820190506102ab6000830184610287565b92915050565b600073ffffffffffffffffffffffffffffffffffffffff82169050919050565b60006102dc826102b1565b9050919050565b6102ec816102d1565b81146102f757600080fd5b50565b600081359050610309816102e3565b92915050565b60008060408385031215610326576103256101e9565b5b60006103348582860161020f565b9250506020610345858286016102fa565b9150509250929050565b600082825260208201905092915050565b7f4e616f2061636569746f00000000000000000000000000000000000000000000600082015250565b6000610396600a8361034f565b91506103a182610360565b602082019050919050565b600060208201905081810360008301526103c581610389565b905091905056fea264697066735822122055f4202c8accc2ff0a401a39b5586c31e6e27509520fa05f0116d007213bd1ea64736f6c634300080d0033",
					"opcodes": "PUSH1 0x80 PUSH1 0x40 MSTORE CALLVALUE DUP1 ISZERO PUSH2 0x10 JUMPI PUSH1 0x0 DUP1 REVERT JUMPDEST POP PUSH2 0x402 DUP1 PUSH2 0x20 PUSH1 0x0 CODECOPY PUSH1 0x0 RETURN INVALID PUSH1 0x80 PUSH1 0x40 MSTORE PUSH1 0x4 CALLDATASIZE LT PUSH2 0x3F JUMPI PUSH1 0x0 CALLDATALOAD PUSH1 0xE0 SHR DUP1 PUSH4 0x9FC30FCE EQ PUSH2 0x44 JUMPI DUP1 PUSH4 0xB69EF8A8 EQ PUSH2 0x81 JUMPI DUP1 PUSH4 0xD0E30DB0 EQ PUSH2 0xAC JUMPI DUP1 PUSH4 0xDB0B7457 EQ PUSH2 0xCA JUMPI JUMPDEST PUSH1 0x0 DUP1 REVERT JUMPDEST CALLVALUE DUP1 ISZERO PUSH2 0x50 JUMPI PUSH1 0x0 DUP1 REVERT JUMPDEST POP PUSH2 0x6B PUSH1 0x4 DUP1 CALLDATASIZE SUB DUP2 ADD SWAP1 PUSH2 0x66 SWAP2 SWAP1 PUSH2 0x224 JUMP JUMPDEST PUSH2 0xF3 JUMP JUMPDEST PUSH1 0x40 MLOAD PUSH2 0x78 SWAP2 SWAP1 PUSH2 0x26C JUMP JUMPDEST PUSH1 0x40 MLOAD DUP1 SWAP2 SUB SWAP1 RETURN JUMPDEST CALLVALUE DUP1 ISZERO PUSH2 0x8D JUMPI PUSH1 0x0 DUP1 REVERT JUMPDEST POP PUSH2 0x96 PUSH2 0x142 JUMP JUMPDEST PUSH1 0x40 MLOAD PUSH2 0xA3 SWAP2 SWAP1 PUSH2 0x296 JUMP JUMPDEST PUSH1 0x40 MLOAD DUP1 SWAP2 SUB SWAP1 RETURN JUMPDEST PUSH2 0xB4 PUSH2 0x14A JUMP JUMPDEST PUSH1 0x40 MLOAD PUSH2 0xC1 SWAP2 SWAP1 PUSH2 0x26C JUMP JUMPDEST PUSH1 0x40 MLOAD DUP1 SWAP2 SUB SWAP1 RETURN JUMPDEST CALLVALUE DUP1 ISZERO PUSH2 0xD6 JUMPI PUSH1 0x0 DUP1 REVERT JUMPDEST POP PUSH2 0xF1 PUSH1 0x4 DUP1 CALLDATASIZE SUB DUP2 ADD SWAP1 PUSH2 0xEC SWAP2 SWAP1 PUSH2 0x30F JUMP JUMPDEST PUSH2 0x19E JUMP JUMPDEST STOP JUMPDEST PUSH1 0x0 CALLER PUSH20 0xFFFFFFFFFFFFFFFFFFFFFFFFFFFFFFFFFFFFFFFF AND PUSH2 0x8FC DUP4 SWAP1 DUP2 ISZERO MUL SWAP1 PUSH1 0x40 MLOAD PUSH1 0x0 PUSH1 0x40 MLOAD DUP1 DUP4 SUB DUP2 DUP6 DUP9 DUP9 CALL SWAP4 POP POP POP POP ISZERO PUSH2 0x138 JUMPI PUSH1 0x1 SWAP1 POP PUSH2 0x13D JUMP JUMPDEST PUSH1 0x0 SWAP1 POP JUMPDEST SWAP2 SWAP1 POP JUMP JUMPDEST PUSH1 0x0 SELFBALANCE SWAP1 POP SWAP1 JUMP JUMPDEST PUSH1 0x0 PUSH8 0xDE0B6B3A7640000 CALLVALUE LT ISZERO PUSH2 0x197 JUMPI PUSH1 0x40 MLOAD PUSH32 0x8C379A000000000000000000000000000000000000000000000000000000000 DUP2 MSTORE PUSH1 0x4 ADD PUSH2 0x18E SWAP1 PUSH2 0x3AC JUMP JUMPDEST PUSH1 0x40 MLOAD DUP1 SWAP2 SUB SWAP1 REVERT JUMPDEST PUSH1 0x1 SWAP1 POP SWAP1 JUMP JUMPDEST DUP1 PUSH20 0xFFFFFFFFFFFFFFFFFFFFFFFFFFFFFFFFFFFFFFFF AND PUSH2 0x8FC DUP4 SWAP1 DUP2 ISZERO MUL SWAP1 PUSH1 0x40 MLOAD PUSH1 0x0 PUSH1 0x40 MLOAD DUP1 DUP4 SUB DUP2 DUP6 DUP9 DUP9 CALL SWAP4 POP POP POP POP ISZERO DUP1 ISZERO PUSH2 0x1E4 JUMPI RETURNDATASIZE PUSH1 0x0 DUP1 RETURNDATACOPY RETURNDATASIZE PUSH1 0x0 REVERT JUMPDEST POP POP POP JUMP JUMPDEST PUSH1 0x0 DUP1 REVERT JUMPDEST PUSH1 0x0 DUP2 SWAP1 POP SWAP2 SWAP1 POP JUMP JUMPDEST PUSH2 0x201 DUP2 PUSH2 0x1EE JUMP JUMPDEST DUP2 EQ PUSH2 0x20C JUMPI PUSH1 0x0 DUP1 REVERT JUMPDEST POP JUMP JUMPDEST PUSH1 0x0 DUP2 CALLDATALOAD SWAP1 POP PUSH2 0x21E DUP2 PUSH2 0x1F8 JUMP JUMPDEST SWAP3 SWAP2 POP POP JUMP JUMPDEST PUSH1 0x0 PUSH1 0x20 DUP3 DUP5 SUB SLT ISZERO PUSH2 0x23A JUMPI PUSH2 0x239 PUSH2 0x1E9 JUMP JUMPDEST JUMPDEST PUSH1 0x0 PUSH2 0x248 DUP5 DUP3 DUP6 ADD PUSH2 0x20F JUMP JUMPDEST SWAP2 POP POP SWAP3 SWAP2 POP POP JUMP JUMPDEST PUSH1 0x0 DUP2 ISZERO ISZERO SWAP1 POP SWAP2 SWAP1 POP JUMP JUMPDEST PUSH2 0x266 DUP2 PUSH2 0x251 JUMP JUMPDEST DUP3 MSTORE POP POP JUMP JUMPDEST PUSH1 0x0 PUSH1 0x20 DUP3 ADD SWAP1 POP PUSH2 0x281 PUSH1 0x0 DUP4 ADD DUP5 PUSH2 0x25D JUMP JUMPDEST SWAP3 SWAP2 POP POP JUMP JUMPDEST PUSH2 0x290 DUP2 PUSH2 0x1EE JUMP JUMPDEST DUP3 MSTORE POP POP JUMP JUMPDEST PUSH1 0x0 PUSH1 0x20 DUP3 ADD SWAP1 POP PUSH2 0x2AB PUSH1 0x0 DUP4 ADD DUP5 PUSH2 0x287 JUMP JUMPDEST SWAP3 SWAP2 POP POP JUMP JUMPDEST PUSH1 0x0 PUSH20 0xFFFFFFFFFFFFFFFFFFFFFFFFFFFFFFFFFFFFFFFF DUP3 AND SWAP1 POP SWAP2 SWAP1 POP JUMP JUMPDEST PUSH1 0x0 PUSH2 0x2DC DUP3 PUSH2 0x2B1 JUMP JUMPDEST SWAP1 POP SWAP2 SWAP1 POP JUMP JUMPDEST PUSH2 0x2EC DUP2 PUSH2 0x2D1 JUMP JUMPDEST DUP2 EQ PUSH2 0x2F7 JUMPI PUSH1 0x0 DUP1 REVERT JUMPDEST POP JUMP JUMPDEST PUSH1 0x0 DUP2 CALLDATALOAD SWAP1 POP PUSH2 0x309 DUP2 PUSH2 0x2E3 JUMP JUMPDEST SWAP3 SWAP2 POP POP JUMP JUMPDEST PUSH1 0x0 DUP1 PUSH1 0x40 DUP4 DUP6 SUB SLT ISZERO PUSH2 0x326 JUMPI PUSH2 0x325 PUSH2 0x1E9 JUMP JUMPDEST JUMPDEST PUSH1 0x0 PUSH2 0x334 DUP6 DUP3 DUP7 ADD PUSH2 0x20F JUMP JUMPDEST SWAP3 POP POP PUSH1 0x20 PUSH2 0x345 DUP6 DUP3 DUP7 ADD PUSH2 0x2FA JUMP JUMPDEST SWAP2 POP POP SWAP3 POP SWAP3 SWAP1 POP JUMP JUMPDEST PUSH1 0x0 DUP3 DUP3 MSTORE PUSH1 0x20 DUP3 ADD SWAP1 POP SWAP3 SWAP2 POP POP JUMP JUMPDEST PUSH32 0x4E616F2061636569746F00000000000000000000000000000000000000000000 PUSH1 0x0 DUP3 ADD MSTORE POP JUMP JUMPDEST PUSH1 0x0 PUSH2 0x396 PUSH1 0xA DUP4 PUSH2 0x34F JUMP JUMPDEST SWAP2 POP PUSH2 0x3A1 DUP3 PUSH2 0x360 JUMP JUMPDEST PUSH1 0x20 DUP3 ADD SWAP1 POP SWAP2 SWAP1 POP JUMP JUMPDEST PUSH1 0x0 PUSH1 0x20 DUP3 ADD SWAP1 POP DUP2 DUP2 SUB PUSH1 0x0 DUP4 ADD MSTORE PUSH2 0x3C5 DUP2 PUSH2 0x389 JUMP JUMPDEST SWAP1 POP SWAP2 SWAP1 POP JUMP INVALID LOG2 PUSH5 0x6970667358 0x22 SLT KECCAK256 SSTORE DELEGATECALL KECCAK256 0x2C DUP11 0xCC 0xC2 SELFDESTRUCT EXP BLOCKHASH BYTE CODECOPY 0xB5 PC PUSH13 0x31E6E27509520FA05F0116D007 0x21 EXTCODESIZE 0xD1 0xEA PUSH5 0x736F6C6343 STOP ADDMOD 0xD STOP CALLER "
				},
				"gasEstimates": {
					"creation": {
						"codeDepositCost": "205200",
						"executionCost": "251",
						"totalCost": "205451"
					},
					"external": {
						"balance()": "339",
						"deposit()": "459",
						"withdrawSend(uint256)": "infinite",
						"withdrawTransfer(uint256,address)": "infinite"
					}
				},
				"methodIdentifiers": {
					"balance()": "b69ef8a8",
					"deposit()": "d0e30db0",
					"withdrawSend(uint256)": "9fc30fce",
					"withdrawTransfer(uint256,address)": "db0b7457"
				}
			},
			"storageLayout": {
				"storage": [],
				"types": null
			},
			"userdoc": {
				"kind": "user",
				"methods": {},
				"version": 1
			}
		}
	}
}