{
	"AulasSolidity/Pagaveis.sol": {
		"Pagaveis": {
			"abi": [
				{
					"inputs": [],
					"name": "deposit",
					"outputs": [
						{
							"internalType": "bool",
							"name": "",
							"type": "bool"
						}
					],
					"stateMutability": "payable",
					"type": "function"
				}
			],
			"devdoc": {
				"kind": "dev",
				"methods": {},
				"version": 1
			},
			"evm": {
				"assembly": "    /* \"AulasSolidity/Pagaveis.sol\":27:209  contract Pagaveis {... */\n  mstore(0x40, 0x80)\n  callvalue\n  dup1\n  iszero\n  tag_1\n  jumpi\n  0x00\n  dup1\n  revert\ntag_1:\n  pop\n  dataSize(sub_0)\n  dup1\n  dataOffset(sub_0)\n  0x00\n  codecopy\n  0x00\n  return\nstop\n\nsub_0: assembly {\n        /* \"AulasSolidity/Pagaveis.sol\":27:209  contract Pagaveis {... */\n      mstore(0x40, 0x80)\n      jumpi(tag_1, lt(calldatasize, 0x04))\n      shr(0xe0, calldataload(0x00))\n      dup1\n      0xd0e30db0\n      eq\n      tag_2\n      jumpi\n    tag_1:\n      0x00\n      dup1\n      revert\n        /* \"AulasSolidity/Pagaveis.sol\":52:198  function deposit() external payable returns(bool){... */\n    tag_2:\n      tag_3\n      tag_4\n      jump\t// in\n    tag_3:\n      mload(0x40)\n      tag_5\n      swap2\n      swap1\n      tag_6\n      jump\t// in\n    tag_5:\n      mload(0x40)\n      dup1\n      swap2\n      sub\n      swap1\n      return\n    tag_4:\n        /* \"AulasSolidity/Pagaveis.sol\":96:100  bool */\n      0x00\n        /* \"AulasSolidity/Pagaveis.sol\":132:139  1 ether */\n      0x0de0b6b3a7640000\n        /* \"AulasSolidity/Pagaveis.sol\":120:129  msg.value */\n      callvalue\n        /* \"AulasSolidity/Pagaveis.sol\":120:139  msg.value >=1 ether */\n      lt\n      iszero\n        /* \"AulasSolidity/Pagaveis.sol\":112:154  require(msg.value >=1 ether, \"Nao aceito\") */\n      tag_8\n      jumpi\n      mload(0x40)\n      0x08c379a000000000000000000000000000000000000000000000000000000000\n      dup2\n      mstore\n      0x04\n      add\n      tag_9\n      swap1\n      tag_10\n      jump\t// in\n    tag_9:\n      mload(0x40)\n      dup1\n      swap2\n      sub\n      swap1\n      revert\n    tag_8:\n        /* \"AulasSolidity/Pagaveis.sol\":184:188  true */\n      0x01\n        /* \"AulasSolidity/Pagaveis.sol\":177:188  return true */\n      swap1\n      pop\n        /* \"AulasSolidity/Pagaveis.sol\":52:198  function deposit() external payable returns(bool){... */\n      swap1\n      jump\t// out\n        /* \"#utility.yul\":7:97   */\n    tag_11:\n        /* \"#utility.yul\":41:48   */\n      0x00\n        /* \"#utility.yul\":84:89   */\n      dup2\n        /* \"#utility.yul\":77:90   */\n      iszero\n        /* \"#utility.yul\":70:91   */\n      iszero\n        /* \"#utility.yul\":59:91   */\n      swap1\n      pop\n        /* \"#utility.yul\":7:97   */\n      swap2\n      swap1\n      pop\n      jump\t// out\n        /* \"#utility.yul\":103:212   */\n    tag_12:\n        /* \"#utility.yul\":184:205   */\n      tag_19\n        /* \"#utility.yul\":199:204   */\n      dup2\n        /* \"#utility.yul\":184:205   */\n      tag_11\n      jump\t// in\n    tag_19:\n        /* \"#utility.yul\":179:182   */\n      dup3\n        /* \"#utility.yul\":172:206   */\n      mstore\n        /* \"#utility.yul\":103:212   */\n      pop\n      pop\n      jump\t// out\n        /* \"#utility.yul\":218:428   */\n    tag_6:\n        /* \"#utility.yul\":305:309   */\n      0x00\n        /* \"#utility.yul\":343:345   */\n      0x20\n        /* \"#utility.yul\":332:341   */\n      dup3\n        /* \"#utility.yul\":328:346   */\n      add\n        /* \"#utility.yul\":320:346   */\n      swap1\n      pop\n        /* \"#utility.yul\":356:421   */\n      tag_21\n        /* \"#utility.yul\":418:419   */\n      0x00\n        /* \"#utility.yul\":407:416   */\n      dup4\n        /* \"#utility.yul\":403:420   */\n      add\n        /* \"#utility.yul\":394:400   */\n      dup5\n        /* \"#utility.yul\":356:421   */\n      tag_12\n      jump\t// in\n    tag_21:\n        /* \"#utility.yul\":218:428   */\n      swap3\n      swap2\n      pop\n      pop\n      jump\t// out\n        /* \"#utility.yul\":434:603   */\n    tag_13:\n        /* \"#utility.yul\":518:529   */\n      0x00\n        /* \"#utility.yul\":552:558   */\n      dup3\n        /* \"#utility.yul\":547:550   */\n      dup3\n        /* \"#utility.yul\":540:559   */\n      mstore\n        /* \"#utility.yul\":592:596   */\n      0x20\n        /* \"#utility.yul\":587:590   */\n      dup3\n        /* \"#utility.yul\":583:597   */\n      add\n        /* \"#utility.yul\":568:597   */\n      swap1\n      pop\n        /* \"#utility.yul\":434:603   */\n      swap3\n      swap2\n      pop\n      pop\n      jump\t// out\n        /* \"#utility.yul\":609:769   */\n    tag_14:\n        /* \"#utility.yul\":749:761   */\n      0x4e616f2061636569746f00000000000000000000000000000000000000000000\n        /* \"#utility.yul\":745:746   */\n      0x00\n        /* \"#utility.yul\":737:743   */\n      dup3\n        /* \"#utility.yul\":733:747   */\n      add\n        /* \"#utility.yul\":726:762   */\n      mstore\n        /* \"#utility.yul\":609:769   */\n      pop\n      jump\t// out\n        /* \"#utility.yul\":775:1141   */\n    tag_15:\n        /* \"#utility.yul\":917:920   */\n      0x00\n        /* \"#utility.yul\":938:1005   */\n      tag_25\n        /* \"#utility.yul\":1002:1004   */\n      0x0a\n        /* \"#utility.yul\":997:1000   */\n      dup4\n        /* \"#utility.yul\":938:1005   */\n      tag_13\n      jump\t// in\n    tag_25:\n        /* \"#utility.yul\":931:1005   */\n      swap2\n      pop\n        /* \"#utility.yul\":1014:1107   */\n      tag_26\n        /* \"#utility.yul\":1103:1106   */\n      dup3\n        /* \"#utility.yul\":1014:1107   */\n      tag_14\n      jump\t// in\n    tag_26:\n        /* \"#utility.yul\":1132:1134   */\n      0x20\n        /* \"#utility.yul\":1127:1130   */\n      dup3\n        /* \"#utility.yul\":1123:1135   */\n      add\n        /* \"#utility.yul\":1116:1135   */\n      swap1\n      pop\n        /* \"#utility.yul\":775:1141   */\n      swap2\n      swap1\n      pop\n      jump\t// out\n        /* \"#utility.yul\":1147:1566   */\n    tag_10:\n        /* \"#utility.yul\":1313:1317   */\n      0x00\n        /* \"#utility.yul\":1351:1353   */\n      0x20\n        /* \"#utility.yul\":1340:1349   */\n      dup3\n        /* \"#utility.yul\":1336:1354   */\n      add\n        /* \"#utility.yul\":1328:1354   */\n      swap1\n      pop\n        /* \"#utility.yul\":1400:1409   */\n      dup2\n        /* \"#utility.yul\":1394:1398   */\n      dup2\n        /* \"#utility.yul\":1390:1410   */\n      sub\n        /* \"#utility.yul\":1386:1387   */\n      0x00\n        /* \"#utility.yul\":1375:1384   */\n      dup4\n        /* \"#utility.yul\":1371:1388   */\n      add\n        /* \"#utility.yul\":1364:1411   */\n      mstore\n        /* \"#utility.yul\":1428:1559   */\n      tag_28\n        /* \"#utility.yul\":1554:1558   */\n      dup2\n        /* \"#utility.yul\":1428:1559   */\n      tag_15\n      jump\t// in\n    tag_28:\n        /* \"#utility.yul\":1420:1559   */\n      swap1\n      pop\n        /* \"#utility.yul\":1147:1566   */\n      swap2\n      swap1\n      pop\n      jump\t// out\n\n    auxdata: 0xa2646970667358221220c22c281d2a0f8af2accf39485a16f32246e59a8b2ab015fdb694e8469865ff5264736f6c634300080d0033\n}\n",
				"bytecode": {
					"linkReferences": {},
					"object": "608060405234801561001057600080fd5b5061017e806100206000396000f3fe60806040526004361061001e5760003560e01c8063d0e30db014610023575b600080fd5b61002b610041565b60405161003891906100b0565b60405180910390f35b6000670de0b6b3a764000034101561008e576040517f08c379a000000000000000000000000000000000000000000000000000000000815260040161008590610128565b60405180910390fd5b6001905090565b60008115159050919050565b6100aa81610095565b82525050565b60006020820190506100c560008301846100a1565b92915050565b600082825260208201905092915050565b7f4e616f2061636569746f00000000000000000000000000000000000000000000600082015250565b6000610112600a836100cb565b915061011d826100dc565b602082019050919050565b6000602082019050818103600083015261014181610105565b905091905056fea2646970667358221220c22c281d2a0f8af2accf39485a16f32246e59a8b2ab015fdb694e8469865ff5264736f6c634300080d0033",
					"opcodes": "PUSH1 0x80 PUSH1 0x40 MSTORE CALLVALUE DUP1 ISZERO PUSH2 0x10 JUMPI PUSH1 0x0 DUP1 REVERT JUMPDEST POP PUSH2 0x17E DUP1 PUSH2 0x20 PUSH1 0x0 CODECOPY PUSH1 0x0 RETURN INVALID PUSH1 0x80 PUSH1 0x40 MSTORE PUSH1 0x4 CALLDATASIZE LT PUSH2 0x1E JUMPI PUSH1 0x0 CALLDATALOAD PUSH1 0xE0 SHR DUP1 PUSH4 0xD0E30DB0 EQ PUSH2 0x23 JUMPI JUMPDEST PUSH1 0x0 DUP1 REVERT JUMPDEST PUSH2 0x2B PUSH2 0x41 JUMP JUMPDEST PUSH1 0x40 MLOAD PUSH2 0x38 SWAP2 SWAP1 PUSH2 0xB0 JUMP JUMPDEST PUSH1 0x40 MLOAD DUP1 SWAP2 SUB SWAP1 RETURN JUMPDEST PUSH1 0x0 PUSH8 0xDE0B6B3A7640000 CALLVALUE LT ISZERO PUSH2 0x8E JUMPI PUSH1 0x40 MLOAD PUSH32 0x8C379A000000000000000000000000000000000000000000000000000000000 DUP2 MSTORE PUSH1 0x4 ADD PUSH2 0x85 SWAP1 PUSH2 0x128 JUMP JUMPDEST PUSH1 0x40 MLOAD DUP1 SWAP2 SUB SWAP1 REVERT JUMPDEST PUSH1 0x1 SWAP1 POP SWAP1 JUMP JUMPDEST PUSH1 0x0 DUP2 ISZERO ISZERO SWAP1 POP SWAP2 SWAP1 POP JUMP JUMPDEST PUSH2 0xAA DUP2 PUSH2 0x95 JUMP JUMPDEST DUP3 MSTORE POP POP JUMP JUMPDEST PUSH1 0x0 PUSH1 0x20 DUP3 ADD SWAP1 POP PUSH2 0xC5 PUSH1 0x0 DUP4 ADD DUP5 PUSH2 0xA1 JUMP JUMPDEST SWAP3 SWAP2 POP POP JUMP JUMPDEST PUSH1 0x0 DUP3 DUP3 MSTORE PUSH1 0x20 DUP3 ADD SWAP1 POP SWAP3 SWAP2 POP POP JUMP JUMPDEST PUSH32 0x4E616F2061636569746F00000000000000000000000000000000000000000000 PUSH1 0x0 DUP3 ADD MSTORE POP JUMP JUMPDEST PUSH1 0x0 PUSH2 0x112 PUSH1 0xA DUP4 PUSH2 0xCB JUMP JUMPDEST SWAP2 POP PUSH2 0x11D DUP3 PUSH2 0xDC JUMP JUMPDEST PUSH1 0x20 DUP3 ADD SWAP1 POP SWAP2 SWAP1 POP JUMP JUMPDEST PUSH1 0x0 PUSH1 0x20 DUP3 ADD SWAP1 POP DUP2 DUP2 SUB PUSH1 0x0 DUP4 ADD MSTORE PUSH2 0x141 DUP2 PUSH2 0x105 JUMP JUMPDEST SWAP1 POP SWAP2 SWAP1 POP JUMP INVALID LOG2 PUSH5 0x6970667358 0x22 SLT KECCAK256 0xC2 0x2C 0x28 SAR 0x2A 0xF DUP11 CALLCODE 0xAC 0xCF CODECOPY BASEFEE GAS AND RETURN 0x22 CHAINID 0xE5 SWAP11 DUP12 0x2A 0xB0 ISZERO REVERT 0xB6 SWAP5 0xE8 CHAINID SWAP9 PUSH6 0xFF5264736F6C PUSH4 0x4300080D STOP CALLER "
				},
				"gasEstimates": {
					"creation": {
						"codeDepositCost": "76400",
						"executionCost": "123",
						"totalCost": "76523"
					},
					"external": {
						"deposit()": "415"
					}
				},
				"methodIdentifiers": {
					"deposit()": "d0e30db0"
				}
			},
			"storageLayout": {
				"storage": [],
				"types": null
			},
			"userdoc": {
				"kind": "user",
				"methods": {},
				"version": 1
			}
		}
	}
}