{
	"CursoSolidity/variaveis_built.sol": {
		"variaveis": {
			"abi": [
				{
					"inputs": [],
					"stateMutability": "payable",
					"type": "constructor"
				},
				{
					"inputs": [],
					"name": "chamou",
					"outputs": [
						{
							"internalType": "address",
							"name": "",
							"type": "address"
						}
					],
					"stateMutability": "view",
					"type": "function"
				},
				{
					"inputs": [],
					"name": "dificuldade",
					"outputs": [
						{
							"internalType": "uint256",
							"name": "",
							"type": "uint256"
						}
					],
					"stateMutability": "view",
					"type": "function"
				},
				{
					"inputs": [],
					"name": "endereco_miner",
					"outputs": [
						{
							"internalType": "address",
							"name": "",
							"type": "address"
						}
					],
					"stateMutability": "view",
					"type": "function"
				},
				{
					"inputs": [],
					"name": "enviou",
					"outputs": [
						{
							"internalType": "address",
							"name": "",
							"type": "address"
						}
					],
					"stateMutability": "view",
					"type": "function"
				},
				{
					"inputs": [],
					"name": "id",
					"outputs": [
						{
							"internalType": "uint256",
							"name": "",
							"type": "uint256"
						}
					],
					"stateMutability": "view",
					"type": "function"
				},
				{
					"inputs": [],
					"name": "limit",
					"outputs": [
						{
							"internalType": "uint256",
							"name": "",
							"type": "uint256"
						}
					],
					"stateMutability": "view",
					"type": "function"
				},
				{
					"inputs": [],
					"name": "numero_bloc",
					"outputs": [
						{
							"internalType": "uint256",
							"name": "",
							"type": "uint256"
						}
					],
					"stateMutability": "view",
					"type": "function"
				},
				{
					"inputs": [],
					"name": "numero_bloco",
					"outputs": [
						{
							"internalType": "uint256",
							"name": "",
							"type": "uint256"
						}
					],
					"stateMutability": "view",
					"type": "function"
				},
				{
					"inputs": [],
					"name": "timestamp",
					"outputs": [
						{
							"internalType": "uint256",
							"name": "",
							"type": "uint256"
						}
					],
					"stateMutability": "view",
					"type": "function"
				},
				{
					"inputs": [],
					"name": "valor",
					"outputs": [
						{
							"internalType": "uint256",
							"name": "",
							"type": "uint256"
						}
					],
					"stateMutability": "view",
					"type": "function"
				}
			],
			"devdoc": {
				"kind": "dev",
				"methods": {},
				"version": 1
			},
			"evm": {
				"assembly": "    /* \"CursoSolidity/variaveis_built.sol\":27:686  contract variaveis {\r... */\n  mstore(0x40, 0x80)\n    /* \"CursoSolidity/variaveis_built.sol\":377:390  block.chainid */\n  chainid\n    /* \"CursoSolidity/variaveis_built.sol\":372:374  id */\n  0x00\n    /* \"CursoSolidity/variaveis_built.sol\":372:390  id = block.chainid */\n  dup2\n  swap1\n  sstore\n  pop\n    /* \"CursoSolidity/variaveis_built.sol\":418:432  block.coinbase */\n  coinbase\n    /* \"CursoSolidity/variaveis_built.sol\":401:415  endereco_miner */\n  0x01\n  0x00\n    /* \"CursoSolidity/variaveis_built.sol\":401:432  endereco_miner = block.coinbase */\n  0x0100\n  exp\n  dup2\n  sload\n  dup2\n  0xffffffffffffffffffffffffffffffffffffffff\n  mul\n  not\n  and\n  swap1\n  dup4\n  0xffffffffffffffffffffffffffffffffffffffff\n  and\n  mul\n  or\n  swap1\n  sstore\n  pop\n    /* \"CursoSolidity/variaveis_built.sol\":457:473  block.difficulty */\n  difficulty\n    /* \"CursoSolidity/variaveis_built.sol\":443:454  dificuldade */\n  0x02\n    /* \"CursoSolidity/variaveis_built.sol\":443:473  dificuldade = block.difficulty */\n  dup2\n  swap1\n  sstore\n  pop\n    /* \"CursoSolidity/variaveis_built.sol\":492:506  block.gaslimit */\n  gaslimit\n    /* \"CursoSolidity/variaveis_built.sol\":484:489  limit */\n  0x04\n    /* \"CursoSolidity/variaveis_built.sol\":484:506  limit = block.gaslimit */\n  dup2\n  swap1\n  sstore\n  pop\n    /* \"CursoSolidity/variaveis_built.sol\":532:544  block.number */\n  number\n    /* \"CursoSolidity/variaveis_built.sol\":517:529  numero_bloco */\n  0x03\n    /* \"CursoSolidity/variaveis_built.sol\":517:544  numero_bloco = block.number */\n  dup2\n  swap1\n  sstore\n  pop\n    /* \"CursoSolidity/variaveis_built.sol\":567:582  block.timestamp */\n  timestamp\n    /* \"CursoSolidity/variaveis_built.sol\":555:564  timestamp */\n  0x06\n    /* \"CursoSolidity/variaveis_built.sol\":555:582  timestamp = block.timestamp */\n  dup2\n  swap1\n  sstore\n  pop\n    /* \"CursoSolidity/variaveis_built.sol\":604:614  msg.sender */\n  caller\n    /* \"CursoSolidity/variaveis_built.sol\":595:601  chamou */\n  0x07\n  0x00\n    /* \"CursoSolidity/variaveis_built.sol\":595:614  chamou = msg.sender */\n  0x0100\n  exp\n  dup2\n  sload\n  dup2\n  0xffffffffffffffffffffffffffffffffffffffff\n  mul\n  not\n  and\n  swap1\n  dup4\n  0xffffffffffffffffffffffffffffffffffffffff\n  and\n  mul\n  or\n  swap1\n  sstore\n  pop\n    /* \"CursoSolidity/variaveis_built.sol\":633:642  msg.value */\n  callvalue\n    /* \"CursoSolidity/variaveis_built.sol\":625:630  valor */\n  0x08\n    /* \"CursoSolidity/variaveis_built.sol\":625:642  valor = msg.value */\n  dup2\n  swap1\n  sstore\n  pop\n    /* \"CursoSolidity/variaveis_built.sol\":664:673  tx.origin */\n  origin\n    /* \"CursoSolidity/variaveis_built.sol\":655:661  enviou */\n  0x09\n  0x00\n    /* \"CursoSolidity/variaveis_built.sol\":655:673  enviou = tx.origin */\n  0x0100\n  exp\n  dup2\n  sload\n  dup2\n  0xffffffffffffffffffffffffffffffffffffffff\n  mul\n  not\n  and\n  swap1\n  dup4\n  0xffffffffffffffffffffffffffffffffffffffff\n  and\n  mul\n  or\n  swap1\n  sstore\n  pop\n    /* \"CursoSolidity/variaveis_built.sol\":27:686  contract variaveis {\r... */\n  dataSize(sub_0)\n  dup1\n  dataOffset(sub_0)\n  0x00\n  codecopy\n  0x00\n  return\nstop\n\nsub_0: assembly {\n        /* \"CursoSolidity/variaveis_built.sol\":27:686  contract variaveis {\r... */\n      mstore(0x40, 0x80)\n      callvalue\n      dup1\n      iszero\n      tag_1\n      jumpi\n      0x00\n      dup1\n      revert\n    tag_1:\n      pop\n      jumpi(tag_2, lt(calldatasize, 0x04))\n      shr(0xe0, calldataload(0x00))\n      dup1\n      0xa4d66daf\n      gt\n      tag_13\n      jumpi\n      dup1\n      0xa4d66daf\n      eq\n      tag_8\n      jumpi\n      dup1\n      0xaf640d0f\n      eq\n      tag_9\n      jumpi\n      dup1\n      0xb80777ea\n      eq\n      tag_10\n      jumpi\n      dup1\n      0xd83e1796\n      eq\n      tag_11\n      jumpi\n      dup1\n      0xecbac7cf\n      eq\n      tag_12\n      jumpi\n      jump(tag_2)\n    tag_13:\n      dup1\n      0x05598c6d\n      eq\n      tag_3\n      jumpi\n      dup1\n      0x54f8f9f9\n      eq\n      tag_4\n      jumpi\n      dup1\n      0x72b87cb1\n      eq\n      tag_5\n      jumpi\n      dup1\n      0x7b472dab\n      eq\n      tag_6\n      jumpi\n      dup1\n      0x8b10ad42\n      eq\n      tag_7\n      jumpi\n    tag_2:\n      0x00\n      dup1\n      revert\n        /* \"CursoSolidity/variaveis_built.sol\":195:218  uint public numero_bloc */\n    tag_3:\n      tag_14\n      tag_15\n      jump\t// in\n    tag_14:\n      mload(0x40)\n      tag_16\n      swap2\n      swap1\n      tag_17\n      jump\t// in\n    tag_16:\n      mload(0x40)\n      dup1\n      swap2\n      sub\n      swap1\n      return\n        /* \"CursoSolidity/variaveis_built.sol\":309:330  address public enviou */\n    tag_4:\n      tag_18\n      tag_19\n      jump\t// in\n    tag_18:\n      mload(0x40)\n      tag_20\n      swap2\n      swap1\n      tag_21\n      jump\t// in\n    tag_20:\n      mload(0x40)\n      dup1\n      swap2\n      sub\n      swap1\n      return\n        /* \"CursoSolidity/variaveis_built.sol\":110:133  uint public dificuldade */\n    tag_5:\n      tag_22\n      tag_23\n      jump\t// in\n    tag_22:\n      mload(0x40)\n      tag_24\n      swap2\n      swap1\n      tag_17\n      jump\t// in\n    tag_24:\n      mload(0x40)\n      dup1\n      swap2\n      sub\n      swap1\n      return\n        /* \"CursoSolidity/variaveis_built.sol\":255:276  address public chamou */\n    tag_6:\n      tag_25\n      tag_26\n      jump\t// in\n    tag_25:\n      mload(0x40)\n      tag_27\n      swap2\n      swap1\n      tag_21\n      jump\t// in\n    tag_27:\n      mload(0x40)\n      dup1\n      swap2\n      sub\n      swap1\n      return\n        /* \"CursoSolidity/variaveis_built.sol\":74:103  address public endereco_miner */\n    tag_7:\n      tag_28\n      tag_29\n      jump\t// in\n    tag_28:\n      mload(0x40)\n      tag_30\n      swap2\n      swap1\n      tag_21\n      jump\t// in\n    tag_30:\n      mload(0x40)\n      dup1\n      swap2\n      sub\n      swap1\n      return\n        /* \"CursoSolidity/variaveis_built.sol\":171:188  uint public limit */\n    tag_8:\n      tag_31\n      tag_32\n      jump\t// in\n    tag_31:\n      mload(0x40)\n      tag_33\n      swap2\n      swap1\n      tag_17\n      jump\t// in\n    tag_33:\n      mload(0x40)\n      dup1\n      swap2\n      sub\n      swap1\n      return\n        /* \"CursoSolidity/variaveis_built.sol\":53:67  uint public id */\n    tag_9:\n      tag_34\n      tag_35\n      jump\t// in\n    tag_34:\n      mload(0x40)\n      tag_36\n      swap2\n      swap1\n      tag_17\n      jump\t// in\n    tag_36:\n      mload(0x40)\n      dup1\n      swap2\n      sub\n      swap1\n      return\n        /* \"CursoSolidity/variaveis_built.sol\":225:246  uint public timestamp */\n    tag_10:\n      tag_37\n      tag_38\n      jump\t// in\n    tag_37:\n      mload(0x40)\n      tag_39\n      swap2\n      swap1\n      tag_17\n      jump\t// in\n    tag_39:\n      mload(0x40)\n      dup1\n      swap2\n      sub\n      swap1\n      return\n        /* \"CursoSolidity/variaveis_built.sol\":140:164  uint public numero_bloco */\n    tag_11:\n      tag_40\n      tag_41\n      jump\t// in\n    tag_40:\n      mload(0x40)\n      tag_42\n      swap2\n      swap1\n      tag_17\n      jump\t// in\n    tag_42:\n      mload(0x40)\n      dup1\n      swap2\n      sub\n      swap1\n      return\n        /* \"CursoSolidity/variaveis_built.sol\":283:300  uint public valor */\n    tag_12:\n      tag_43\n      tag_44\n      jump\t// in\n    tag_43:\n      mload(0x40)\n      tag_45\n      swap2\n      swap1\n      tag_17\n      jump\t// in\n    tag_45:\n      mload(0x40)\n      dup1\n      swap2\n      sub\n      swap1\n      return\n        /* \"CursoSolidity/variaveis_built.sol\":195:218  uint public numero_bloc */\n    tag_15:\n      sload(0x05)\n      dup2\n      jump\t// out\n        /* \"CursoSolidity/variaveis_built.sol\":309:330  address public enviou */\n    tag_19:\n      0x09\n      0x00\n      swap1\n      sload\n      swap1\n      0x0100\n      exp\n      swap1\n      div\n      0xffffffffffffffffffffffffffffffffffffffff\n      and\n      dup2\n      jump\t// out\n        /* \"CursoSolidity/variaveis_built.sol\":110:133  uint public dificuldade */\n    tag_23:\n      sload(0x02)\n      dup2\n      jump\t// out\n        /* \"CursoSolidity/variaveis_built.sol\":255:276  address public chamou */\n    tag_26:\n      0x07\n      0x00\n      swap1\n      sload\n      swap1\n      0x0100\n      exp\n      swap1\n      div\n      0xffffffffffffffffffffffffffffffffffffffff\n      and\n      dup2\n      jump\t// out\n        /* \"CursoSolidity/variaveis_built.sol\":74:103  address public endereco_miner */\n    tag_29:\n      0x01\n      0x00\n      swap1\n      sload\n      swap1\n      0x0100\n      exp\n      swap1\n      div\n      0xffffffffffffffffffffffffffffffffffffffff\n      and\n      dup2\n      jump\t// out\n        /* \"CursoSolidity/variaveis_built.sol\":171:188  uint public limit */\n    tag_32:\n      sload(0x04)\n      dup2\n      jump\t// out\n        /* \"CursoSolidity/variaveis_built.sol\":53:67  uint public id */\n    tag_35:\n      sload(0x00)\n      dup2\n      jump\t// out\n        /* \"CursoSolidity/variaveis_built.sol\":225:246  uint public timestamp */\n    tag_38:\n      sload(0x06)\n      dup2\n      jump\t// out\n        /* \"CursoSolidity/variaveis_built.sol\":140:164  uint public numero_bloco */\n    tag_41:\n      sload(0x03)\n      dup2\n      jump\t// out\n        /* \"CursoSolidity/variaveis_built.sol\":283:300  uint public valor */\n    tag_44:\n      sload(0x08)\n      dup2\n      jump\t// out\n        /* \"#utility.yul\":7:125   */\n    tag_47:\n        /* \"#utility.yul\":94:118   */\n      tag_49\n        /* \"#utility.yul\":112:117   */\n      dup2\n        /* \"#utility.yul\":94:118   */\n      tag_50\n      jump\t// in\n    tag_49:\n        /* \"#utility.yul\":89:92   */\n      dup3\n        /* \"#utility.yul\":82:119   */\n      mstore\n        /* \"#utility.yul\":7:125   */\n      pop\n      pop\n      jump\t// out\n        /* \"#utility.yul\":131:249   */\n    tag_51:\n        /* \"#utility.yul\":218:242   */\n      tag_53\n        /* \"#utility.yul\":236:241   */\n      dup2\n        /* \"#utility.yul\":218:242   */\n      tag_54\n      jump\t// in\n    tag_53:\n        /* \"#utility.yul\":213:216   */\n      dup3\n        /* \"#utility.yul\":206:243   */\n      mstore\n        /* \"#utility.yul\":131:249   */\n      pop\n      pop\n      jump\t// out\n        /* \"#utility.yul\":255:477   */\n    tag_21:\n        /* \"#utility.yul\":348:352   */\n      0x00\n        /* \"#utility.yul\":386:388   */\n      0x20\n        /* \"#utility.yul\":375:384   */\n      dup3\n        /* \"#utility.yul\":371:389   */\n      add\n        /* \"#utility.yul\":363:389   */\n      swap1\n      pop\n        /* \"#utility.yul\":399:470   */\n      tag_56\n        /* \"#utility.yul\":467:468   */\n      0x00\n        /* \"#utility.yul\":456:465   */\n      dup4\n        /* \"#utility.yul\":452:469   */\n      add\n        /* \"#utility.yul\":443:449   */\n      dup5\n        /* \"#utility.yul\":399:470   */\n      tag_47\n      jump\t// in\n    tag_56:\n        /* \"#utility.yul\":255:477   */\n      swap3\n      swap2\n      pop\n      pop\n      jump\t// out\n        /* \"#utility.yul\":483:705   */\n    tag_17:\n        /* \"#utility.yul\":576:580   */\n      0x00\n        /* \"#utility.yul\":614:616   */\n      0x20\n        /* \"#utility.yul\":603:612   */\n      dup3\n        /* \"#utility.yul\":599:617   */\n      add\n        /* \"#utility.yul\":591:617   */\n      swap1\n      pop\n        /* \"#utility.yul\":627:698   */\n      tag_58\n        /* \"#utility.yul\":695:696   */\n      0x00\n        /* \"#utility.yul\":684:693   */\n      dup4\n        /* \"#utility.yul\":680:697   */\n      add\n        /* \"#utility.yul\":671:677   */\n      dup5\n        /* \"#utility.yul\":627:698   */\n      tag_51\n      jump\t// in\n    tag_58:\n        /* \"#utility.yul\":483:705   */\n      swap3\n      swap2\n      pop\n      pop\n      jump\t// out\n        /* \"#utility.yul\":711:807   */\n    tag_50:\n        /* \"#utility.yul\":748:755   */\n      0x00\n        /* \"#utility.yul\":777:801   */\n      tag_60\n        /* \"#utility.yul\":795:800   */\n      dup3\n        /* \"#utility.yul\":777:801   */\n      tag_61\n      jump\t// in\n    tag_60:\n        /* \"#utility.yul\":766:801   */\n      swap1\n      pop\n        /* \"#utility.yul\":711:807   */\n      swap2\n      swap1\n      pop\n      jump\t// out\n        /* \"#utility.yul\":813:939   */\n    tag_61:\n        /* \"#utility.yul\":850:857   */\n      0x00\n        /* \"#utility.yul\":890:932   */\n      0xffffffffffffffffffffffffffffffffffffffff\n        /* \"#utility.yul\":883:888   */\n      dup3\n        /* \"#utility.yul\":879:933   */\n      and\n        /* \"#utility.yul\":868:933   */\n      swap1\n      pop\n        /* \"#utility.yul\":813:939   */\n      swap2\n      swap1\n      pop\n      jump\t// out\n        /* \"#utility.yul\":945:1022   */\n    tag_54:\n        /* \"#utility.yul\":982:989   */\n      0x00\n        /* \"#utility.yul\":1011:1016   */\n      dup2\n        /* \"#utility.yul\":1000:1016   */\n      swap1\n      pop\n        /* \"#utility.yul\":945:1022   */\n      swap2\n      swap1\n      pop\n      jump\t// out\n\n    auxdata: 0xa2646970667358221220e4776e28e12620e6d037c6d2ca885e61931ad7f8ef7407ded740f0682cd1ea5764736f6c63430008070033\n}\n",
				"bytecode": {
					"linkReferences": {},
					"object": "60806040524660008190555041600160006101000a81548173ffffffffffffffffffffffffffffffffffffffff021916908373ffffffffffffffffffffffffffffffffffffffff1602179055504460028190555045600481905550436003819055504260068190555033600760006101000a81548173ffffffffffffffffffffffffffffffffffffffff021916908373ffffffffffffffffffffffffffffffffffffffff1602179055503460088190555032600960006101000a81548173ffffffffffffffffffffffffffffffffffffffff021916908373ffffffffffffffffffffffffffffffffffffffff160217905550610331806101006000396000f3fe608060405234801561001057600080fd5b506004361061009e5760003560e01c8063a4d66daf11610066578063a4d66daf14610139578063af640d0f14610157578063b80777ea14610175578063d83e179614610193578063ecbac7cf146101b15761009e565b806305598c6d146100a357806354f8f9f9146100c157806372b87cb1146100df5780637b472dab146100fd5780638b10ad421461011b575b600080fd5b6100ab6101cf565b6040516100b891906102a4565b60405180910390f35b6100c96101d5565b6040516100d69190610289565b60405180910390f35b6100e76101fb565b6040516100f491906102a4565b60405180910390f35b610105610201565b6040516101129190610289565b60405180910390f35b610123610227565b6040516101309190610289565b60405180910390f35b61014161024d565b60405161014e91906102a4565b60405180910390f35b61015f610253565b60405161016c91906102a4565b60405180910390f35b61017d610259565b60405161018a91906102a4565b60405180910390f35b61019b61025f565b6040516101a891906102a4565b60405180910390f35b6101b9610265565b6040516101c691906102a4565b60405180910390f35b60055481565b600960009054906101000a900473ffffffffffffffffffffffffffffffffffffffff1681565b60025481565b600760009054906101000a900473ffffffffffffffffffffffffffffffffffffffff1681565b600160009054906101000a900473ffffffffffffffffffffffffffffffffffffffff1681565b60045481565b60005481565b60065481565b60035481565b60085481565b610274816102bf565b82525050565b610283816102f1565b82525050565b600060208201905061029e600083018461026b565b92915050565b60006020820190506102b9600083018461027a565b92915050565b60006102ca826102d1565b9050919050565b600073ffffffffffffffffffffffffffffffffffffffff82169050919050565b600081905091905056fea2646970667358221220e4776e28e12620e6d037c6d2ca885e61931ad7f8ef7407ded740f0682cd1ea5764736f6c63430008070033",
					"opcodes": "PUSH1 0x80 PUSH1 0x40 MSTORE CHAINID PUSH1 0x0 DUP2 SWAP1 SSTORE POP COINBASE PUSH1 0x1 PUSH1 0x0 PUSH2 0x100 EXP DUP2 SLOAD DUP2 PUSH20 0xFFFFFFFFFFFFFFFFFFFFFFFFFFFFFFFFFFFFFFFF MUL NOT AND SWAP1 DUP4 PUSH20 0xFFFFFFFFFFFFFFFFFFFFFFFFFFFFFFFFFFFFFFFF AND MUL OR SWAP1 SSTORE POP DIFFICULTY PUSH1 0x2 DUP2 SWAP1 SSTORE POP GASLIMIT PUSH1 0x4 DUP2 SWAP1 SSTORE POP NUMBER PUSH1 0x3 DUP2 SWAP1 SSTORE POP TIMESTAMP PUSH1 0x6 DUP2 SWAP1 SSTORE POP CALLER PUSH1 0x7 PUSH1 0x0 PUSH2 0x100 EXP DUP2 SLOAD DUP2 PUSH20 0xFFFFFFFFFFFFFFFFFFFFFFFFFFFFFFFFFFFFFFFF MUL NOT AND SWAP1 DUP4 PUSH20 0xFFFFFFFFFFFFFFFFFFFFFFFFFFFFFFFFFFFFFFFF AND MUL OR SWAP1 SSTORE POP CALLVALUE PUSH1 0x8 DUP2 SWAP1 SSTORE POP ORIGIN PUSH1 0x9 PUSH1 0x0 PUSH2 0x100 EXP DUP2 SLOAD DUP2 PUSH20 0xFFFFFFFFFFFFFFFFFFFFFFFFFFFFFFFFFFFFFFFF MUL NOT AND SWAP1 DUP4 PUSH20 0xFFFFFFFFFFFFFFFFFFFFFFFFFFFFFFFFFFFFFFFF AND MUL OR SWAP1 SSTORE POP PUSH2 0x331 DUP1 PUSH2 0x100 PUSH1 0x0 CODECOPY PUSH1 0x0 RETURN INVALID PUSH1 0x80 PUSH1 0x40 MSTORE CALLVALUE DUP1 ISZERO PUSH2 0x10 JUMPI PUSH1 0x0 DUP1 REVERT JUMPDEST POP PUSH1 0x4 CALLDATASIZE LT PUSH2 0x9E JUMPI PUSH1 0x0 CALLDATALOAD PUSH1 0xE0 SHR DUP1 PUSH4 0xA4D66DAF GT PUSH2 0x66 JUMPI DUP1 PUSH4 0xA4D66DAF EQ PUSH2 0x139 JUMPI DUP1 PUSH4 0xAF640D0F EQ PUSH2 0x157 JUMPI DUP1 PUSH4 0xB80777EA EQ PUSH2 0x175 JUMPI DUP1 PUSH4 0xD83E1796 EQ PUSH2 0x193 JUMPI DUP1 PUSH4 0xECBAC7CF EQ PUSH2 0x1B1 JUMPI PUSH2 0x9E JUMP JUMPDEST DUP1 PUSH4 0x5598C6D EQ PUSH2 0xA3 JUMPI DUP1 PUSH4 0x54F8F9F9 EQ PUSH2 0xC1 JUMPI DUP1 PUSH4 0x72B87CB1 EQ PUSH2 0xDF JUMPI DUP1 PUSH4 0x7B472DAB EQ PUSH2 0xFD JUMPI DUP1 PUSH4 0x8B10AD42 EQ PUSH2 0x11B JUMPI JUMPDEST PUSH1 0x0 DUP1 REVERT JUMPDEST PUSH2 0xAB PUSH2 0x1CF JUMP JUMPDEST PUSH1 0x40 MLOAD PUSH2 0xB8 SWAP2 SWAP1 PUSH2 0x2A4 JUMP JUMPDEST PUSH1 0x40 MLOAD DUP1 SWAP2 SUB SWAP1 RETURN JUMPDEST PUSH2 0xC9 PUSH2 0x1D5 JUMP JUMPDEST PUSH1 0x40 MLOAD PUSH2 0xD6 SWAP2 SWAP1 PUSH2 0x289 JUMP JUMPDEST PUSH1 0x40 MLOAD DUP1 SWAP2 SUB SWAP1 RETURN JUMPDEST PUSH2 0xE7 PUSH2 0x1FB JUMP JUMPDEST PUSH1 0x40 MLOAD PUSH2 0xF4 SWAP2 SWAP1 PUSH2 0x2A4 JUMP JUMPDEST PUSH1 0x40 MLOAD DUP1 SWAP2 SUB SWAP1 RETURN JUMPDEST PUSH2 0x105 PUSH2 0x201 JUMP JUMPDEST PUSH1 0x40 MLOAD PUSH2 0x112 SWAP2 SWAP1 PUSH2 0x289 JUMP JUMPDEST PUSH1 0x40 MLOAD DUP1 SWAP2 SUB SWAP1 RETURN JUMPDEST PUSH2 0x123 PUSH2 0x227 JUMP JUMPDEST PUSH1 0x40 MLOAD PUSH2 0x130 SWAP2 SWAP1 PUSH2 0x289 JUMP JUMPDEST PUSH1 0x40 MLOAD DUP1 SWAP2 SUB SWAP1 RETURN JUMPDEST PUSH2 0x141 PUSH2 0x24D JUMP JUMPDEST PUSH1 0x40 MLOAD PUSH2 0x14E SWAP2 SWAP1 PUSH2 0x2A4 JUMP JUMPDEST PUSH1 0x40 MLOAD DUP1 SWAP2 SUB SWAP1 RETURN JUMPDEST PUSH2 0x15F PUSH2 0x253 JUMP JUMPDEST PUSH1 0x40 MLOAD PUSH2 0x16C SWAP2 SWAP1 PUSH2 0x2A4 JUMP JUMPDEST PUSH1 0x40 MLOAD DUP1 SWAP2 SUB SWAP1 RETURN JUMPDEST PUSH2 0x17D PUSH2 0x259 JUMP JUMPDEST PUSH1 0x40 MLOAD PUSH2 0x18A SWAP2 SWAP1 PUSH2 0x2A4 JUMP JUMPDEST PUSH1 0x40 MLOAD DUP1 SWAP2 SUB SWAP1 RETURN JUMPDEST PUSH2 0x19B PUSH2 0x25F JUMP JUMPDEST PUSH1 0x40 MLOAD PUSH2 0x1A8 SWAP2 SWAP1 PUSH2 0x2A4 JUMP JUMPDEST PUSH1 0x40 MLOAD DUP1 SWAP2 SUB SWAP1 RETURN JUMPDEST PUSH2 0x1B9 PUSH2 0x265 JUMP JUMPDEST PUSH1 0x40 MLOAD PUSH2 0x1C6 SWAP2 SWAP1 PUSH2 0x2A4 JUMP JUMPDEST PUSH1 0x40 MLOAD DUP1 SWAP2 SUB SWAP1 RETURN JUMPDEST PUSH1 0x5 SLOAD DUP2 JUMP JUMPDEST PUSH1 0x9 PUSH1 0x0 SWAP1 SLOAD SWAP1 PUSH2 0x100 EXP SWAP1 DIV PUSH20 0xFFFFFFFFFFFFFFFFFFFFFFFFFFFFFFFFFFFFFFFF AND DUP2 JUMP JUMPDEST PUSH1 0x2 SLOAD DUP2 JUMP JUMPDEST PUSH1 0x7 PUSH1 0x0 SWAP1 SLOAD SWAP1 PUSH2 0x100 EXP SWAP1 DIV PUSH20 0xFFFFFFFFFFFFFFFFFFFFFFFFFFFFFFFFFFFFFFFF AND DUP2 JUMP JUMPDEST PUSH1 0x1 PUSH1 0x0 SWAP1 SLOAD SWAP1 PUSH2 0x100 EXP SWAP1 DIV PUSH20 0xFFFFFFFFFFFFFFFFFFFFFFFFFFFFFFFFFFFFFFFF AND DUP2 JUMP JUMPDEST PUSH1 0x4 SLOAD DUP2 JUMP JUMPDEST PUSH1 0x0 SLOAD DUP2 JUMP JUMPDEST PUSH1 0x6 SLOAD DUP2 JUMP JUMPDEST PUSH1 0x3 SLOAD DUP2 JUMP JUMPDEST PUSH1 0x8 SLOAD DUP2 JUMP JUMPDEST PUSH2 0x274 DUP2 PUSH2 0x2BF JUMP JUMPDEST DUP3 MSTORE POP POP JUMP JUMPDEST PUSH2 0x283 DUP2 PUSH2 0x2F1 JUMP JUMPDEST DUP3 MSTORE POP POP JUMP JUMPDEST PUSH1 0x0 PUSH1 0x20 DUP3 ADD SWAP1 POP PUSH2 0x29E PUSH1 0x0 DUP4 ADD DUP5 PUSH2 0x26B JUMP JUMPDEST SWAP3 SWAP2 POP POP JUMP JUMPDEST PUSH1 0x0 PUSH1 0x20 DUP3 ADD SWAP1 POP PUSH2 0x2B9 PUSH1 0x0 DUP4 ADD DUP5 PUSH2 0x27A JUMP JUMPDEST SWAP3 SWAP2 POP POP JUMP JUMPDEST PUSH1 0x0 PUSH2 0x2CA DUP3 PUSH2 0x2D1 JUMP JUMPDEST SWAP1 POP SWAP2 SWAP1 POP JUMP JUMPDEST PUSH1 0x0 PUSH20 0xFFFFFFFFFFFFFFFFFFFFFFFFFFFFFFFFFFFFFFFF DUP3 AND SWAP1 POP SWAP2 SWAP1 POP JUMP JUMPDEST PUSH1 0x0 DUP2 SWAP1 POP SWAP2 SWAP1 POP JUMP INVALID LOG2 PUSH5 0x6970667358 0x22 SLT KECCAK256 0xE4 PUSH24 0x6E28E12620E6D037C6D2CA885E61931AD7F8EF7407DED740 CREATE PUSH9 0x2CD1EA5764736F6C63 NUMBER STOP ADDMOD SMOD STOP CALLER "
				},
				"gasEstimates": {
					"creation": {
						"codeDepositCost": "163400",
						"executionCost": "205660",
						"totalCost": "369060"
					},
					"external": {
						"chamou()": "2581",
						"dificuldade()": "2474",
						"endereco_miner()": "2603",
						"enviou()": "2537",
						"id()": "2451",
						"limit()": "2429",
						"numero_bloc()": "2430",
						"numero_bloco()": "2495",
						"timestamp()": "2473",
						"valor()": "2517"
					}
				},
				"methodIdentifiers": {
					"chamou()": "7b472dab",
					"dificuldade()": "72b87cb1",
					"endereco_miner()": "8b10ad42",
					"enviou()": "54f8f9f9",
					"id()": "af640d0f",
					"limit()": "a4d66daf",
					"numero_bloc()": "05598c6d",
					"numero_bloco()": "d83e1796",
					"timestamp()": "b80777ea",
					"valor()": "ecbac7cf"
				}
			},
			"userdoc": {
				"kind": "user",
				"methods": {},
				"version": 1
			}
		}
	}
}